{
  "_format": "hh-sol-artifact-1",
  "contractName": "FactoryNFTv2",
  "sourceName": "contracts/factoryNFTv2.sol",
  "abi": [
    {
      "inputs": [],
      "stateMutability": "nonpayable",
      "type": "constructor"
    },
    {
      "anonymous": false,
      "inputs": [
        {
          "indexed": true,
          "internalType": "address",
          "name": "owner",
          "type": "address"
        },
        {
          "indexed": true,
          "internalType": "address",
          "name": "approved",
          "type": "address"
        },
        {
          "indexed": true,
          "internalType": "uint256",
          "name": "tokenId",
          "type": "uint256"
        }
      ],
      "name": "Approval",
      "type": "event"
    },
    {
      "anonymous": false,
      "inputs": [
        {
          "indexed": true,
          "internalType": "address",
          "name": "owner",
          "type": "address"
        },
        {
          "indexed": true,
          "internalType": "address",
          "name": "operator",
          "type": "address"
        },
        {
          "indexed": false,
          "internalType": "bool",
          "name": "approved",
          "type": "bool"
        }
      ],
      "name": "ApprovalForAll",
      "type": "event"
    },
    {
      "anonymous": false,
      "inputs": [
        {
          "indexed": true,
          "internalType": "address",
          "name": "previousOwner",
          "type": "address"
        },
        {
          "indexed": true,
          "internalType": "address",
          "name": "newOwner",
          "type": "address"
        }
      ],
      "name": "OwnershipTransferred",
      "type": "event"
    },
    {
      "anonymous": false,
      "inputs": [
        {
          "indexed": true,
          "internalType": "address",
          "name": "from",
          "type": "address"
        },
        {
          "indexed": true,
          "internalType": "address",
          "name": "to",
          "type": "address"
        },
        {
          "indexed": true,
          "internalType": "uint256",
          "name": "tokenId",
          "type": "uint256"
        }
      ],
      "name": "Transfer",
      "type": "event"
    },
    {
      "inputs": [
        {
          "internalType": "address",
          "name": "to",
          "type": "address"
        },
        {
          "internalType": "uint256",
          "name": "tokenId",
          "type": "uint256"
        }
      ],
      "name": "approve",
      "outputs": [],
      "stateMutability": "nonpayable",
      "type": "function"
    },
    {
      "inputs": [
        {
          "internalType": "address",
          "name": "owner",
          "type": "address"
        }
      ],
      "name": "balanceOf",
      "outputs": [
        {
          "internalType": "uint256",
          "name": "",
          "type": "uint256"
        }
      ],
      "stateMutability": "view",
      "type": "function"
    },
    {
      "inputs": [
        {
          "internalType": "uint256",
          "name": "numberOfNfts",
          "type": "uint256"
        }
      ],
      "name": "createToken",
      "outputs": [
        {
          "internalType": "bool",
          "name": "success",
          "type": "bool"
        }
      ],
      "stateMutability": "payable",
      "type": "function"
    },
    {
      "inputs": [
        {
          "internalType": "uint256",
          "name": "id",
          "type": "uint256"
        }
      ],
      "name": "currentLevel",
      "outputs": [
        {
          "internalType": "uint256",
          "name": "",
          "type": "uint256"
        }
      ],
      "stateMutability": "view",
      "type": "function"
    },
    {
      "inputs": [
        {
          "internalType": "uint256",
          "name": "tokenId",
          "type": "uint256"
        }
      ],
      "name": "getApproved",
      "outputs": [
        {
          "internalType": "address",
          "name": "",
          "type": "address"
        }
      ],
      "stateMutability": "view",
      "type": "function"
    },
    {
      "inputs": [
        {
          "internalType": "address",
          "name": "owner",
          "type": "address"
        },
        {
          "internalType": "address",
          "name": "operator",
          "type": "address"
        }
      ],
      "name": "isApprovedForAll",
      "outputs": [
        {
          "internalType": "bool",
          "name": "",
          "type": "bool"
        }
      ],
      "stateMutability": "view",
      "type": "function"
    },
    {
      "inputs": [
        {
          "internalType": "uint256",
          "name": "id",
          "type": "uint256"
        }
      ],
      "name": "levelUp",
      "outputs": [],
      "stateMutability": "payable",
      "type": "function"
    },
    {
      "inputs": [
        {
          "internalType": "uint256",
          "name": "id",
          "type": "uint256"
        }
      ],
      "name": "levelUpCost",
      "outputs": [
        {
          "internalType": "uint256",
          "name": "",
          "type": "uint256"
        }
      ],
      "stateMutability": "view",
      "type": "function"
    },
    {
      "inputs": [],
      "name": "maxReveal",
      "outputs": [
        {
          "internalType": "uint256",
          "name": "maxids",
          "type": "uint256"
        }
      ],
      "stateMutability": "view",
      "type": "function"
    },
    {
      "inputs": [
        {
          "internalType": "uint256",
          "name": "_id",
          "type": "uint256"
        }
      ],
      "name": "mintTime",
      "outputs": [
        {
          "internalType": "uint256",
          "name": "",
          "type": "uint256"
        }
      ],
      "stateMutability": "view",
      "type": "function"
    },
    {
      "inputs": [],
      "name": "name",
      "outputs": [
        {
          "internalType": "string",
          "name": "",
          "type": "string"
        }
      ],
      "stateMutability": "view",
      "type": "function"
    },
    {
      "inputs": [],
      "name": "owner",
      "outputs": [
        {
          "internalType": "address",
          "name": "",
          "type": "address"
        }
      ],
      "stateMutability": "view",
      "type": "function"
    },
    {
      "inputs": [
        {
          "internalType": "uint256",
          "name": "tokenId",
          "type": "uint256"
        }
      ],
      "name": "ownerOf",
      "outputs": [
        {
          "internalType": "address",
          "name": "",
          "type": "address"
        }
      ],
      "stateMutability": "view",
      "type": "function"
    },
    {
      "inputs": [
        {
          "internalType": "uint256",
          "name": "",
          "type": "uint256"
        }
      ],
      "name": "ratLevel",
      "outputs": [
        {
          "internalType": "uint256",
          "name": "",
          "type": "uint256"
        }
      ],
      "stateMutability": "view",
      "type": "function"
    },
    {
      "inputs": [
        {
          "internalType": "uint256",
          "name": "",
          "type": "uint256"
        }
      ],
      "name": "ratMintTimeStamp",
      "outputs": [
        {
          "internalType": "uint256",
          "name": "",
          "type": "uint256"
        }
      ],
      "stateMutability": "view",
      "type": "function"
    },
    {
      "inputs": [],
      "name": "renounceOwnership",
      "outputs": [],
      "stateMutability": "nonpayable",
      "type": "function"
    },
    {
      "inputs": [
        {
          "internalType": "address",
          "name": "to",
          "type": "address"
        },
        {
          "internalType": "uint256",
          "name": "tokenId",
          "type": "uint256"
        }
      ],
      "name": "safeMint",
      "outputs": [],
      "stateMutability": "nonpayable",
      "type": "function"
    },
    {
      "inputs": [
        {
          "internalType": "address",
          "name": "from",
          "type": "address"
        },
        {
          "internalType": "address",
          "name": "to",
          "type": "address"
        },
        {
          "internalType": "uint256",
          "name": "tokenId",
          "type": "uint256"
        }
      ],
      "name": "safeTransferFrom",
      "outputs": [],
      "stateMutability": "nonpayable",
      "type": "function"
    },
    {
      "inputs": [
        {
          "internalType": "address",
          "name": "from",
          "type": "address"
        },
        {
          "internalType": "address",
          "name": "to",
          "type": "address"
        },
        {
          "internalType": "uint256",
          "name": "tokenId",
          "type": "uint256"
        },
        {
          "internalType": "bytes",
          "name": "_data",
          "type": "bytes"
        }
      ],
      "name": "safeTransferFrom",
      "outputs": [],
      "stateMutability": "nonpayable",
      "type": "function"
    },
    {
      "inputs": [
        {
          "internalType": "address",
          "name": "operator",
          "type": "address"
        },
        {
          "internalType": "bool",
          "name": "approved",
          "type": "bool"
        }
      ],
      "name": "setApprovalForAll",
      "outputs": [],
      "stateMutability": "nonpayable",
      "type": "function"
    },
    {
      "inputs": [
        {
          "internalType": "uint256",
          "name": "_cost",
          "type": "uint256"
        }
      ],
      "name": "setBaseLevelCost",
      "outputs": [],
      "stateMutability": "nonpayable",
      "type": "function"
    },
    {
      "inputs": [
        {
          "internalType": "string",
          "name": "url",
          "type": "string"
        }
      ],
      "name": "setBaseUrl",
      "outputs": [],
      "stateMutability": "nonpayable",
      "type": "function"
    },
    {
      "inputs": [
        {
          "internalType": "uint256",
          "name": "_maxRevealId",
          "type": "uint256"
        }
      ],
      "name": "setMaxReveal",
      "outputs": [],
      "stateMutability": "nonpayable",
      "type": "function"
    },
    {
      "inputs": [
        {
          "internalType": "uint256",
          "name": "_newSupply",
          "type": "uint256"
        }
      ],
      "name": "setMaxSupply",
      "outputs": [],
      "stateMutability": "nonpayable",
      "type": "function"
    },
    {
      "inputs": [],
      "name": "setMintLive",
      "outputs": [],
      "stateMutability": "nonpayable",
      "type": "function"
    },
    {
      "inputs": [
        {
          "internalType": "uint256",
          "name": "_newPrice",
          "type": "uint256"
        }
      ],
      "name": "setMintPrice",
      "outputs": [],
      "stateMutability": "nonpayable",
      "type": "function"
    },
    {
      "inputs": [
        {
          "internalType": "uint256",
          "name": "_mod",
          "type": "uint256"
        }
      ],
      "name": "setMod",
      "outputs": [],
      "stateMutability": "nonpayable",
      "type": "function"
    },
    {
      "inputs": [
        {
          "internalType": "address",
          "name": "_nibblesAddr",
          "type": "address"
        }
      ],
      "name": "setNibblesAddr",
      "outputs": [],
      "stateMutability": "nonpayable",
      "type": "function"
    },
    {
      "inputs": [
        {
          "internalType": "string",
          "name": "url",
          "type": "string"
        }
      ],
      "name": "setPreRevealUrl",
      "outputs": [],
      "stateMutability": "nonpayable",
      "type": "function"
    },
    {
      "inputs": [
        {
          "internalType": "address",
          "name": "_trinketAddr",
          "type": "address"
        }
      ],
      "name": "setTrinketAddr",
      "outputs": [],
      "stateMutability": "nonpayable",
      "type": "function"
    },
    {
      "inputs": [
        {
          "internalType": "bytes4",
          "name": "interfaceId",
          "type": "bytes4"
        }
      ],
      "name": "supportsInterface",
      "outputs": [
        {
          "internalType": "bool",
          "name": "",
          "type": "bool"
        }
      ],
      "stateMutability": "view",
      "type": "function"
    },
    {
      "inputs": [],
      "name": "symbol",
      "outputs": [
        {
          "internalType": "string",
          "name": "",
          "type": "string"
        }
      ],
      "stateMutability": "view",
      "type": "function"
    },
    {
      "inputs": [
        {
          "internalType": "uint256",
          "name": "index",
          "type": "uint256"
        }
      ],
      "name": "tokenByIndex",
      "outputs": [
        {
          "internalType": "uint256",
          "name": "",
          "type": "uint256"
        }
      ],
      "stateMutability": "view",
      "type": "function"
    },
    {
      "inputs": [
        {
          "internalType": "address",
          "name": "owner",
          "type": "address"
        },
        {
          "internalType": "uint256",
          "name": "index",
          "type": "uint256"
        }
      ],
      "name": "tokenOfOwnerByIndex",
      "outputs": [
        {
          "internalType": "uint256",
          "name": "",
          "type": "uint256"
        }
      ],
      "stateMutability": "view",
      "type": "function"
    },
    {
      "inputs": [
        {
          "internalType": "uint256",
          "name": "tokenId",
          "type": "uint256"
        }
      ],
      "name": "tokenURI",
      "outputs": [
        {
          "internalType": "string",
          "name": "uri",
          "type": "string"
        }
      ],
      "stateMutability": "view",
      "type": "function"
    },
    {
      "inputs": [],
      "name": "totalSupply",
      "outputs": [
        {
          "internalType": "uint256",
          "name": "",
          "type": "uint256"
        }
      ],
      "stateMutability": "view",
      "type": "function"
    },
    {
      "inputs": [
        {
          "internalType": "address payable",
          "name": "_to",
          "type": "address"
        },
        {
          "internalType": "uint256",
          "name": "_value",
          "type": "uint256"
        }
      ],
      "name": "transferAvax",
      "outputs": [
        {
          "internalType": "bool",
          "name": "success",
          "type": "bool"
        }
      ],
      "stateMutability": "nonpayable",
      "type": "function"
    },
    {
      "inputs": [
        {
          "internalType": "address",
          "name": "from",
          "type": "address"
        },
        {
          "internalType": "address",
          "name": "to",
          "type": "address"
        },
        {
          "internalType": "uint256",
          "name": "tokenId",
          "type": "uint256"
        }
      ],
      "name": "transferFrom",
      "outputs": [],
      "stateMutability": "nonpayable",
      "type": "function"
    },
    {
      "inputs": [
        {
          "internalType": "address",
          "name": "newOwner",
          "type": "address"
        }
      ],
      "name": "transferOwnership",
      "outputs": [],
      "stateMutability": "nonpayable",
      "type": "function"
    }
  ],
  "bytecode": "0x60806040526000600d60006101000a81548160ff0219169083151502179055506000600d60016101000a81548160ff0219169083151502179055506706f05b59d3b20000600e556014600f5560c8601055600060115561138860165560646017553480156200006d57600080fd5b506040518060400160405280600d81526020017f41564158204e6962626c657273000000000000000000000000000000000000008152506040518060400160405280600881526020017f4e4942424c4552530000000000000000000000000000000000000000000000008152508160009080519060200190620000f292919062000202565b5080600190805190602001906200010b92919062000202565b5050506200012e620001226200013460201b60201c565b6200013c60201b60201c565b62000317565b600033905090565b6000600760009054906101000a900473ffffffffffffffffffffffffffffffffffffffff16905081600760006101000a81548173ffffffffffffffffffffffffffffffffffffffff021916908373ffffffffffffffffffffffffffffffffffffffff1602179055508173ffffffffffffffffffffffffffffffffffffffff168173ffffffffffffffffffffffffffffffffffffffff167f8be0079c531659141344cd1fd0a4f28419497f9722a3daafe3b4186f6b6457e060405160405180910390a35050565b8280546200021090620002b2565b90600052602060002090601f01602090048101928262000234576000855562000280565b82601f106200024f57805160ff191683800117855562000280565b8280016001018555821562000280579182015b828111156200027f57825182559160200191906001019062000262565b5b5090506200028f919062000293565b5090565b5b80821115620002ae57600081600090555060010162000294565b5090565b60006002820490506001821680620002cb57607f821691505b60208210811415620002e257620002e1620002e8565b5b50919050565b7f4e487b7100000000000000000000000000000000000000000000000000000000600052602260045260246000fd5b614bd780620003276000396000f3fe60806040526004361061022f5760003560e01c80636f8b44b01161012e578063b88d4fde116100ab578063e985e9c51161006f578063e985e9c514610862578063eb1dd3041461089f578063f1c7f40e146108dc578063f2fde38b14610919578063f4a0a528146109425761022f565b8063b88d4fde14610793578063c7c3268b146107bc578063c87b56dd146107e5578063d481bd7f14610822578063e88a38df146108395761022f565b80638da5cb5b116100f25780638da5cb5b146106ae57806395d89b41146106d95780639d998b9d14610704578063a144819414610741578063a22cb4651461076a5761022f565b80636f8b44b0146105dd57806370a0823114610606578063715018a6146106435780637fc69f5a1461065a57806386b74e98146106855761022f565b806319f590f9116101bc5780633c57c075116101805780633c57c075146104d457806342842e0e146105115780634f6ccce71461053a5780635fd59b6f146105775780636352211e146105a05761022f565b806319f590f9146103ec5780632016e9481461041557806323b872dd1461043e5780632d571cc4146104675780632f745c59146104975761022f565b8063095ea7b311610203578063095ea7b3146103025780630ce90ec21461032b57806310d80a551461034757806313b5db9e1461038457806318160ddd146103c15761022f565b80620cbb211461023457806301ffc9a71461025d57806306fdde031461029a578063081812fc146102c5575b600080fd5b34801561024057600080fd5b5061025b60048036038101906102569190613848565b61096b565b005b34801561026957600080fd5b50610284600480360381019061027f91906137f6565b610a01565b6040516102919190613d99565b60405180910390f35b3480156102a657600080fd5b506102af610a13565b6040516102bc9190613db4565b60405180910390f35b3480156102d157600080fd5b506102ec60048036038101906102e79190613889565b610aa5565b6040516102f99190613cfb565b60405180910390f35b34801561030e57600080fd5b5061032960048036038101906103249190613791565b610b2a565b005b61034560048036038101906103409190613889565b610c42565b005b34801561035357600080fd5b5061036e60048036038101906103699190613889565b610ddc565b60405161037b91906140d6565b60405180910390f35b34801561039057600080fd5b506103ab60048036038101906103a69190613889565b610df9565b6040516103b891906140d6565b60405180910390f35b3480156103cd57600080fd5b506103d6610e11565b6040516103e391906140d6565b60405180910390f35b3480156103f857600080fd5b50610413600480360381019061040e91906135ea565b610e1e565b005b34801561042157600080fd5b5061043c60048036038101906104379190613889565b610ede565b005b34801561044a57600080fd5b506104656004803603810190610460919061368b565b610f64565b005b610481600480360381019061047c9190613889565b610fc4565b60405161048e9190613d99565b60405180910390f35b3480156104a357600080fd5b506104be60048036038101906104b99190613791565b611187565b6040516104cb91906140d6565b60405180910390f35b3480156104e057600080fd5b506104fb60048036038101906104f69190613889565b61122c565b60405161050891906140d6565b60405180910390f35b34801561051d57600080fd5b506105386004803603810190610533919061368b565b6112e8565b005b34801561054657600080fd5b50610561600480360381019061055c9190613889565b611308565b60405161056e91906140d6565b60405180910390f35b34801561058357600080fd5b5061059e600480360381019061059991906135ea565b61139f565b005b3480156105ac57600080fd5b506105c760048036038101906105c29190613889565b61145f565b6040516105d49190613cfb565b60405180910390f35b3480156105e957600080fd5b5061060460048036038101906105ff9190613889565b611511565b005b34801561061257600080fd5b5061062d600480360381019061062891906135ea565b6115dc565b60405161063a91906140d6565b60405180910390f35b34801561064f57600080fd5b50610658611694565b005b34801561066657600080fd5b5061066f61171c565b60405161067c91906140d6565b60405180910390f35b34801561069157600080fd5b506106ac60048036038101906106a79190613889565b611726565b005b3480156106ba57600080fd5b506106c36117ac565b6040516106d09190613cfb565b60405180910390f35b3480156106e557600080fd5b506106ee6117d6565b6040516106fb9190613db4565b60405180910390f35b34801561071057600080fd5b5061072b60048036038101906107269190613889565b611868565b60405161073891906140d6565b60405180910390f35b34801561074d57600080fd5b5061076860048036038101906107639190613791565b611880565b005b34801561077657600080fd5b50610791600480360381019061078c9190613755565b61190a565b005b34801561079f57600080fd5b506107ba60048036038101906107b591906136da565b611920565b005b3480156107c857600080fd5b506107e360048036038101906107de9190613848565b611982565b005b3480156107f157600080fd5b5061080c60048036038101906108079190613889565b611a18565b6040516108199190613db4565b60405180910390f35b34801561082e57600080fd5b50610837611b3e565b005b34801561084557600080fd5b50610860600480360381019061085b9190613889565b611c65565b005b34801561086e57600080fd5b506108896004803603810190610884919061364f565b611ceb565b6040516108969190613d99565b60405180910390f35b3480156108ab57600080fd5b506108c660048036038101906108c19190613613565b611d7f565b6040516108d39190613d99565b60405180910390f35b3480156108e857600080fd5b5061090360048036038101906108fe9190613889565b611e4e565b60405161091091906140d6565b60405180910390f35b34801561092557600080fd5b50610940600480360381019061093b91906135ea565b611e6b565b005b34801561094e57600080fd5b5061096960048036038101906109649190613889565b611f63565b005b610973612033565b73ffffffffffffffffffffffffffffffffffffffff166109916117ac565b73ffffffffffffffffffffffffffffffffffffffff16146109e7576040517f08c379a00000000000000000000000000000000000000000000000000000000081526004016109de90614016565b60405180910390fd5b80601390805190602001906109fd9291906133e4565b5050565b6000610a0c8261203b565b9050919050565b606060008054610a2290614398565b80601f0160208091040260200160405190810160405280929190818152602001828054610a4e90614398565b8015610a9b5780601f10610a7057610100808354040283529160200191610a9b565b820191906000526020600020905b815481529060010190602001808311610a7e57829003601f168201915b5050505050905090565b6000610ab0826120b5565b610aef576040517f08c379a0000000000000000000000000000000000000000000000000000000008152600401610ae690613ff6565b60405180910390fd5b6004600083815260200190815260200160002060009054906101000a900473ffffffffffffffffffffffffffffffffffffffff169050919050565b6000610b358261145f565b90508073ffffffffffffffffffffffffffffffffffffffff168373ffffffffffffffffffffffffffffffffffffffff161415610ba6576040517f08c379a0000000000000000000000000000000000000000000000000000000008152600401610b9d90614056565b60405180910390fd5b8073ffffffffffffffffffffffffffffffffffffffff16610bc5612033565b73ffffffffffffffffffffffffffffffffffffffff161480610bf45750610bf381610bee612033565b611ceb565b5b610c33576040517f08c379a0000000000000000000000000000000000000000000000000000000008152600401610c2a90613f56565b60405180910390fd5b610c3d8383612121565b505050565b601460009054906101000a900473ffffffffffffffffffffffffffffffffffffffff1673ffffffffffffffffffffffffffffffffffffffff1663a9b17f0d826040518263ffffffff1660e01b8152600401610c9d91906140d6565b600060405180830381600087803b158015610cb757600080fd5b505af1158015610ccb573d6000803e3d6000fd5b505050506000670de0b6b3a7640000610ce38361122c565b610ced9190614242565b9050601560009054906101000a900473ffffffffffffffffffffffffffffffffffffffff1673ffffffffffffffffffffffffffffffffffffffff166323b872dd3330846040518463ffffffff1660e01b8152600401610d4e93929190613d16565b602060405180830381600087803b158015610d6857600080fd5b505af1158015610d7c573d6000803e3d6000fd5b505050506040513d601f19601f82011682018060405250810190610da091906137cd565b5060016018600084815260200190815260200160002054610dc191906141bb565b60186000848152602001908152602001600020819055505050565b600060186000838152602001908152602001600020549050919050565b60186020528060005260406000206000915090505481565b6000600a80549050905090565b610e26612033565b73ffffffffffffffffffffffffffffffffffffffff16610e446117ac565b73ffffffffffffffffffffffffffffffffffffffff1614610e9a576040517f08c379a0000000000000000000000000000000000000000000000000000000008152600401610e9190614016565b60405180910390fd5b80601560006101000a81548173ffffffffffffffffffffffffffffffffffffffff021916908373ffffffffffffffffffffffffffffffffffffffff16021790555050565b610ee6612033565b73ffffffffffffffffffffffffffffffffffffffff16610f046117ac565b73ffffffffffffffffffffffffffffffffffffffff1614610f5a576040517f08c379a0000000000000000000000000000000000000000000000000000000008152600401610f5190614016565b60405180910390fd5b8060118190555050565b610f75610f6f612033565b826121da565b610fb4576040517f08c379a0000000000000000000000000000000000000000000000000000000008152600401610fab90614076565b60405180910390fd5b610fbf8383836122b8565b505050565b6000808211611008576040517f08c379a0000000000000000000000000000000000000000000000000000000008152600401610fff90613e76565b60405180910390fd5b600f5482111561104d576040517f08c379a000000000000000000000000000000000000000000000000000000000815260040161104490613eb6565b60405180910390fd5b600e548261105b9190614242565b34101561109d576040517f08c379a000000000000000000000000000000000000000000000000000000000815260040161109490613f16565b60405180910390fd5b60011515600d60009054906101000a900460ff161515146110bd57600080fd5b60005b8281101561117d576110d2600c612514565b6010546110df600c61252a565b1115611120576040517f08c379a000000000000000000000000000000000000000000000000000000000815260040161111790613dd6565b60405180910390fd5b600061112c600c61252a565b90506111383382612538565b60016018600083815260200190815260200160002081905550426019600083815260200190815260200160002081905550508080611175906143fb565b9150506110c0565b5060019050919050565b6000611192836115dc565b82106111d3576040517f08c379a00000000000000000000000000000000000000000000000000000000081526004016111ca90613df6565b60405180910390fd5b600860008473ffffffffffffffffffffffffffffffffffffffff1673ffffffffffffffffffffffffffffffffffffffff168152602001908152602001600020600083815260200190815260200160002054905092915050565b6000806018600084815260200190815260200160002054603261124f91906141bb565b6001601860008681526020019081526020016000205461126f919061429c565b6112799190614242565b9050600060646017546064846016546112929190614242565b61129c9190614211565b6112a69190614242565b6112b09190614211565b90506000816016546112c291906141bb565b90506064601754826112d49190614242565b6112de9190614211565b9350505050919050565b61130383838360405180602001604052806000815250611920565b505050565b6000611312610e11565b8210611353576040517f08c379a000000000000000000000000000000000000000000000000000000000815260040161134a90614096565b60405180910390fd5b600a828154811061138d577f4e487b7100000000000000000000000000000000000000000000000000000000600052603260045260246000fd5b90600052602060002001549050919050565b6113a7612033565b73ffffffffffffffffffffffffffffffffffffffff166113c56117ac565b73ffffffffffffffffffffffffffffffffffffffff161461141b576040517f08c379a000000000000000000000000000000000000000000000000000000000815260040161141290614016565b60405180910390fd5b80601460006101000a81548173ffffffffffffffffffffffffffffffffffffffff021916908373ffffffffffffffffffffffffffffffffffffffff16021790555050565b6000806002600084815260200190815260200160002060009054906101000a900473ffffffffffffffffffffffffffffffffffffffff169050600073ffffffffffffffffffffffffffffffffffffffff168173ffffffffffffffffffffffffffffffffffffffff161415611508576040517f08c379a00000000000000000000000000000000000000000000000000000000081526004016114ff90613f96565b60405180910390fd5b80915050919050565b611519612033565b73ffffffffffffffffffffffffffffffffffffffff166115376117ac565b73ffffffffffffffffffffffffffffffffffffffff161461158d576040517f08c379a000000000000000000000000000000000000000000000000000000000815260040161158490614016565b60405180910390fd5b6127108111156115d2576040517f08c379a00000000000000000000000000000000000000000000000000000000081526004016115c990613fd6565b60405180910390fd5b8060108190555050565b60008073ffffffffffffffffffffffffffffffffffffffff168273ffffffffffffffffffffffffffffffffffffffff16141561164d576040517f08c379a000000000000000000000000000000000000000000000000000000000815260040161164490613f76565b60405180910390fd5b600360008373ffffffffffffffffffffffffffffffffffffffff1673ffffffffffffffffffffffffffffffffffffffff168152602001908152602001600020549050919050565b61169c612033565b73ffffffffffffffffffffffffffffffffffffffff166116ba6117ac565b73ffffffffffffffffffffffffffffffffffffffff1614611710576040517f08c379a000000000000000000000000000000000000000000000000000000000815260040161170790614016565b60405180910390fd5b61171a6000612706565b565b6000601154905090565b61172e612033565b73ffffffffffffffffffffffffffffffffffffffff1661174c6117ac565b73ffffffffffffffffffffffffffffffffffffffff16146117a2576040517f08c379a000000000000000000000000000000000000000000000000000000000815260040161179990614016565b60405180910390fd5b8060168190555050565b6000600760009054906101000a900473ffffffffffffffffffffffffffffffffffffffff16905090565b6060600180546117e590614398565b80601f016020809104026020016040519081016040528092919081815260200182805461181190614398565b801561185e5780601f106118335761010080835404028352916020019161185e565b820191906000526020600020905b81548152906001019060200180831161184157829003601f168201915b5050505050905090565b60196020528060005260406000206000915090505481565b611888612033565b73ffffffffffffffffffffffffffffffffffffffff166118a66117ac565b73ffffffffffffffffffffffffffffffffffffffff16146118fc576040517f08c379a00000000000000000000000000000000000000000000000000000000081526004016118f390614016565b60405180910390fd5b61190682826127cc565b5050565b61191c611915612033565b83836127ea565b5050565b61193161192b612033565b836121da565b611970576040517f08c379a000000000000000000000000000000000000000000000000000000000815260040161196790614076565b60405180910390fd5b61197c84848484612957565b50505050565b61198a612033565b73ffffffffffffffffffffffffffffffffffffffff166119a86117ac565b73ffffffffffffffffffffffffffffffffffffffff16146119fe576040517f08c379a00000000000000000000000000000000000000000000000000000000081526004016119f590614016565b60405180910390fd5b8060129080519060200190611a149291906133e4565b5050565b6060601154821115611ab65760138054611a3190614398565b80601f0160208091040260200160405190810160405280929190818152602001828054611a5d90614398565b8015611aaa5780601f10611a7f57610100808354040283529160200191611aaa565b820191906000526020600020905b815481529060010190602001808311611a8d57829003601f168201915b50505050509050611b39565b6000611ac06129b3565b90506000611acd84612a45565b905060006040518060400160405280600581526020017f2e6a736f6e00000000000000000000000000000000000000000000000000000081525090506000838383604051602001611b2093929190613cca565b6040516020818303038152906040529050809450505050505b919050565b611b46612033565b73ffffffffffffffffffffffffffffffffffffffff16611b646117ac565b73ffffffffffffffffffffffffffffffffffffffff1614611bba576040517f08c379a0000000000000000000000000000000000000000000000000000000008152600401611bb190614016565b60405180910390fd5b600060138054611bc990614398565b905011611c0b576040517f08c379a0000000000000000000000000000000000000000000000000000000008152600401611c0290613e96565b60405180910390fd5b60011515600d60009054906101000a900460ff1615151415611c47576000600d60006101000a81548160ff021916908315150217905550611c63565b6001600d60006101000a81548160ff0219169083151502179055505b565b611c6d612033565b73ffffffffffffffffffffffffffffffffffffffff16611c8b6117ac565b73ffffffffffffffffffffffffffffffffffffffff1614611ce1576040517f08c379a0000000000000000000000000000000000000000000000000000000008152600401611cd890614016565b60405180910390fd5b8060178190555050565b6000600560008473ffffffffffffffffffffffffffffffffffffffff1673ffffffffffffffffffffffffffffffffffffffff16815260200190815260200160002060008373ffffffffffffffffffffffffffffffffffffffff1673ffffffffffffffffffffffffffffffffffffffff16815260200190815260200160002060009054906101000a900460ff16905092915050565b6000611d89612033565b73ffffffffffffffffffffffffffffffffffffffff16611da76117ac565b73ffffffffffffffffffffffffffffffffffffffff1614611dfd576040517f08c379a0000000000000000000000000000000000000000000000000000000008152600401611df490614016565b60405180910390fd5b8273ffffffffffffffffffffffffffffffffffffffff166108fc839081150290604051600060405180830381858888f19350505050158015611e43573d6000803e3d6000fd5b506001905092915050565b600060196000838152602001908152602001600020549050919050565b611e73612033565b73ffffffffffffffffffffffffffffffffffffffff16611e916117ac565b73ffffffffffffffffffffffffffffffffffffffff1614611ee7576040517f08c379a0000000000000000000000000000000000000000000000000000000008152600401611ede90614016565b60405180910390fd5b600073ffffffffffffffffffffffffffffffffffffffff168173ffffffffffffffffffffffffffffffffffffffff161415611f57576040517f08c379a0000000000000000000000000000000000000000000000000000000008152600401611f4e90613e36565b60405180910390fd5b611f6081612706565b50565b611f6b612033565b73ffffffffffffffffffffffffffffffffffffffff16611f896117ac565b73ffffffffffffffffffffffffffffffffffffffff1614611fdf576040517f08c379a0000000000000000000000000000000000000000000000000000000008152600401611fd690614016565b60405180910390fd5b67016345785d8a00008111612029576040517f08c379a0000000000000000000000000000000000000000000000000000000008152600401612020906140b6565b60405180910390fd5b80600e8190555050565b600033905090565b60007f780e9d63000000000000000000000000000000000000000000000000000000007bffffffffffffffffffffffffffffffffffffffffffffffffffffffff1916827bffffffffffffffffffffffffffffffffffffffffffffffffffffffff191614806120ae57506120ad82612bf2565b5b9050919050565b60008073ffffffffffffffffffffffffffffffffffffffff166002600084815260200190815260200160002060009054906101000a900473ffffffffffffffffffffffffffffffffffffffff1673ffffffffffffffffffffffffffffffffffffffff1614159050919050565b816004600083815260200190815260200160002060006101000a81548173ffffffffffffffffffffffffffffffffffffffff021916908373ffffffffffffffffffffffffffffffffffffffff160217905550808273ffffffffffffffffffffffffffffffffffffffff166121948361145f565b73ffffffffffffffffffffffffffffffffffffffff167f8c5be1e5ebec7d5bd14f71427d1e84f3dd0314c0f7b2291e5b200ac8c7c3b92560405160405180910390a45050565b60006121e5826120b5565b612224576040517f08c379a000000000000000000000000000000000000000000000000000000000815260040161221b90613f36565b60405180910390fd5b600061222f8361145f565b90508073ffffffffffffffffffffffffffffffffffffffff168473ffffffffffffffffffffffffffffffffffffffff16148061229e57508373ffffffffffffffffffffffffffffffffffffffff1661228684610aa5565b73ffffffffffffffffffffffffffffffffffffffff16145b806122af57506122ae8185611ceb565b5b91505092915050565b8273ffffffffffffffffffffffffffffffffffffffff166122d88261145f565b73ffffffffffffffffffffffffffffffffffffffff161461232e576040517f08c379a000000000000000000000000000000000000000000000000000000000815260040161232590614036565b60405180910390fd5b600073ffffffffffffffffffffffffffffffffffffffff168273ffffffffffffffffffffffffffffffffffffffff16141561239e576040517f08c379a000000000000000000000000000000000000000000000000000000000815260040161239590613ed6565b60405180910390fd5b6123a9838383612cd4565b6123b4600082612121565b6001600360008573ffffffffffffffffffffffffffffffffffffffff1673ffffffffffffffffffffffffffffffffffffffff1681526020019081526020016000206000828254612404919061429c565b925050819055506001600360008473ffffffffffffffffffffffffffffffffffffffff1673ffffffffffffffffffffffffffffffffffffffff168152602001908152602001600020600082825461245b91906141bb565b92505081905550816002600083815260200190815260200160002060006101000a81548173ffffffffffffffffffffffffffffffffffffffff021916908373ffffffffffffffffffffffffffffffffffffffff160217905550808273ffffffffffffffffffffffffffffffffffffffff168473ffffffffffffffffffffffffffffffffffffffff167fddf252ad1be2c89b69c2b068fc378daa952ba7f163c4a11628f55a4df523b3ef60405160405180910390a4505050565b6001816000016000828254019250508190555050565b600081600001549050919050565b600073ffffffffffffffffffffffffffffffffffffffff168273ffffffffffffffffffffffffffffffffffffffff1614156125a8576040517f08c379a000000000000000000000000000000000000000000000000000000000815260040161259f90613fb6565b60405180910390fd5b6125b1816120b5565b156125f1576040517f08c379a00000000000000000000000000000000000000000000000000000000081526004016125e890613e56565b60405180910390fd5b6125fd60008383612cd4565b6001600360008473ffffffffffffffffffffffffffffffffffffffff1673ffffffffffffffffffffffffffffffffffffffff168152602001908152602001600020600082825461264d91906141bb565b92505081905550816002600083815260200190815260200160002060006101000a81548173ffffffffffffffffffffffffffffffffffffffff021916908373ffffffffffffffffffffffffffffffffffffffff160217905550808273ffffffffffffffffffffffffffffffffffffffff16600073ffffffffffffffffffffffffffffffffffffffff167fddf252ad1be2c89b69c2b068fc378daa952ba7f163c4a11628f55a4df523b3ef60405160405180910390a45050565b6000600760009054906101000a900473ffffffffffffffffffffffffffffffffffffffff16905081600760006101000a81548173ffffffffffffffffffffffffffffffffffffffff021916908373ffffffffffffffffffffffffffffffffffffffff1602179055508173ffffffffffffffffffffffffffffffffffffffff168173ffffffffffffffffffffffffffffffffffffffff167f8be0079c531659141344cd1fd0a4f28419497f9722a3daafe3b4186f6b6457e060405160405180910390a35050565b6127e6828260405180602001604052806000815250612ce4565b5050565b8173ffffffffffffffffffffffffffffffffffffffff168373ffffffffffffffffffffffffffffffffffffffff161415612859576040517f08c379a000000000000000000000000000000000000000000000000000000000815260040161285090613ef6565b60405180910390fd5b80600560008573ffffffffffffffffffffffffffffffffffffffff1673ffffffffffffffffffffffffffffffffffffffff16815260200190815260200160002060008473ffffffffffffffffffffffffffffffffffffffff1673ffffffffffffffffffffffffffffffffffffffff16815260200190815260200160002060006101000a81548160ff0219169083151502179055508173ffffffffffffffffffffffffffffffffffffffff168373ffffffffffffffffffffffffffffffffffffffff167f17307eab39ab6107e8899845ad3d59bd9653f200f220920489ca2b5937696c318360405161294a9190613d99565b60405180910390a3505050565b6129628484846122b8565b61296e84848484612d3f565b6129ad576040517f08c379a00000000000000000000000000000000000000000000000000000000081526004016129a490613e16565b60405180910390fd5b50505050565b6060601280546129c290614398565b80601f01602080910402602001604051908101604052809291908181526020018280546129ee90614398565b8015612a3b5780601f10612a1057610100808354040283529160200191612a3b565b820191906000526020600020905b815481529060010190602001808311612a1e57829003601f168201915b5050505050905090565b60606000821415612a8d576040518060400160405280600181526020017f30000000000000000000000000000000000000000000000000000000000000008152509050612bed565b600082905060005b60008214612abf578080612aa8906143fb565b915050600a82612ab89190614211565b9150612a95565b60008167ffffffffffffffff811115612b01577f4e487b7100000000000000000000000000000000000000000000000000000000600052604160045260246000fd5b6040519080825280601f01601f191660200182016040528015612b335781602001600182028036833780820191505090505b5090505b60008514612be657600182612b4c919061429c565b9150600a85612b5b9190614444565b6030612b6791906141bb565b60f81b818381518110612ba3577f4e487b7100000000000000000000000000000000000000000000000000000000600052603260045260246000fd5b60200101907effffffffffffffffffffffffffffffffffffffffffffffffffffffffffffff1916908160001a905350600a85612bdf9190614211565b9450612b37565b8093505050505b919050565b60007f80ac58cd000000000000000000000000000000000000000000000000000000007bffffffffffffffffffffffffffffffffffffffffffffffffffffffff1916827bffffffffffffffffffffffffffffffffffffffffffffffffffffffff19161480612cbd57507f5b5e139f000000000000000000000000000000000000000000000000000000007bffffffffffffffffffffffffffffffffffffffffffffffffffffffff1916827bffffffffffffffffffffffffffffffffffffffffffffffffffffffff1916145b80612ccd5750612ccc82612ed6565b5b9050919050565b612cdf838383612f40565b505050565b612cee8383612538565b612cfb6000848484612d3f565b612d3a576040517f08c379a0000000000000000000000000000000000000000000000000000000008152600401612d3190613e16565b60405180910390fd5b505050565b6000612d608473ffffffffffffffffffffffffffffffffffffffff16613054565b15612ec9578373ffffffffffffffffffffffffffffffffffffffff1663150b7a02612d89612033565b8786866040518563ffffffff1660e01b8152600401612dab9493929190613d4d565b602060405180830381600087803b158015612dc557600080fd5b505af1925050508015612df657506040513d601f19601f82011682018060405250810190612df3919061381f565b60015b612e79573d8060008114612e26576040519150601f19603f3d011682016040523d82523d6000602084013e612e2b565b606091505b50600081511415612e71576040517f08c379a0000000000000000000000000000000000000000000000000000000008152600401612e6890613e16565b60405180910390fd5b805181602001fd5b63150b7a0260e01b7bffffffffffffffffffffffffffffffffffffffffffffffffffffffff1916817bffffffffffffffffffffffffffffffffffffffffffffffffffffffff191614915050612ece565b600190505b949350505050565b60007f01ffc9a7000000000000000000000000000000000000000000000000000000007bffffffffffffffffffffffffffffffffffffffffffffffffffffffff1916827bffffffffffffffffffffffffffffffffffffffffffffffffffffffff1916149050919050565b612f4b838383613067565b600073ffffffffffffffffffffffffffffffffffffffff168373ffffffffffffffffffffffffffffffffffffffff161415612f8e57612f898161306c565b612fcd565b8173ffffffffffffffffffffffffffffffffffffffff168373ffffffffffffffffffffffffffffffffffffffff1614612fcc57612fcb83826130b5565b5b5b600073ffffffffffffffffffffffffffffffffffffffff168273ffffffffffffffffffffffffffffffffffffffff1614156130105761300b81613222565b61304f565b8273ffffffffffffffffffffffffffffffffffffffff168273ffffffffffffffffffffffffffffffffffffffff161461304e5761304d8282613365565b5b5b505050565b600080823b905060008111915050919050565b505050565b600a80549050600b600083815260200190815260200160002081905550600a81908060018154018082558091505060019003906000526020600020016000909190919091505550565b600060016130c2846115dc565b6130cc919061429c565b90506000600960008481526020019081526020016000205490508181146131b1576000600860008673ffffffffffffffffffffffffffffffffffffffff1673ffffffffffffffffffffffffffffffffffffffff168152602001908152602001600020600084815260200190815260200160002054905080600860008773ffffffffffffffffffffffffffffffffffffffff1673ffffffffffffffffffffffffffffffffffffffff168152602001908152602001600020600084815260200190815260200160002081905550816009600083815260200190815260200160002081905550505b6009600084815260200190815260200160002060009055600860008573ffffffffffffffffffffffffffffffffffffffff1673ffffffffffffffffffffffffffffffffffffffff16815260200190815260200160002060008381526020019081526020016000206000905550505050565b60006001600a80549050613236919061429c565b90506000600b60008481526020019081526020016000205490506000600a838154811061328c577f4e487b7100000000000000000000000000000000000000000000000000000000600052603260045260246000fd5b9060005260206000200154905080600a83815481106132d4577f4e487b7100000000000000000000000000000000000000000000000000000000600052603260045260246000fd5b906000526020600020018190555081600b600083815260200190815260200160002081905550600b600085815260200190815260200160002060009055600a805480613349577f4e487b7100000000000000000000000000000000000000000000000000000000600052603160045260246000fd5b6001900381819060005260206000200160009055905550505050565b6000613370836115dc565b905081600860008573ffffffffffffffffffffffffffffffffffffffff1673ffffffffffffffffffffffffffffffffffffffff168152602001908152602001600020600083815260200190815260200160002081905550806009600084815260200190815260200160002081905550505050565b8280546133f090614398565b90600052602060002090601f0160209004810192826134125760008555613459565b82601f1061342b57805160ff1916838001178555613459565b82800160010185558215613459579182015b8281111561345857825182559160200191906001019061343d565b5b509050613466919061346a565b5090565b5b8082111561348357600081600090555060010161346b565b5090565b600061349a61349584614116565b6140f1565b9050828152602081018484840111156134b257600080fd5b6134bd848285614356565b509392505050565b60006134d86134d384614147565b6140f1565b9050828152602081018484840111156134f057600080fd5b6134fb848285614356565b509392505050565b60008135905061351281614b2e565b92915050565b60008135905061352781614b45565b92915050565b60008135905061353c81614b5c565b92915050565b60008151905061355181614b5c565b92915050565b60008135905061356681614b73565b92915050565b60008151905061357b81614b73565b92915050565b600082601f83011261359257600080fd5b81356135a2848260208601613487565b91505092915050565b600082601f8301126135bc57600080fd5b81356135cc8482602086016134c5565b91505092915050565b6000813590506135e481614b8a565b92915050565b6000602082840312156135fc57600080fd5b600061360a84828501613503565b91505092915050565b6000806040838503121561362657600080fd5b600061363485828601613518565b9250506020613645858286016135d5565b9150509250929050565b6000806040838503121561366257600080fd5b600061367085828601613503565b925050602061368185828601613503565b9150509250929050565b6000806000606084860312156136a057600080fd5b60006136ae86828701613503565b93505060206136bf86828701613503565b92505060406136d0868287016135d5565b9150509250925092565b600080600080608085870312156136f057600080fd5b60006136fe87828801613503565b945050602061370f87828801613503565b9350506040613720878288016135d5565b925050606085013567ffffffffffffffff81111561373d57600080fd5b61374987828801613581565b91505092959194509250565b6000806040838503121561376857600080fd5b600061377685828601613503565b92505060206137878582860161352d565b9150509250929050565b600080604083850312156137a457600080fd5b60006137b285828601613503565b92505060206137c3858286016135d5565b9150509250929050565b6000602082840312156137df57600080fd5b60006137ed84828501613542565b91505092915050565b60006020828403121561380857600080fd5b600061381684828501613557565b91505092915050565b60006020828403121561383157600080fd5b600061383f8482850161356c565b91505092915050565b60006020828403121561385a57600080fd5b600082013567ffffffffffffffff81111561387457600080fd5b613880848285016135ab565b91505092915050565b60006020828403121561389b57600080fd5b60006138a9848285016135d5565b91505092915050565b6138bb816142d0565b82525050565b6138ca816142f4565b82525050565b60006138db82614178565b6138e5818561418e565b93506138f5818560208601614365565b6138fe81614531565b840191505092915050565b600061391482614183565b61391e818561419f565b935061392e818560208601614365565b61393781614531565b840191505092915050565b600061394d82614183565b61395781856141b0565b9350613967818560208601614365565b80840191505092915050565b600061398060138361419f565b915061398b82614542565b602082019050919050565b60006139a3602b8361419f565b91506139ae8261456b565b604082019050919050565b60006139c660328361419f565b91506139d1826145ba565b604082019050919050565b60006139e960268361419f565b91506139f482614609565b604082019050919050565b6000613a0c601c8361419f565b9150613a1782614658565b602082019050919050565b6000613a2f600c8361419f565b9150613a3a82614681565b602082019050919050565b6000613a52601f8361419f565b9150613a5d826146aa565b602082019050919050565b6000613a7560118361419f565b9150613a80826146d3565b602082019050919050565b6000613a9860248361419f565b9150613aa3826146fc565b604082019050919050565b6000613abb60198361419f565b9150613ac68261474b565b602082019050919050565b6000613ade60228361419f565b9150613ae982614774565b604082019050919050565b6000613b01602c8361419f565b9150613b0c826147c3565b604082019050919050565b6000613b2460388361419f565b9150613b2f82614812565b604082019050919050565b6000613b47602a8361419f565b9150613b5282614861565b604082019050919050565b6000613b6a60298361419f565b9150613b75826148b0565b604082019050919050565b6000613b8d60208361419f565b9150613b98826148ff565b602082019050919050565b6000613bb060118361419f565b9150613bbb82614928565b602082019050919050565b6000613bd3602c8361419f565b9150613bde82614951565b604082019050919050565b6000613bf660208361419f565b9150613c01826149a0565b602082019050919050565b6000613c1960298361419f565b9150613c24826149c9565b604082019050919050565b6000613c3c60218361419f565b9150613c4782614a18565b604082019050919050565b6000613c5f60318361419f565b9150613c6a82614a67565b604082019050919050565b6000613c82602c8361419f565b9150613c8d82614ab6565b604082019050919050565b6000613ca5601d8361419f565b9150613cb082614b05565b602082019050919050565b613cc48161434c565b82525050565b6000613cd68286613942565b9150613ce28285613942565b9150613cee8284613942565b9150819050949350505050565b6000602082019050613d1060008301846138b2565b92915050565b6000606082019050613d2b60008301866138b2565b613d3860208301856138b2565b613d456040830184613cbb565b949350505050565b6000608082019050613d6260008301876138b2565b613d6f60208301866138b2565b613d7c6040830185613cbb565b8181036060830152613d8e81846138d0565b905095945050505050565b6000602082019050613dae60008301846138c1565b92915050565b60006020820190508181036000830152613dce8184613909565b905092915050565b60006020820190508181036000830152613def81613973565b9050919050565b60006020820190508181036000830152613e0f81613996565b9050919050565b60006020820190508181036000830152613e2f816139b9565b9050919050565b60006020820190508181036000830152613e4f816139dc565b9050919050565b60006020820190508181036000830152613e6f816139ff565b9050919050565b60006020820190508181036000830152613e8f81613a22565b9050919050565b60006020820190508181036000830152613eaf81613a45565b9050919050565b60006020820190508181036000830152613ecf81613a68565b9050919050565b60006020820190508181036000830152613eef81613a8b565b9050919050565b60006020820190508181036000830152613f0f81613aae565b9050919050565b60006020820190508181036000830152613f2f81613ad1565b9050919050565b60006020820190508181036000830152613f4f81613af4565b9050919050565b60006020820190508181036000830152613f6f81613b17565b9050919050565b60006020820190508181036000830152613f8f81613b3a565b9050919050565b60006020820190508181036000830152613faf81613b5d565b9050919050565b60006020820190508181036000830152613fcf81613b80565b9050919050565b60006020820190508181036000830152613fef81613ba3565b9050919050565b6000602082019050818103600083015261400f81613bc6565b9050919050565b6000602082019050818103600083015261402f81613be9565b9050919050565b6000602082019050818103600083015261404f81613c0c565b9050919050565b6000602082019050818103600083015261406f81613c2f565b9050919050565b6000602082019050818103600083015261408f81613c52565b9050919050565b600060208201905081810360008301526140af81613c75565b9050919050565b600060208201905081810360008301526140cf81613c98565b9050919050565b60006020820190506140eb6000830184613cbb565b92915050565b60006140fb61410c565b905061410782826143ca565b919050565b6000604051905090565b600067ffffffffffffffff82111561413157614130614502565b5b61413a82614531565b9050602081019050919050565b600067ffffffffffffffff82111561416257614161614502565b5b61416b82614531565b9050602081019050919050565b600081519050919050565b600081519050919050565b600082825260208201905092915050565b600082825260208201905092915050565b600081905092915050565b60006141c68261434c565b91506141d18361434c565b9250827fffffffffffffffffffffffffffffffffffffffffffffffffffffffffffffffff0382111561420657614205614475565b5b828201905092915050565b600061421c8261434c565b91506142278361434c565b925082614237576142366144a4565b5b828204905092915050565b600061424d8261434c565b91506142588361434c565b9250817fffffffffffffffffffffffffffffffffffffffffffffffffffffffffffffffff048311821515161561429157614290614475565b5b828202905092915050565b60006142a78261434c565b91506142b28361434c565b9250828210156142c5576142c4614475565b5b828203905092915050565b60006142db8261432c565b9050919050565b60006142ed8261432c565b9050919050565b60008115159050919050565b60007fffffffff0000000000000000000000000000000000000000000000000000000082169050919050565b600073ffffffffffffffffffffffffffffffffffffffff82169050919050565b6000819050919050565b82818337600083830152505050565b60005b83811015614383578082015181840152602081019050614368565b83811115614392576000848401525b50505050565b600060028204905060018216806143b057607f821691505b602082108114156143c4576143c36144d3565b5b50919050565b6143d382614531565b810181811067ffffffffffffffff821117156143f2576143f1614502565b5b80604052505050565b60006144068261434c565b91507fffffffffffffffffffffffffffffffffffffffffffffffffffffffffffffffff82141561443957614438614475565b5b600182019050919050565b600061444f8261434c565b915061445a8361434c565b92508261446a576144696144a4565b5b828206905092915050565b7f4e487b7100000000000000000000000000000000000000000000000000000000600052601160045260246000fd5b7f4e487b7100000000000000000000000000000000000000000000000000000000600052601260045260246000fd5b7f4e487b7100000000000000000000000000000000000000000000000000000000600052602260045260246000fd5b7f4e487b7100000000000000000000000000000000000000000000000000000000600052604160045260246000fd5b6000601f19601f8301169050919050565b7f4d617820537570706c7920457863656564656400000000000000000000000000600082015250565b7f455243373231456e756d657261626c653a206f776e657220696e646578206f7560008201527f74206f6620626f756e6473000000000000000000000000000000000000000000602082015250565b7f4552433732313a207472616e7366657220746f206e6f6e20455243373231526560008201527f63656976657220696d706c656d656e7465720000000000000000000000000000602082015250565b7f4f776e61626c653a206e6577206f776e657220697320746865207a65726f206160008201527f6464726573730000000000000000000000000000000000000000000000000000602082015250565b7f4552433732313a20746f6b656e20616c7265616479206d696e74656400000000600082015250565b7f63616e2774206d696e7420300000000000000000000000000000000000000000600082015250565b7f7072652072657665616c2055524920686173206e6f74206265656e2073657400600082015250565b7f4d6178206d696e74206578636565646564000000000000000000000000000000600082015250565b7f4552433732313a207472616e7366657220746f20746865207a65726f2061646460008201527f7265737300000000000000000000000000000000000000000000000000000000602082015250565b7f4552433732313a20617070726f766520746f2063616c6c657200000000000000600082015250565b7f4e6f7420656e6f75676820415641582073656e743b20636865636b207072696360008201527f6521000000000000000000000000000000000000000000000000000000000000602082015250565b7f4552433732313a206f70657261746f7220717565727920666f72206e6f6e657860008201527f697374656e7420746f6b656e0000000000000000000000000000000000000000602082015250565b7f4552433732313a20617070726f76652063616c6c6572206973206e6f74206f7760008201527f6e6572206e6f7220617070726f76656420666f7220616c6c0000000000000000602082015250565b7f4552433732313a2062616c616e636520717565727920666f7220746865207a6560008201527f726f206164647265737300000000000000000000000000000000000000000000602082015250565b7f4552433732313a206f776e657220717565727920666f72206e6f6e657869737460008201527f656e7420746f6b656e0000000000000000000000000000000000000000000000602082015250565b7f4552433732313a206d696e7420746f20746865207a65726f2061646472657373600082015250565b7f43616e6e6f74206578636565642031306b000000000000000000000000000000600082015250565b7f4552433732313a20617070726f76656420717565727920666f72206e6f6e657860008201527f697374656e7420746f6b656e0000000000000000000000000000000000000000602082015250565b7f4f776e61626c653a2063616c6c6572206973206e6f7420746865206f776e6572600082015250565b7f4552433732313a207472616e73666572206f6620746f6b656e2074686174206960008201527f73206e6f74206f776e0000000000000000000000000000000000000000000000602082015250565b7f4552433732313a20617070726f76616c20746f2063757272656e74206f776e6560008201527f7200000000000000000000000000000000000000000000000000000000000000602082015250565b7f4552433732313a207472616e736665722063616c6c6572206973206e6f74206f60008201527f776e6572206e6f7220617070726f766564000000000000000000000000000000602082015250565b7f455243373231456e756d657261626c653a20676c6f62616c20696e646578206f60008201527f7574206f6620626f756e64730000000000000000000000000000000000000000602082015250565b7f63616e6e6f74206265206c6f776572207468616e20302e312061766178000000600082015250565b614b37816142d0565b8114614b4257600080fd5b50565b614b4e816142e2565b8114614b5957600080fd5b50565b614b65816142f4565b8114614b7057600080fd5b50565b614b7c81614300565b8114614b8757600080fd5b50565b614b938161434c565b8114614b9e57600080fd5b5056fea26469706673582212206305c0767b2139ef9e0bc5cec72190d82ecaf2cd50be4744806f07f4c58c43ad64736f6c63430008030033",
  "linkReferences": {},
  "deployedLinkReferences": {}
}