{
  "_format": "hh-sol-artifact-1",
  "contractName": "FactoryNFT",
  "sourceName": "contracts/factoryNFT.sol",
  "abi": [
    {
      "inputs": [],
      "stateMutability": "nonpayable",
      "type": "constructor"
    },
    {
      "anonymous": false,
      "inputs": [
        {
          "indexed": true,
          "internalType": "address",
          "name": "owner",
          "type": "address"
        },
        {
          "indexed": true,
          "internalType": "address",
          "name": "approved",
          "type": "address"
        },
        {
          "indexed": true,
          "internalType": "uint256",
          "name": "tokenId",
          "type": "uint256"
        }
      ],
      "name": "Approval",
      "type": "event"
    },
    {
      "anonymous": false,
      "inputs": [
        {
          "indexed": true,
          "internalType": "address",
          "name": "owner",
          "type": "address"
        },
        {
          "indexed": true,
          "internalType": "address",
          "name": "operator",
          "type": "address"
        },
        {
          "indexed": false,
          "internalType": "bool",
          "name": "approved",
          "type": "bool"
        }
      ],
      "name": "ApprovalForAll",
      "type": "event"
    },
    {
      "anonymous": false,
      "inputs": [
        {
          "indexed": true,
          "internalType": "address",
          "name": "previousOwner",
          "type": "address"
        },
        {
          "indexed": true,
          "internalType": "address",
          "name": "newOwner",
          "type": "address"
        }
      ],
      "name": "OwnershipTransferred",
      "type": "event"
    },
    {
      "anonymous": false,
      "inputs": [
        {
          "indexed": true,
          "internalType": "address",
          "name": "from",
          "type": "address"
        },
        {
          "indexed": true,
          "internalType": "address",
          "name": "to",
          "type": "address"
        },
        {
          "indexed": true,
          "internalType": "uint256",
          "name": "tokenId",
          "type": "uint256"
        }
      ],
      "name": "Transfer",
      "type": "event"
    },
    {
      "inputs": [
        {
          "internalType": "address",
          "name": "to",
          "type": "address"
        },
        {
          "internalType": "uint256",
          "name": "tokenId",
          "type": "uint256"
        }
      ],
      "name": "approve",
      "outputs": [],
      "stateMutability": "nonpayable",
      "type": "function"
    },
    {
      "inputs": [
        {
          "internalType": "address",
          "name": "owner",
          "type": "address"
        }
      ],
      "name": "balanceOf",
      "outputs": [
        {
          "internalType": "uint256",
          "name": "",
          "type": "uint256"
        }
      ],
      "stateMutability": "view",
      "type": "function"
    },
    {
      "inputs": [],
      "name": "baseURL",
      "outputs": [
        {
          "internalType": "string",
          "name": "",
          "type": "string"
        }
      ],
      "stateMutability": "view",
      "type": "function"
    },
    {
      "inputs": [
        {
          "internalType": "string",
          "name": "url",
          "type": "string"
        }
      ],
      "name": "changeUrl",
      "outputs": [],
      "stateMutability": "nonpayable",
      "type": "function"
    },
    {
      "inputs": [
        {
          "internalType": "uint256",
          "name": "numberOfNfts",
          "type": "uint256"
        }
      ],
      "name": "createToken",
      "outputs": [
        {
          "internalType": "bool",
          "name": "success",
          "type": "bool"
        }
      ],
      "stateMutability": "payable",
      "type": "function"
    },
    {
      "inputs": [
        {
          "internalType": "uint256",
          "name": "id",
          "type": "uint256"
        }
      ],
      "name": "currentLevel",
      "outputs": [
        {
          "internalType": "uint256",
          "name": "",
          "type": "uint256"
        }
      ],
      "stateMutability": "view",
      "type": "function"
    },
    {
      "inputs": [
        {
          "internalType": "uint256",
          "name": "tokenId",
          "type": "uint256"
        }
      ],
      "name": "getApproved",
      "outputs": [
        {
          "internalType": "address",
          "name": "",
          "type": "address"
        }
      ],
      "stateMutability": "view",
      "type": "function"
    },
    {
      "inputs": [
        {
          "internalType": "address",
          "name": "owner",
          "type": "address"
        },
        {
          "internalType": "address",
          "name": "operator",
          "type": "address"
        }
      ],
      "name": "isApprovedForAll",
      "outputs": [
        {
          "internalType": "bool",
          "name": "",
          "type": "bool"
        }
      ],
      "stateMutability": "view",
      "type": "function"
    },
    {
      "inputs": [
        {
          "internalType": "uint256",
          "name": "id",
          "type": "uint256"
        }
      ],
      "name": "levelUp",
      "outputs": [],
      "stateMutability": "payable",
      "type": "function"
    },
    {
      "inputs": [
        {
          "internalType": "uint256",
          "name": "id",
          "type": "uint256"
        }
      ],
      "name": "levelUpCost",
      "outputs": [
        {
          "internalType": "uint256",
          "name": "",
          "type": "uint256"
        }
      ],
      "stateMutability": "view",
      "type": "function"
    },
    {
      "inputs": [],
      "name": "name",
      "outputs": [
        {
          "internalType": "string",
          "name": "",
          "type": "string"
        }
      ],
      "stateMutability": "view",
      "type": "function"
    },
    {
      "inputs": [],
      "name": "owner",
      "outputs": [
        {
          "internalType": "address",
          "name": "",
          "type": "address"
        }
      ],
      "stateMutability": "view",
      "type": "function"
    },
    {
      "inputs": [
        {
          "internalType": "uint256",
          "name": "tokenId",
          "type": "uint256"
        }
      ],
      "name": "ownerOf",
      "outputs": [
        {
          "internalType": "address",
          "name": "",
          "type": "address"
        }
      ],
      "stateMutability": "view",
      "type": "function"
    },
    {
      "inputs": [
        {
          "internalType": "uint256",
          "name": "",
          "type": "uint256"
        }
      ],
      "name": "ratLevel",
      "outputs": [
        {
          "internalType": "uint256",
          "name": "",
          "type": "uint256"
        }
      ],
      "stateMutability": "view",
      "type": "function"
    },
    {
      "inputs": [],
      "name": "renounceOwnership",
      "outputs": [],
      "stateMutability": "nonpayable",
      "type": "function"
    },
    {
      "inputs": [
        {
          "internalType": "address",
          "name": "to",
          "type": "address"
        },
        {
          "internalType": "uint256",
          "name": "tokenId",
          "type": "uint256"
        }
      ],
      "name": "safeMint",
      "outputs": [],
      "stateMutability": "nonpayable",
      "type": "function"
    },
    {
      "inputs": [
        {
          "internalType": "address",
          "name": "from",
          "type": "address"
        },
        {
          "internalType": "address",
          "name": "to",
          "type": "address"
        },
        {
          "internalType": "uint256",
          "name": "tokenId",
          "type": "uint256"
        }
      ],
      "name": "safeTransferFrom",
      "outputs": [],
      "stateMutability": "nonpayable",
      "type": "function"
    },
    {
      "inputs": [
        {
          "internalType": "address",
          "name": "from",
          "type": "address"
        },
        {
          "internalType": "address",
          "name": "to",
          "type": "address"
        },
        {
          "internalType": "uint256",
          "name": "tokenId",
          "type": "uint256"
        },
        {
          "internalType": "bytes",
          "name": "_data",
          "type": "bytes"
        }
      ],
      "name": "safeTransferFrom",
      "outputs": [],
      "stateMutability": "nonpayable",
      "type": "function"
    },
    {
      "inputs": [
        {
          "internalType": "address",
          "name": "operator",
          "type": "address"
        },
        {
          "internalType": "bool",
          "name": "approved",
          "type": "bool"
        }
      ],
      "name": "setApprovalForAll",
      "outputs": [],
      "stateMutability": "nonpayable",
      "type": "function"
    },
    {
      "inputs": [
        {
          "internalType": "uint256",
          "name": "_cost",
          "type": "uint256"
        }
      ],
      "name": "setBaseLevelCost",
      "outputs": [],
      "stateMutability": "nonpayable",
      "type": "function"
    },
    {
      "inputs": [
        {
          "internalType": "uint256",
          "name": "_mod",
          "type": "uint256"
        }
      ],
      "name": "setMod",
      "outputs": [],
      "stateMutability": "nonpayable",
      "type": "function"
    },
    {
      "inputs": [
        {
          "internalType": "address",
          "name": "_nibblesAddr",
          "type": "address"
        }
      ],
      "name": "setNibblesAddr",
      "outputs": [],
      "stateMutability": "nonpayable",
      "type": "function"
    },
    {
      "inputs": [
        {
          "internalType": "address",
          "name": "_trinketAddr",
          "type": "address"
        }
      ],
      "name": "setTrinketAddr",
      "outputs": [],
      "stateMutability": "nonpayable",
      "type": "function"
    },
    {
      "inputs": [
        {
          "internalType": "bytes4",
          "name": "interfaceId",
          "type": "bytes4"
        }
      ],
      "name": "supportsInterface",
      "outputs": [
        {
          "internalType": "bool",
          "name": "",
          "type": "bool"
        }
      ],
      "stateMutability": "view",
      "type": "function"
    },
    {
      "inputs": [],
      "name": "symbol",
      "outputs": [
        {
          "internalType": "string",
          "name": "",
          "type": "string"
        }
      ],
      "stateMutability": "view",
      "type": "function"
    },
    {
      "inputs": [
        {
          "internalType": "uint256",
          "name": "index",
          "type": "uint256"
        }
      ],
      "name": "tokenByIndex",
      "outputs": [
        {
          "internalType": "uint256",
          "name": "",
          "type": "uint256"
        }
      ],
      "stateMutability": "view",
      "type": "function"
    },
    {
      "inputs": [
        {
          "internalType": "address",
          "name": "owner",
          "type": "address"
        },
        {
          "internalType": "uint256",
          "name": "index",
          "type": "uint256"
        }
      ],
      "name": "tokenOfOwnerByIndex",
      "outputs": [
        {
          "internalType": "uint256",
          "name": "",
          "type": "uint256"
        }
      ],
      "stateMutability": "view",
      "type": "function"
    },
    {
      "inputs": [
        {
          "internalType": "uint256",
          "name": "tokenId",
          "type": "uint256"
        }
      ],
      "name": "tokenURI",
      "outputs": [
        {
          "internalType": "string",
          "name": "",
          "type": "string"
        }
      ],
      "stateMutability": "view",
      "type": "function"
    },
    {
      "inputs": [],
      "name": "totalSupply",
      "outputs": [
        {
          "internalType": "uint256",
          "name": "",
          "type": "uint256"
        }
      ],
      "stateMutability": "view",
      "type": "function"
    },
    {
      "inputs": [
        {
          "internalType": "address payable",
          "name": "_to",
          "type": "address"
        },
        {
          "internalType": "uint256",
          "name": "_value",
          "type": "uint256"
        }
      ],
      "name": "transferAvax",
      "outputs": [
        {
          "internalType": "bool",
          "name": "success",
          "type": "bool"
        }
      ],
      "stateMutability": "nonpayable",
      "type": "function"
    },
    {
      "inputs": [
        {
          "internalType": "address",
          "name": "from",
          "type": "address"
        },
        {
          "internalType": "address",
          "name": "to",
          "type": "address"
        },
        {
          "internalType": "uint256",
          "name": "tokenId",
          "type": "uint256"
        }
      ],
      "name": "transferFrom",
      "outputs": [],
      "stateMutability": "nonpayable",
      "type": "function"
    },
    {
      "inputs": [
        {
          "internalType": "address",
          "name": "newOwner",
          "type": "address"
        }
      ],
      "name": "transferOwnership",
      "outputs": [],
      "stateMutability": "nonpayable",
      "type": "function"
    }
  ],
  "bytecode": "0x6080604052670de0b6b3a7640000600d556014600e55612710600f5560026010556103e860145560646015553480156200003857600080fd5b506040518060400160405280601881526020017f4156415820536577657220526174202d205465737420313200000000000000008152506040518060400160405280600581526020017f52415431320000000000000000000000000000000000000000000000000000008152508160009080519060200190620000bd929190620001cd565b508060019080519060200190620000d6929190620001cd565b505050620000f9620000ed620000ff60201b60201c565b6200010760201b60201c565b620002e2565b600033905090565b6000600760009054906101000a900473ffffffffffffffffffffffffffffffffffffffff16905081600760006101000a81548173ffffffffffffffffffffffffffffffffffffffff021916908373ffffffffffffffffffffffffffffffffffffffff1602179055508173ffffffffffffffffffffffffffffffffffffffff168173ffffffffffffffffffffffffffffffffffffffff167f8be0079c531659141344cd1fd0a4f28419497f9722a3daafe3b4186f6b6457e060405160405180910390a35050565b828054620001db906200027d565b90600052602060002090601f016020900481019282620001ff57600085556200024b565b82601f106200021a57805160ff19168380011785556200024b565b828001600101855582156200024b579182015b828111156200024a5782518255916020019190600101906200022d565b5b5090506200025a91906200025e565b5090565b5b80821115620002795760008160009055506001016200025f565b5090565b600060028204905060018216806200029657607f821691505b60208210811415620002ad57620002ac620002b3565b5b50919050565b7f4e487b7100000000000000000000000000000000000000000000000000000000600052602260045260246000fd5b61499c80620002f26000396000f3fe6080604052600436106101e35760003560e01c80635f823d2811610102578063a144819411610095578063e88a38df11610064578063e88a38df1461071e578063e985e9c514610747578063eb1dd30414610784578063f2fde38b146107c1576101e3565b8063a144819414610666578063a22cb4651461068f578063b88d4fde146106b8578063c87b56dd146106e1576101e3565b8063715018a6116100d1578063715018a6146105d057806386b74e98146105e75780638da5cb5b1461061057806395d89b411461063b576101e3565b80635f823d28146105045780635fd59b6f1461052d5780636352211e1461055657806370a0823114610593576101e3565b806319f590f91161017a5780633c57c075116101495780633c57c0751461043657806340c84b0e1461047357806342842e0e1461049e5780634f6ccce7146104c7576101e3565b806319f590f91461037757806323b872dd146103a05780632d571cc4146103c95780632f745c59146103f9576101e3565b80630ce90ec2116101b65780630ce90ec2146102b657806310d80a55146102d257806313b5db9e1461030f57806318160ddd1461034c576101e3565b806301ffc9a7146101e857806306fdde0314610225578063081812fc14610250578063095ea7b31461028d575b600080fd5b3480156101f457600080fd5b5061020f600480360381019061020a9190613525565b6107ea565b60405161021c9190613aec565b60405180910390f35b34801561023157600080fd5b5061023a6107fc565b6040516102479190613b07565b60405180910390f35b34801561025c57600080fd5b50610277600480360381019061027291906135b8565b61088e565b6040516102849190613a4e565b60405180910390f35b34801561029957600080fd5b506102b460048036038101906102af91906134c0565b610913565b005b6102d060048036038101906102cb91906135b8565b610a2b565b005b3480156102de57600080fd5b506102f960048036038101906102f491906135b8565b610bc5565b6040516103069190613e29565b60405180910390f35b34801561031b57600080fd5b50610336600480360381019061033191906135b8565b610be2565b6040516103439190613e29565b60405180910390f35b34801561035857600080fd5b50610361610bfa565b60405161036e9190613e29565b60405180910390f35b34801561038357600080fd5b5061039e60048036038101906103999190613319565b610c07565b005b3480156103ac57600080fd5b506103c760048036038101906103c291906133ba565b610cc7565b005b6103e360048036038101906103de91906135b8565b610d27565b6040516103f09190613aec565b60405180910390f35b34801561040557600080fd5b50610420600480360381019061041b91906134c0565b61104b565b60405161042d9190613e29565b60405180910390f35b34801561044257600080fd5b5061045d600480360381019061045891906135b8565b6110f0565b60405161046a9190613e29565b60405180910390f35b34801561047f57600080fd5b506104886111ac565b6040516104959190613b07565b60405180910390f35b3480156104aa57600080fd5b506104c560048036038101906104c091906133ba565b61123a565b005b3480156104d357600080fd5b506104ee60048036038101906104e991906135b8565b61125a565b6040516104fb9190613e29565b60405180910390f35b34801561051057600080fd5b5061052b60048036038101906105269190613577565b6112f1565b005b34801561053957600080fd5b50610554600480360381019061054f9190613319565b611387565b005b34801561056257600080fd5b5061057d600480360381019061057891906135b8565b611447565b60405161058a9190613a4e565b60405180910390f35b34801561059f57600080fd5b506105ba60048036038101906105b59190613319565b6114f9565b6040516105c79190613e29565b60405180910390f35b3480156105dc57600080fd5b506105e56115b1565b005b3480156105f357600080fd5b5061060e600480360381019061060991906135b8565b611639565b005b34801561061c57600080fd5b506106256116bf565b6040516106329190613a4e565b60405180910390f35b34801561064757600080fd5b506106506116e9565b60405161065d9190613b07565b60405180910390f35b34801561067257600080fd5b5061068d600480360381019061068891906134c0565b61177b565b005b34801561069b57600080fd5b506106b660048036038101906106b19190613484565b611805565b005b3480156106c457600080fd5b506106df60048036038101906106da9190613409565b61181b565b005b3480156106ed57600080fd5b50610708600480360381019061070391906135b8565b61187d565b6040516107159190613b07565b60405180910390f35b34801561072a57600080fd5b50610745600480360381019061074091906135b8565b61188f565b005b34801561075357600080fd5b5061076e6004803603810190610769919061337e565b611915565b60405161077b9190613aec565b60405180910390f35b34801561079057600080fd5b506107ab60048036038101906107a69190613342565b6119a9565b6040516107b89190613aec565b60405180910390f35b3480156107cd57600080fd5b506107e860048036038101906107e39190613319565b611a78565b005b60006107f582611b70565b9050919050565b60606000805461080b906140eb565b80601f0160208091040260200160405190810160405280929190818152602001828054610837906140eb565b80156108845780601f1061085957610100808354040283529160200191610884565b820191906000526020600020905b81548152906001019060200180831161086757829003601f168201915b5050505050905090565b600061089982611bea565b6108d8576040517f08c379a00000000000000000000000000000000000000000000000000000000081526004016108cf90613d49565b60405180910390fd5b6004600083815260200190815260200160002060009054906101000a900473ffffffffffffffffffffffffffffffffffffffff169050919050565b600061091e82611447565b90508073ffffffffffffffffffffffffffffffffffffffff168373ffffffffffffffffffffffffffffffffffffffff16141561098f576040517f08c379a000000000000000000000000000000000000000000000000000000000815260040161098690613dc9565b60405180910390fd5b8073ffffffffffffffffffffffffffffffffffffffff166109ae611c56565b73ffffffffffffffffffffffffffffffffffffffff1614806109dd57506109dc816109d7611c56565b611915565b5b610a1c576040517f08c379a0000000000000000000000000000000000000000000000000000000008152600401610a1390613c89565b60405180910390fd5b610a268383611c5e565b505050565b601260009054906101000a900473ffffffffffffffffffffffffffffffffffffffff1673ffffffffffffffffffffffffffffffffffffffff1663a9b17f0d826040518263ffffffff1660e01b8152600401610a869190613e29565b600060405180830381600087803b158015610aa057600080fd5b505af1158015610ab4573d6000803e3d6000fd5b505050506000670de0b6b3a7640000610acc836110f0565b610ad69190613f95565b9050601360009054906101000a900473ffffffffffffffffffffffffffffffffffffffff1673ffffffffffffffffffffffffffffffffffffffff166323b872dd3330846040518463ffffffff1660e01b8152600401610b3793929190613a69565b602060405180830381600087803b158015610b5157600080fd5b505af1158015610b65573d6000803e3d6000fd5b505050506040513d601f19601f82011682018060405250810190610b8991906134fc565b5060016016600084815260200190815260200160002054610baa9190613f0e565b60166000848152602001908152602001600020819055505050565b600060166000838152602001908152602001600020549050919050565b60166020528060005260406000206000915090505481565b6000600a80549050905090565b610c0f611c56565b73ffffffffffffffffffffffffffffffffffffffff16610c2d6116bf565b73ffffffffffffffffffffffffffffffffffffffff1614610c83576040517f08c379a0000000000000000000000000000000000000000000000000000000008152600401610c7a90613d69565b60405180910390fd5b80601360006101000a81548173ffffffffffffffffffffffffffffffffffffffff021916908373ffffffffffffffffffffffffffffffffffffffff16021790555050565b610cd8610cd2611c56565b82611d17565b610d17576040517f08c379a0000000000000000000000000000000000000000000000000000000008152600401610d0e90613de9565b60405180910390fd5b610d22838383611df5565b505050565b6000600d5482610d379190613f95565b341015610d79576040517f08c379a0000000000000000000000000000000000000000000000000000000008152600401610d7090613c49565b60405180910390fd5b60008211610dbc576040517f08c379a0000000000000000000000000000000000000000000000000000000008152600401610db390613bc9565b60405180910390fd5b600e54821115610e01576040517f08c379a0000000000000000000000000000000000000000000000000000000008152600401610df890613be9565b60405180910390fd5b60005b8281101561104157610e16600c612051565b600f54610e23600c612067565b10610e63576040517f08c379a0000000000000000000000000000000000000000000000000000000008152600401610e5a90613b29565b60405180910390fd5b600060118054610e72906140eb565b80601f0160208091040260200160405190810160405280929190818152602001828054610e9e906140eb565b8015610eeb5780601f10610ec057610100808354040283529160200191610eeb565b820191906000526020600020905b815481529060010190602001808311610ece57829003601f168201915b505050505090506000610efe600c612067565b90506000610f0b82612075565b905060006040518060400160405280600581526020017f2e6a736f6e00000000000000000000000000000000000000000000000000000081525090506000848383604051602001610f5e93929190613a1d565b6040516020818303038152906040529050610f793385612222565b610f8384826123f0565b60016016600086815260200190815260200160002081905550601260009054906101000a900473ffffffffffffffffffffffffffffffffffffffff1673ffffffffffffffffffffffffffffffffffffffff1663dab37f33856040518263ffffffff1660e01b8152600401610ff79190613e29565b600060405180830381600087803b15801561101157600080fd5b505af1158015611025573d6000803e3d6000fd5b50505050505050505080806110399061414e565b915050610e04565b5060019050919050565b6000611056836114f9565b8210611097576040517f08c379a000000000000000000000000000000000000000000000000000000000815260040161108e90613b49565b60405180910390fd5b600860008473ffffffffffffffffffffffffffffffffffffffff1673ffffffffffffffffffffffffffffffffffffffff168152602001908152602001600020600083815260200190815260200160002054905092915050565b600080601660008481526020019081526020016000205460326111139190613f0e565b600160166000868152602001908152602001600020546111339190613fef565b61113d9190613f95565b9050600060646015546064846014546111569190613f95565b6111609190613f64565b61116a9190613f95565b6111749190613f64565b90506000816014546111869190613f0e565b90506064601554826111989190613f95565b6111a29190613f64565b9350505050919050565b601180546111b9906140eb565b80601f01602080910402602001604051908101604052809291908181526020018280546111e5906140eb565b80156112325780601f1061120757610100808354040283529160200191611232565b820191906000526020600020905b81548152906001019060200180831161121557829003601f168201915b505050505081565b6112558383836040518060200160405280600081525061181b565b505050565b6000611264610bfa565b82106112a5576040517f08c379a000000000000000000000000000000000000000000000000000000000815260040161129c90613e09565b60405180910390fd5b600a82815481106112df577f4e487b7100000000000000000000000000000000000000000000000000000000600052603260045260246000fd5b90600052602060002001549050919050565b6112f9611c56565b73ffffffffffffffffffffffffffffffffffffffff166113176116bf565b73ffffffffffffffffffffffffffffffffffffffff161461136d576040517f08c379a000000000000000000000000000000000000000000000000000000000815260040161136490613d69565b60405180910390fd5b8060119080519060200190611383929190613113565b5050565b61138f611c56565b73ffffffffffffffffffffffffffffffffffffffff166113ad6116bf565b73ffffffffffffffffffffffffffffffffffffffff1614611403576040517f08c379a00000000000000000000000000000000000000000000000000000000081526004016113fa90613d69565b60405180910390fd5b80601260006101000a81548173ffffffffffffffffffffffffffffffffffffffff021916908373ffffffffffffffffffffffffffffffffffffffff16021790555050565b6000806002600084815260200190815260200160002060009054906101000a900473ffffffffffffffffffffffffffffffffffffffff169050600073ffffffffffffffffffffffffffffffffffffffff168173ffffffffffffffffffffffffffffffffffffffff1614156114f0576040517f08c379a00000000000000000000000000000000000000000000000000000000081526004016114e790613cc9565b60405180910390fd5b80915050919050565b60008073ffffffffffffffffffffffffffffffffffffffff168273ffffffffffffffffffffffffffffffffffffffff16141561156a576040517f08c379a000000000000000000000000000000000000000000000000000000000815260040161156190613ca9565b60405180910390fd5b600360008373ffffffffffffffffffffffffffffffffffffffff1673ffffffffffffffffffffffffffffffffffffffff168152602001908152602001600020549050919050565b6115b9611c56565b73ffffffffffffffffffffffffffffffffffffffff166115d76116bf565b73ffffffffffffffffffffffffffffffffffffffff161461162d576040517f08c379a000000000000000000000000000000000000000000000000000000000815260040161162490613d69565b60405180910390fd5b6116376000612464565b565b611641611c56565b73ffffffffffffffffffffffffffffffffffffffff1661165f6116bf565b73ffffffffffffffffffffffffffffffffffffffff16146116b5576040517f08c379a00000000000000000000000000000000000000000000000000000000081526004016116ac90613d69565b60405180910390fd5b8060148190555050565b6000600760009054906101000a900473ffffffffffffffffffffffffffffffffffffffff16905090565b6060600180546116f8906140eb565b80601f0160208091040260200160405190810160405280929190818152602001828054611724906140eb565b80156117715780601f1061174657610100808354040283529160200191611771565b820191906000526020600020905b81548152906001019060200180831161175457829003601f168201915b5050505050905090565b611783611c56565b73ffffffffffffffffffffffffffffffffffffffff166117a16116bf565b73ffffffffffffffffffffffffffffffffffffffff16146117f7576040517f08c379a00000000000000000000000000000000000000000000000000000000081526004016117ee90613d69565b60405180910390fd5b611801828261252a565b5050565b611817611810611c56565b8383612548565b5050565b61182c611826611c56565b83611d17565b61186b576040517f08c379a000000000000000000000000000000000000000000000000000000000815260040161186290613de9565b60405180910390fd5b611877848484846126b5565b50505050565b606061188882612711565b9050919050565b611897611c56565b73ffffffffffffffffffffffffffffffffffffffff166118b56116bf565b73ffffffffffffffffffffffffffffffffffffffff161461190b576040517f08c379a000000000000000000000000000000000000000000000000000000000815260040161190290613d69565b60405180910390fd5b8060158190555050565b6000600560008473ffffffffffffffffffffffffffffffffffffffff1673ffffffffffffffffffffffffffffffffffffffff16815260200190815260200160002060008373ffffffffffffffffffffffffffffffffffffffff1673ffffffffffffffffffffffffffffffffffffffff16815260200190815260200160002060009054906101000a900460ff16905092915050565b60006119b3611c56565b73ffffffffffffffffffffffffffffffffffffffff166119d16116bf565b73ffffffffffffffffffffffffffffffffffffffff1614611a27576040517f08c379a0000000000000000000000000000000000000000000000000000000008152600401611a1e90613d69565b60405180910390fd5b8273ffffffffffffffffffffffffffffffffffffffff166108fc839081150290604051600060405180830381858888f19350505050158015611a6d573d6000803e3d6000fd5b506001905092915050565b611a80611c56565b73ffffffffffffffffffffffffffffffffffffffff16611a9e6116bf565b73ffffffffffffffffffffffffffffffffffffffff1614611af4576040517f08c379a0000000000000000000000000000000000000000000000000000000008152600401611aeb90613d69565b60405180910390fd5b600073ffffffffffffffffffffffffffffffffffffffff168173ffffffffffffffffffffffffffffffffffffffff161415611b64576040517f08c379a0000000000000000000000000000000000000000000000000000000008152600401611b5b90613b89565b60405180910390fd5b611b6d81612464565b50565b60007f780e9d63000000000000000000000000000000000000000000000000000000007bffffffffffffffffffffffffffffffffffffffffffffffffffffffff1916827bffffffffffffffffffffffffffffffffffffffffffffffffffffffff19161480611be35750611be282612863565b5b9050919050565b60008073ffffffffffffffffffffffffffffffffffffffff166002600084815260200190815260200160002060009054906101000a900473ffffffffffffffffffffffffffffffffffffffff1673ffffffffffffffffffffffffffffffffffffffff1614159050919050565b600033905090565b816004600083815260200190815260200160002060006101000a81548173ffffffffffffffffffffffffffffffffffffffff021916908373ffffffffffffffffffffffffffffffffffffffff160217905550808273ffffffffffffffffffffffffffffffffffffffff16611cd183611447565b73ffffffffffffffffffffffffffffffffffffffff167f8c5be1e5ebec7d5bd14f71427d1e84f3dd0314c0f7b2291e5b200ac8c7c3b92560405160405180910390a45050565b6000611d2282611bea565b611d61576040517f08c379a0000000000000000000000000000000000000000000000000000000008152600401611d5890613c69565b60405180910390fd5b6000611d6c83611447565b90508073ffffffffffffffffffffffffffffffffffffffff168473ffffffffffffffffffffffffffffffffffffffff161480611ddb57508373ffffffffffffffffffffffffffffffffffffffff16611dc38461088e565b73ffffffffffffffffffffffffffffffffffffffff16145b80611dec5750611deb8185611915565b5b91505092915050565b8273ffffffffffffffffffffffffffffffffffffffff16611e1582611447565b73ffffffffffffffffffffffffffffffffffffffff1614611e6b576040517f08c379a0000000000000000000000000000000000000000000000000000000008152600401611e6290613d89565b60405180910390fd5b600073ffffffffffffffffffffffffffffffffffffffff168273ffffffffffffffffffffffffffffffffffffffff161415611edb576040517f08c379a0000000000000000000000000000000000000000000000000000000008152600401611ed290613c09565b60405180910390fd5b611ee6838383612945565b611ef1600082611c5e565b6001600360008573ffffffffffffffffffffffffffffffffffffffff1673ffffffffffffffffffffffffffffffffffffffff1681526020019081526020016000206000828254611f419190613fef565b925050819055506001600360008473ffffffffffffffffffffffffffffffffffffffff1673ffffffffffffffffffffffffffffffffffffffff1681526020019081526020016000206000828254611f989190613f0e565b92505081905550816002600083815260200190815260200160002060006101000a81548173ffffffffffffffffffffffffffffffffffffffff021916908373ffffffffffffffffffffffffffffffffffffffff160217905550808273ffffffffffffffffffffffffffffffffffffffff168473ffffffffffffffffffffffffffffffffffffffff167fddf252ad1be2c89b69c2b068fc378daa952ba7f163c4a11628f55a4df523b3ef60405160405180910390a4505050565b6001816000016000828254019250508190555050565b600081600001549050919050565b606060008214156120bd576040518060400160405280600181526020017f3000000000000000000000000000000000000000000000000000000000000000815250905061221d565b600082905060005b600082146120ef5780806120d89061414e565b915050600a826120e89190613f64565b91506120c5565b60008167ffffffffffffffff811115612131577f4e487b7100000000000000000000000000000000000000000000000000000000600052604160045260246000fd5b6040519080825280601f01601f1916602001820160405280156121635781602001600182028036833780820191505090505b5090505b600085146122165760018261217c9190613fef565b9150600a8561218b9190614197565b60306121979190613f0e565b60f81b8183815181106121d3577f4e487b7100000000000000000000000000000000000000000000000000000000600052603260045260246000fd5b60200101907effffffffffffffffffffffffffffffffffffffffffffffffffffffffffffff1916908160001a905350600a8561220f9190613f64565b9450612167565b8093505050505b919050565b600073ffffffffffffffffffffffffffffffffffffffff168273ffffffffffffffffffffffffffffffffffffffff161415612292576040517f08c379a000000000000000000000000000000000000000000000000000000000815260040161228990613d09565b60405180910390fd5b61229b81611bea565b156122db576040517f08c379a00000000000000000000000000000000000000000000000000000000081526004016122d290613ba9565b60405180910390fd5b6122e760008383612945565b6001600360008473ffffffffffffffffffffffffffffffffffffffff1673ffffffffffffffffffffffffffffffffffffffff16815260200190815260200160002060008282546123379190613f0e565b92505081905550816002600083815260200190815260200160002060006101000a81548173ffffffffffffffffffffffffffffffffffffffff021916908373ffffffffffffffffffffffffffffffffffffffff160217905550808273ffffffffffffffffffffffffffffffffffffffff16600073ffffffffffffffffffffffffffffffffffffffff167fddf252ad1be2c89b69c2b068fc378daa952ba7f163c4a11628f55a4df523b3ef60405160405180910390a45050565b6123f982611bea565b612438576040517f08c379a000000000000000000000000000000000000000000000000000000000815260040161242f90613ce9565b60405180910390fd5b8060066000848152602001908152602001600020908051906020019061245f929190613113565b505050565b6000600760009054906101000a900473ffffffffffffffffffffffffffffffffffffffff16905081600760006101000a81548173ffffffffffffffffffffffffffffffffffffffff021916908373ffffffffffffffffffffffffffffffffffffffff1602179055508173ffffffffffffffffffffffffffffffffffffffff168173ffffffffffffffffffffffffffffffffffffffff167f8be0079c531659141344cd1fd0a4f28419497f9722a3daafe3b4186f6b6457e060405160405180910390a35050565b612544828260405180602001604052806000815250612955565b5050565b8173ffffffffffffffffffffffffffffffffffffffff168373ffffffffffffffffffffffffffffffffffffffff1614156125b7576040517f08c379a00000000000000000000000000000000000000000000000000000000081526004016125ae90613c29565b60405180910390fd5b80600560008573ffffffffffffffffffffffffffffffffffffffff1673ffffffffffffffffffffffffffffffffffffffff16815260200190815260200160002060008473ffffffffffffffffffffffffffffffffffffffff1673ffffffffffffffffffffffffffffffffffffffff16815260200190815260200160002060006101000a81548160ff0219169083151502179055508173ffffffffffffffffffffffffffffffffffffffff168373ffffffffffffffffffffffffffffffffffffffff167f17307eab39ab6107e8899845ad3d59bd9653f200f220920489ca2b5937696c31836040516126a89190613aec565b60405180910390a3505050565b6126c0848484611df5565b6126cc848484846129b0565b61270b576040517f08c379a000000000000000000000000000000000000000000000000000000000815260040161270290613b69565b60405180910390fd5b50505050565b606061271c82611bea565b61275b576040517f08c379a000000000000000000000000000000000000000000000000000000000815260040161275290613d29565b60405180910390fd5b600060066000848152602001908152602001600020805461277b906140eb565b80601f01602080910402602001604051908101604052809291908181526020018280546127a7906140eb565b80156127f45780601f106127c9576101008083540402835291602001916127f4565b820191906000526020600020905b8154815290600101906020018083116127d757829003601f168201915b505050505090506000612805612b47565b905060008151141561281b57819250505061285e565b6000825111156128505780826040516020016128389291906139f9565b6040516020818303038152906040529250505061285e565b61285984612b5e565b925050505b919050565b60007f80ac58cd000000000000000000000000000000000000000000000000000000007bffffffffffffffffffffffffffffffffffffffffffffffffffffffff1916827bffffffffffffffffffffffffffffffffffffffffffffffffffffffff1916148061292e57507f5b5e139f000000000000000000000000000000000000000000000000000000007bffffffffffffffffffffffffffffffffffffffffffffffffffffffff1916827bffffffffffffffffffffffffffffffffffffffffffffffffffffffff1916145b8061293e575061293d82612c05565b5b9050919050565b612950838383612c6f565b505050565b61295f8383612222565b61296c60008484846129b0565b6129ab576040517f08c379a00000000000000000000000000000000000000000000000000000000081526004016129a290613b69565b60405180910390fd5b505050565b60006129d18473ffffffffffffffffffffffffffffffffffffffff16612d83565b15612b3a578373ffffffffffffffffffffffffffffffffffffffff1663150b7a026129fa611c56565b8786866040518563ffffffff1660e01b8152600401612a1c9493929190613aa0565b602060405180830381600087803b158015612a3657600080fd5b505af1925050508015612a6757506040513d601f19601f82011682018060405250810190612a64919061354e565b60015b612aea573d8060008114612a97576040519150601f19603f3d011682016040523d82523d6000602084013e612a9c565b606091505b50600081511415612ae2576040517f08c379a0000000000000000000000000000000000000000000000000000000008152600401612ad990613b69565b60405180910390fd5b805181602001fd5b63150b7a0260e01b7bffffffffffffffffffffffffffffffffffffffffffffffffffffffff1916817bffffffffffffffffffffffffffffffffffffffffffffffffffffffff191614915050612b3f565b600190505b949350505050565b606060405180602001604052806000815250905090565b6060612b6982611bea565b612ba8576040517f08c379a0000000000000000000000000000000000000000000000000000000008152600401612b9f90613da9565b60405180910390fd5b6000612bb2612b47565b90506000815111612bd25760405180602001604052806000815250612bfd565b80612bdc84612075565b604051602001612bed9291906139f9565b6040516020818303038152906040525b915050919050565b60007f01ffc9a7000000000000000000000000000000000000000000000000000000007bffffffffffffffffffffffffffffffffffffffffffffffffffffffff1916827bffffffffffffffffffffffffffffffffffffffffffffffffffffffff1916149050919050565b612c7a838383612d96565b600073ffffffffffffffffffffffffffffffffffffffff168373ffffffffffffffffffffffffffffffffffffffff161415612cbd57612cb881612d9b565b612cfc565b8173ffffffffffffffffffffffffffffffffffffffff168373ffffffffffffffffffffffffffffffffffffffff1614612cfb57612cfa8382612de4565b5b5b600073ffffffffffffffffffffffffffffffffffffffff168273ffffffffffffffffffffffffffffffffffffffff161415612d3f57612d3a81612f51565b612d7e565b8273ffffffffffffffffffffffffffffffffffffffff168273ffffffffffffffffffffffffffffffffffffffff1614612d7d57612d7c8282613094565b5b5b505050565b600080823b905060008111915050919050565b505050565b600a80549050600b600083815260200190815260200160002081905550600a81908060018154018082558091505060019003906000526020600020016000909190919091505550565b60006001612df1846114f9565b612dfb9190613fef565b9050600060096000848152602001908152602001600020549050818114612ee0576000600860008673ffffffffffffffffffffffffffffffffffffffff1673ffffffffffffffffffffffffffffffffffffffff168152602001908152602001600020600084815260200190815260200160002054905080600860008773ffffffffffffffffffffffffffffffffffffffff1673ffffffffffffffffffffffffffffffffffffffff168152602001908152602001600020600084815260200190815260200160002081905550816009600083815260200190815260200160002081905550505b6009600084815260200190815260200160002060009055600860008573ffffffffffffffffffffffffffffffffffffffff1673ffffffffffffffffffffffffffffffffffffffff16815260200190815260200160002060008381526020019081526020016000206000905550505050565b60006001600a80549050612f659190613fef565b90506000600b60008481526020019081526020016000205490506000600a8381548110612fbb577f4e487b7100000000000000000000000000000000000000000000000000000000600052603260045260246000fd5b9060005260206000200154905080600a8381548110613003577f4e487b7100000000000000000000000000000000000000000000000000000000600052603260045260246000fd5b906000526020600020018190555081600b600083815260200190815260200160002081905550600b600085815260200190815260200160002060009055600a805480613078577f4e487b7100000000000000000000000000000000000000000000000000000000600052603160045260246000fd5b6001900381819060005260206000200160009055905550505050565b600061309f836114f9565b905081600860008573ffffffffffffffffffffffffffffffffffffffff1673ffffffffffffffffffffffffffffffffffffffff168152602001908152602001600020600083815260200190815260200160002081905550806009600084815260200190815260200160002081905550505050565b82805461311f906140eb565b90600052602060002090601f0160209004810192826131415760008555613188565b82601f1061315a57805160ff1916838001178555613188565b82800160010185558215613188579182015b8281111561318757825182559160200191906001019061316c565b5b5090506131959190613199565b5090565b5b808211156131b257600081600090555060010161319a565b5090565b60006131c96131c484613e69565b613e44565b9050828152602081018484840111156131e157600080fd5b6131ec8482856140a9565b509392505050565b600061320761320284613e9a565b613e44565b90508281526020810184848401111561321f57600080fd5b61322a8482856140a9565b509392505050565b600081359050613241816148f3565b92915050565b6000813590506132568161490a565b92915050565b60008135905061326b81614921565b92915050565b60008151905061328081614921565b92915050565b60008135905061329581614938565b92915050565b6000815190506132aa81614938565b92915050565b600082601f8301126132c157600080fd5b81356132d18482602086016131b6565b91505092915050565b600082601f8301126132eb57600080fd5b81356132fb8482602086016131f4565b91505092915050565b6000813590506133138161494f565b92915050565b60006020828403121561332b57600080fd5b600061333984828501613232565b91505092915050565b6000806040838503121561335557600080fd5b600061336385828601613247565b925050602061337485828601613304565b9150509250929050565b6000806040838503121561339157600080fd5b600061339f85828601613232565b92505060206133b085828601613232565b9150509250929050565b6000806000606084860312156133cf57600080fd5b60006133dd86828701613232565b93505060206133ee86828701613232565b92505060406133ff86828701613304565b9150509250925092565b6000806000806080858703121561341f57600080fd5b600061342d87828801613232565b945050602061343e87828801613232565b935050604061344f87828801613304565b925050606085013567ffffffffffffffff81111561346c57600080fd5b613478878288016132b0565b91505092959194509250565b6000806040838503121561349757600080fd5b60006134a585828601613232565b92505060206134b68582860161325c565b9150509250929050565b600080604083850312156134d357600080fd5b60006134e185828601613232565b92505060206134f285828601613304565b9150509250929050565b60006020828403121561350e57600080fd5b600061351c84828501613271565b91505092915050565b60006020828403121561353757600080fd5b600061354584828501613286565b91505092915050565b60006020828403121561356057600080fd5b600061356e8482850161329b565b91505092915050565b60006020828403121561358957600080fd5b600082013567ffffffffffffffff8111156135a357600080fd5b6135af848285016132da565b91505092915050565b6000602082840312156135ca57600080fd5b60006135d884828501613304565b91505092915050565b6135ea81614023565b82525050565b6135f981614047565b82525050565b600061360a82613ecb565b6136148185613ee1565b93506136248185602086016140b8565b61362d81614284565b840191505092915050565b600061364382613ed6565b61364d8185613ef2565b935061365d8185602086016140b8565b61366681614284565b840191505092915050565b600061367c82613ed6565b6136868185613f03565b93506136968185602086016140b8565b80840191505092915050565b60006136af601383613ef2565b91506136ba82614295565b602082019050919050565b60006136d2602b83613ef2565b91506136dd826142be565b604082019050919050565b60006136f5603283613ef2565b91506137008261430d565b604082019050919050565b6000613718602683613ef2565b91506137238261435c565b604082019050919050565b600061373b601c83613ef2565b9150613746826143ab565b602082019050919050565b600061375e600c83613ef2565b9150613769826143d4565b602082019050919050565b6000613781601183613ef2565b915061378c826143fd565b602082019050919050565b60006137a4602483613ef2565b91506137af82614426565b604082019050919050565b60006137c7601983613ef2565b91506137d282614475565b602082019050919050565b60006137ea602283613ef2565b91506137f58261449e565b604082019050919050565b600061380d602c83613ef2565b9150613818826144ed565b604082019050919050565b6000613830603883613ef2565b915061383b8261453c565b604082019050919050565b6000613853602a83613ef2565b915061385e8261458b565b604082019050919050565b6000613876602983613ef2565b9150613881826145da565b604082019050919050565b6000613899602e83613ef2565b91506138a482614629565b604082019050919050565b60006138bc602083613ef2565b91506138c782614678565b602082019050919050565b60006138df603183613ef2565b91506138ea826146a1565b604082019050919050565b6000613902602c83613ef2565b915061390d826146f0565b604082019050919050565b6000613925602083613ef2565b91506139308261473f565b602082019050919050565b6000613948602983613ef2565b915061395382614768565b604082019050919050565b600061396b602f83613ef2565b9150613976826147b7565b604082019050919050565b600061398e602183613ef2565b915061399982614806565b604082019050919050565b60006139b1603183613ef2565b91506139bc82614855565b604082019050919050565b60006139d4602c83613ef2565b91506139df826148a4565b604082019050919050565b6139f38161409f565b82525050565b6000613a058285613671565b9150613a118284613671565b91508190509392505050565b6000613a298286613671565b9150613a358285613671565b9150613a418284613671565b9150819050949350505050565b6000602082019050613a6360008301846135e1565b92915050565b6000606082019050613a7e60008301866135e1565b613a8b60208301856135e1565b613a9860408301846139ea565b949350505050565b6000608082019050613ab560008301876135e1565b613ac260208301866135e1565b613acf60408301856139ea565b8181036060830152613ae181846135ff565b905095945050505050565b6000602082019050613b0160008301846135f0565b92915050565b60006020820190508181036000830152613b218184613638565b905092915050565b60006020820190508181036000830152613b42816136a2565b9050919050565b60006020820190508181036000830152613b62816136c5565b9050919050565b60006020820190508181036000830152613b82816136e8565b9050919050565b60006020820190508181036000830152613ba28161370b565b9050919050565b60006020820190508181036000830152613bc28161372e565b9050919050565b60006020820190508181036000830152613be281613751565b9050919050565b60006020820190508181036000830152613c0281613774565b9050919050565b60006020820190508181036000830152613c2281613797565b9050919050565b60006020820190508181036000830152613c42816137ba565b9050919050565b60006020820190508181036000830152613c62816137dd565b9050919050565b60006020820190508181036000830152613c8281613800565b9050919050565b60006020820190508181036000830152613ca281613823565b9050919050565b60006020820190508181036000830152613cc281613846565b9050919050565b60006020820190508181036000830152613ce281613869565b9050919050565b60006020820190508181036000830152613d028161388c565b9050919050565b60006020820190508181036000830152613d22816138af565b9050919050565b60006020820190508181036000830152613d42816138d2565b9050919050565b60006020820190508181036000830152613d62816138f5565b9050919050565b60006020820190508181036000830152613d8281613918565b9050919050565b60006020820190508181036000830152613da28161393b565b9050919050565b60006020820190508181036000830152613dc28161395e565b9050919050565b60006020820190508181036000830152613de281613981565b9050919050565b60006020820190508181036000830152613e02816139a4565b9050919050565b60006020820190508181036000830152613e22816139c7565b9050919050565b6000602082019050613e3e60008301846139ea565b92915050565b6000613e4e613e5f565b9050613e5a828261411d565b919050565b6000604051905090565b600067ffffffffffffffff821115613e8457613e83614255565b5b613e8d82614284565b9050602081019050919050565b600067ffffffffffffffff821115613eb557613eb4614255565b5b613ebe82614284565b9050602081019050919050565b600081519050919050565b600081519050919050565b600082825260208201905092915050565b600082825260208201905092915050565b600081905092915050565b6000613f198261409f565b9150613f248361409f565b9250827fffffffffffffffffffffffffffffffffffffffffffffffffffffffffffffffff03821115613f5957613f586141c8565b5b828201905092915050565b6000613f6f8261409f565b9150613f7a8361409f565b925082613f8a57613f896141f7565b5b828204905092915050565b6000613fa08261409f565b9150613fab8361409f565b9250817fffffffffffffffffffffffffffffffffffffffffffffffffffffffffffffffff0483118215151615613fe457613fe36141c8565b5b828202905092915050565b6000613ffa8261409f565b91506140058361409f565b925082821015614018576140176141c8565b5b828203905092915050565b600061402e8261407f565b9050919050565b60006140408261407f565b9050919050565b60008115159050919050565b60007fffffffff0000000000000000000000000000000000000000000000000000000082169050919050565b600073ffffffffffffffffffffffffffffffffffffffff82169050919050565b6000819050919050565b82818337600083830152505050565b60005b838110156140d65780820151818401526020810190506140bb565b838111156140e5576000848401525b50505050565b6000600282049050600182168061410357607f821691505b6020821081141561411757614116614226565b5b50919050565b61412682614284565b810181811067ffffffffffffffff8211171561414557614144614255565b5b80604052505050565b60006141598261409f565b91507fffffffffffffffffffffffffffffffffffffffffffffffffffffffffffffffff82141561418c5761418b6141c8565b5b600182019050919050565b60006141a28261409f565b91506141ad8361409f565b9250826141bd576141bc6141f7565b5b828206905092915050565b7f4e487b7100000000000000000000000000000000000000000000000000000000600052601160045260246000fd5b7f4e487b7100000000000000000000000000000000000000000000000000000000600052601260045260246000fd5b7f4e487b7100000000000000000000000000000000000000000000000000000000600052602260045260246000fd5b7f4e487b7100000000000000000000000000000000000000000000000000000000600052604160045260246000fd5b6000601f19601f8301169050919050565b7f4d617820537570706c7920457863656564656400000000000000000000000000600082015250565b7f455243373231456e756d657261626c653a206f776e657220696e646578206f7560008201527f74206f6620626f756e6473000000000000000000000000000000000000000000602082015250565b7f4552433732313a207472616e7366657220746f206e6f6e20455243373231526560008201527f63656976657220696d706c656d656e7465720000000000000000000000000000602082015250565b7f4f776e61626c653a206e6577206f776e657220697320746865207a65726f206160008201527f6464726573730000000000000000000000000000000000000000000000000000602082015250565b7f4552433732313a20746f6b656e20616c7265616479206d696e74656400000000600082015250565b7f63616e2774206d696e7420300000000000000000000000000000000000000000600082015250565b7f4d6178206d696e74206578636565646564000000000000000000000000000000600082015250565b7f4552433732313a207472616e7366657220746f20746865207a65726f2061646460008201527f7265737300000000000000000000000000000000000000000000000000000000602082015250565b7f4552433732313a20617070726f766520746f2063616c6c657200000000000000600082015250565b7f4e6f7420656e6f75676820415641582073656e743b20636865636b207072696360008201527f6521000000000000000000000000000000000000000000000000000000000000602082015250565b7f4552433732313a206f70657261746f7220717565727920666f72206e6f6e657860008201527f697374656e7420746f6b656e0000000000000000000000000000000000000000602082015250565b7f4552433732313a20617070726f76652063616c6c6572206973206e6f74206f7760008201527f6e6572206e6f7220617070726f76656420666f7220616c6c0000000000000000602082015250565b7f4552433732313a2062616c616e636520717565727920666f7220746865207a6560008201527f726f206164647265737300000000000000000000000000000000000000000000602082015250565b7f4552433732313a206f776e657220717565727920666f72206e6f6e657869737460008201527f656e7420746f6b656e0000000000000000000000000000000000000000000000602082015250565b7f45524337323155524953746f726167653a2055524920736574206f66206e6f6e60008201527f6578697374656e7420746f6b656e000000000000000000000000000000000000602082015250565b7f4552433732313a206d696e7420746f20746865207a65726f2061646472657373600082015250565b7f45524337323155524953746f726167653a2055524920717565727920666f722060008201527f6e6f6e6578697374656e7420746f6b656e000000000000000000000000000000602082015250565b7f4552433732313a20617070726f76656420717565727920666f72206e6f6e657860008201527f697374656e7420746f6b656e0000000000000000000000000000000000000000602082015250565b7f4f776e61626c653a2063616c6c6572206973206e6f7420746865206f776e6572600082015250565b7f4552433732313a207472616e73666572206f6620746f6b656e2074686174206960008201527f73206e6f74206f776e0000000000000000000000000000000000000000000000602082015250565b7f4552433732314d657461646174613a2055524920717565727920666f72206e6f60008201527f6e6578697374656e7420746f6b656e0000000000000000000000000000000000602082015250565b7f4552433732313a20617070726f76616c20746f2063757272656e74206f776e6560008201527f7200000000000000000000000000000000000000000000000000000000000000602082015250565b7f4552433732313a207472616e736665722063616c6c6572206973206e6f74206f60008201527f776e6572206e6f7220617070726f766564000000000000000000000000000000602082015250565b7f455243373231456e756d657261626c653a20676c6f62616c20696e646578206f60008201527f7574206f6620626f756e64730000000000000000000000000000000000000000602082015250565b6148fc81614023565b811461490757600080fd5b50565b61491381614035565b811461491e57600080fd5b50565b61492a81614047565b811461493557600080fd5b50565b61494181614053565b811461494c57600080fd5b50565b6149588161409f565b811461496357600080fd5b5056fea2646970667358221220e13b56cb980d1809245386e445376f05dec16c4b579cb2e937935403e3d8ad4164736f6c63430008030033",
  "linkReferences": {},
  "deployedLinkReferences": {}
}