{
  "_format": "hh-sol-artifact-1",
  "contractName": "Nibbles",
  "sourceName": "contracts/Nibbles.sol",
  "abi": [
    {
      "inputs": [
        {
          "internalType": "address",
          "name": "_trinketAddr",
          "type": "address"
        },
        {
          "internalType": "uint256",
          "name": "_factor",
          "type": "uint256"
        }
      ],
      "stateMutability": "nonpayable",
      "type": "constructor"
    },
    {
      "anonymous": false,
      "inputs": [
        {
          "indexed": true,
          "internalType": "address",
          "name": "owner",
          "type": "address"
        },
        {
          "indexed": true,
          "internalType": "address",
          "name": "spender",
          "type": "address"
        },
        {
          "indexed": false,
          "internalType": "uint256",
          "name": "value",
          "type": "uint256"
        }
      ],
      "name": "Approval",
      "type": "event"
    },
    {
      "anonymous": false,
      "inputs": [
        {
          "indexed": true,
          "internalType": "address",
          "name": "user",
          "type": "address"
        },
        {
          "indexed": false,
          "internalType": "uint256",
          "name": "reward",
          "type": "uint256"
        }
      ],
      "name": "NibblesSent",
      "type": "event"
    },
    {
      "anonymous": false,
      "inputs": [
        {
          "indexed": true,
          "internalType": "address",
          "name": "previousOwner",
          "type": "address"
        },
        {
          "indexed": true,
          "internalType": "address",
          "name": "newOwner",
          "type": "address"
        }
      ],
      "name": "OwnershipTransferred",
      "type": "event"
    },
    {
      "anonymous": false,
      "inputs": [
        {
          "indexed": true,
          "internalType": "address",
          "name": "from",
          "type": "address"
        },
        {
          "indexed": true,
          "internalType": "address",
          "name": "to",
          "type": "address"
        },
        {
          "indexed": false,
          "internalType": "uint256",
          "name": "value",
          "type": "uint256"
        }
      ],
      "name": "Transfer",
      "type": "event"
    },
    {
      "anonymous": false,
      "inputs": [
        {
          "indexed": true,
          "internalType": "address",
          "name": "user",
          "type": "address"
        }
      ],
      "name": "Unstaked",
      "type": "event"
    },
    {
      "inputs": [
        {
          "internalType": "address",
          "name": "owner",
          "type": "address"
        },
        {
          "internalType": "address",
          "name": "spender",
          "type": "address"
        }
      ],
      "name": "allowance",
      "outputs": [
        {
          "internalType": "uint256",
          "name": "",
          "type": "uint256"
        }
      ],
      "stateMutability": "view",
      "type": "function"
    },
    {
      "inputs": [
        {
          "internalType": "address",
          "name": "spender",
          "type": "address"
        },
        {
          "internalType": "uint256",
          "name": "amount",
          "type": "uint256"
        }
      ],
      "name": "approve",
      "outputs": [
        {
          "internalType": "bool",
          "name": "",
          "type": "bool"
        }
      ],
      "stateMutability": "nonpayable",
      "type": "function"
    },
    {
      "inputs": [
        {
          "internalType": "address",
          "name": "account",
          "type": "address"
        }
      ],
      "name": "balanceOf",
      "outputs": [
        {
          "internalType": "uint256",
          "name": "",
          "type": "uint256"
        }
      ],
      "stateMutability": "view",
      "type": "function"
    },
    {
      "inputs": [
        {
          "internalType": "address",
          "name": "_user",
          "type": "address"
        }
      ],
      "name": "calculateYield",
      "outputs": [
        {
          "internalType": "uint256",
          "name": "",
          "type": "uint256"
        }
      ],
      "stateMutability": "view",
      "type": "function"
    },
    {
      "inputs": [
        {
          "internalType": "address",
          "name": "_user",
          "type": "address"
        }
      ],
      "name": "claimYield",
      "outputs": [],
      "stateMutability": "nonpayable",
      "type": "function"
    },
    {
      "inputs": [],
      "name": "decimals",
      "outputs": [
        {
          "internalType": "uint8",
          "name": "",
          "type": "uint8"
        }
      ],
      "stateMutability": "view",
      "type": "function"
    },
    {
      "inputs": [
        {
          "internalType": "address",
          "name": "spender",
          "type": "address"
        },
        {
          "internalType": "uint256",
          "name": "subtractedValue",
          "type": "uint256"
        }
      ],
      "name": "decreaseAllowance",
      "outputs": [
        {
          "internalType": "bool",
          "name": "",
          "type": "bool"
        }
      ],
      "stateMutability": "nonpayable",
      "type": "function"
    },
    {
      "inputs": [
        {
          "internalType": "address",
          "name": "spender",
          "type": "address"
        },
        {
          "internalType": "uint256",
          "name": "addedValue",
          "type": "uint256"
        }
      ],
      "name": "increaseAllowance",
      "outputs": [
        {
          "internalType": "bool",
          "name": "",
          "type": "bool"
        }
      ],
      "stateMutability": "nonpayable",
      "type": "function"
    },
    {
      "inputs": [
        {
          "internalType": "address",
          "name": "",
          "type": "address"
        }
      ],
      "name": "isStaking",
      "outputs": [
        {
          "internalType": "bool",
          "name": "",
          "type": "bool"
        }
      ],
      "stateMutability": "view",
      "type": "function"
    },
    {
      "inputs": [],
      "name": "name",
      "outputs": [
        {
          "internalType": "string",
          "name": "",
          "type": "string"
        }
      ],
      "stateMutability": "view",
      "type": "function"
    },
    {
      "inputs": [],
      "name": "owner",
      "outputs": [
        {
          "internalType": "address",
          "name": "",
          "type": "address"
        }
      ],
      "stateMutability": "view",
      "type": "function"
    },
    {
      "inputs": [],
      "name": "renounceOwnership",
      "outputs": [],
      "stateMutability": "nonpayable",
      "type": "function"
    },
    {
      "inputs": [],
      "name": "returnTrinketAddr",
      "outputs": [
        {
          "internalType": "address",
          "name": "",
          "type": "address"
        }
      ],
      "stateMutability": "view",
      "type": "function"
    },
    {
      "inputs": [
        {
          "internalType": "uint256",
          "name": "_amount",
          "type": "uint256"
        }
      ],
      "name": "setDailyMaxTotalYield",
      "outputs": [],
      "stateMutability": "nonpayable",
      "type": "function"
    },
    {
      "inputs": [
        {
          "internalType": "address",
          "name": "_trinket",
          "type": "address"
        }
      ],
      "name": "setTrinketAddr",
      "outputs": [],
      "stateMutability": "nonpayable",
      "type": "function"
    },
    {
      "inputs": [
        {
          "internalType": "uint256",
          "name": "_factor",
          "type": "uint256"
        }
      ],
      "name": "setYieldFactor",
      "outputs": [],
      "stateMutability": "nonpayable",
      "type": "function"
    },
    {
      "inputs": [
        {
          "internalType": "uint256",
          "name": "_amount",
          "type": "uint256"
        }
      ],
      "name": "stake",
      "outputs": [],
      "stateMutability": "nonpayable",
      "type": "function"
    },
    {
      "inputs": [
        {
          "internalType": "address",
          "name": "_user",
          "type": "address"
        }
      ],
      "name": "stakeTime",
      "outputs": [
        {
          "internalType": "uint256",
          "name": "",
          "type": "uint256"
        }
      ],
      "stateMutability": "view",
      "type": "function"
    },
    {
      "inputs": [
        {
          "internalType": "address",
          "name": "",
          "type": "address"
        }
      ],
      "name": "stakingBalance",
      "outputs": [
        {
          "internalType": "uint256",
          "name": "",
          "type": "uint256"
        }
      ],
      "stateMutability": "view",
      "type": "function"
    },
    {
      "inputs": [
        {
          "internalType": "address",
          "name": "",
          "type": "address"
        }
      ],
      "name": "startTime",
      "outputs": [
        {
          "internalType": "uint256",
          "name": "",
          "type": "uint256"
        }
      ],
      "stateMutability": "view",
      "type": "function"
    },
    {
      "inputs": [],
      "name": "symbol",
      "outputs": [
        {
          "internalType": "string",
          "name": "",
          "type": "string"
        }
      ],
      "stateMutability": "view",
      "type": "function"
    },
    {
      "inputs": [],
      "name": "totalSupply",
      "outputs": [
        {
          "internalType": "uint256",
          "name": "",
          "type": "uint256"
        }
      ],
      "stateMutability": "view",
      "type": "function"
    },
    {
      "inputs": [
        {
          "internalType": "address",
          "name": "recipient",
          "type": "address"
        },
        {
          "internalType": "uint256",
          "name": "amount",
          "type": "uint256"
        }
      ],
      "name": "transfer",
      "outputs": [
        {
          "internalType": "bool",
          "name": "",
          "type": "bool"
        }
      ],
      "stateMutability": "nonpayable",
      "type": "function"
    },
    {
      "inputs": [
        {
          "internalType": "address",
          "name": "sender",
          "type": "address"
        },
        {
          "internalType": "address",
          "name": "recipient",
          "type": "address"
        },
        {
          "internalType": "uint256",
          "name": "amount",
          "type": "uint256"
        }
      ],
      "name": "transferFrom",
      "outputs": [
        {
          "internalType": "bool",
          "name": "",
          "type": "bool"
        }
      ],
      "stateMutability": "nonpayable",
      "type": "function"
    },
    {
      "inputs": [
        {
          "internalType": "address",
          "name": "newOwner",
          "type": "address"
        }
      ],
      "name": "transferOwnership",
      "outputs": [],
      "stateMutability": "nonpayable",
      "type": "function"
    },
    {
      "inputs": [
        {
          "internalType": "uint256",
          "name": "_amount",
          "type": "uint256"
        }
      ],
      "name": "unstake",
      "outputs": [],
      "stateMutability": "nonpayable",
      "type": "function"
    },
    {
      "inputs": [
        {
          "internalType": "address",
          "name": "_address",
          "type": "address"
        }
      ],
      "name": "userStakingBalance",
      "outputs": [
        {
          "internalType": "uint256",
          "name": "",
          "type": "uint256"
        }
      ],
      "stateMutability": "view",
      "type": "function"
    }
  ],
  "bytecode": "0x60806040523480156200001157600080fd5b50604051620030fa380380620030fa833981810160405281019062000037919062000460565b6040518060400160405280601281526020017f54617374792053657765722054726561747300000000000000000000000000008152506040518060400160405280600781526020017f4e4942424c455300000000000000000000000000000000000000000000000000815250620000c3620000b76200012160201b60201c565b6200012960201b60201c565b8160049080519060200190620000db92919062000382565b508060059080519060200190620000f492919062000382565b5050506200010882620001ed60201b60201c565b6200011981620002c060201b60201c565b5050620005fb565b600033905090565b60008060009054906101000a900473ffffffffffffffffffffffffffffffffffffffff169050816000806101000a81548173ffffffffffffffffffffffffffffffffffffffff021916908373ffffffffffffffffffffffffffffffffffffffff1602179055508173ffffffffffffffffffffffffffffffffffffffff168173ffffffffffffffffffffffffffffffffffffffff167f8be0079c531659141344cd1fd0a4f28419497f9722a3daafe3b4186f6b6457e060405160405180910390a35050565b620001fd6200012160201b60201c565b73ffffffffffffffffffffffffffffffffffffffff16620002236200035960201b60201c565b73ffffffffffffffffffffffffffffffffffffffff16146200027c576040517f08c379a00000000000000000000000000000000000000000000000000000000081526004016200027390620004c8565b60405180910390fd5b80600660006101000a81548173ffffffffffffffffffffffffffffffffffffffff021916908373ffffffffffffffffffffffffffffffffffffffff16021790555050565b620002d06200012160201b60201c565b73ffffffffffffffffffffffffffffffffffffffff16620002f66200035960201b60201c565b73ffffffffffffffffffffffffffffffffffffffff16146200034f576040517f08c379a00000000000000000000000000000000000000000000000000000000081526004016200034690620004c8565b60405180910390fd5b8060078190555050565b60008060009054906101000a900473ffffffffffffffffffffffffffffffffffffffff16905090565b828054620003909062000539565b90600052602060002090601f016020900481019282620003b4576000855562000400565b82601f10620003cf57805160ff191683800117855562000400565b8280016001018555821562000400579182015b82811115620003ff578251825591602001919060010190620003e2565b5b5090506200040f919062000413565b5090565b5b808211156200042e57600081600090555060010162000414565b5090565b6000815190506200044381620005c7565b92915050565b6000815190506200045a81620005e1565b92915050565b600080604083850312156200047457600080fd5b6000620004848582860162000432565b9250506020620004978582860162000449565b9150509250929050565b6000620004b0602083620004ea565b9150620004bd826200059e565b602082019050919050565b60006020820190508181036000830152620004e381620004a1565b9050919050565b600082825260208201905092915050565b600062000508826200050f565b9050919050565b600073ffffffffffffffffffffffffffffffffffffffff82169050919050565b6000819050919050565b600060028204905060018216806200055257607f821691505b602082108114156200056957620005686200056f565b5b50919050565b7f4e487b7100000000000000000000000000000000000000000000000000000000600052602260045260246000fd5b7f4f776e61626c653a2063616c6c6572206973206e6f7420746865206f776e6572600082015250565b620005d281620004fb565b8114620005de57600080fd5b50565b620005ec816200052f565b8114620005f857600080fd5b50565b612aef806200060b6000396000f3fe608060405234801561001057600080fd5b50600436106101a95760003560e01c806370a08231116100f9578063a457c2d711610097578063d0a74a7711610071578063d0a74a771461051a578063dd62ed3e14610536578063f26d573514610566578063f2fde38b14610584576101a9565b8063a457c2d71461049e578063a694fc3a146104ce578063a9059cbb146104ea576101a9565b806395d89b41116100d357806395d89b4114610418578063966d13ee1461043657806398cadba314610466578063999927df14610482576101a9565b806370a08231146103c0578063715018a6146103f05780638da5cb5b146103fa576101a9565b8063313ce56711610166578063567add6411610140578063567add64146103145780635fd59b6f146103445780636e1dc66e146103605780636f49712b14610390576101a9565b8063313ce5671461029657806339509351146102b457806345bc78ab146102e4576101a9565b806306fdde03146101ae578063095ea7b3146101cc57806318160ddd146101fc5780632170e4721461021a57806323b872dd1461024a5780632e17de781461027a575b600080fd5b6101b66105a0565b6040516101c3919061223f565b60405180910390f35b6101e660048036038101906101e19190611ebc565b610632565b6040516101f39190612224565b60405180910390f35b610204610650565b6040516102119190612421565b60405180910390f35b610234600480360381019061022f9190611e08565b61065a565b6040516102419190612421565b60405180910390f35b610264600480360381019061025f9190611e6d565b6106c5565b6040516102719190612224565b60405180910390f35b610294600480360381019061028f9190611f21565b6107bd565b005b61029e610b85565b6040516102ab919061243c565b60405180910390f35b6102ce60048036038101906102c99190611ebc565b610b8e565b6040516102db9190612224565b60405180910390f35b6102fe60048036038101906102f99190611e08565b610c3a565b60405161030b9190612421565b60405180910390f35b61032e60048036038101906103299190611e08565b610c52565b60405161033b9190612421565b60405180910390f35b61035e60048036038101906103599190611e08565b610cd2565b005b61037a60048036038101906103759190611e08565b610d92565b6040516103879190612421565b60405180910390f35b6103aa60048036038101906103a59190611e08565b610daa565b6040516103b79190612224565b60405180910390f35b6103da60048036038101906103d59190611e08565b610dca565b6040516103e79190612421565b60405180910390f35b6103f8610e13565b005b610402610e9b565b60405161040f91906121a9565b60405180910390f35b610420610ec4565b60405161042d919061223f565b60405180910390f35b610450600480360381019061044b9190611e08565b610f56565b60405161045d9190612421565b60405180910390f35b610480600480360381019061047b9190611f21565b610f9f565b005b61049c60048036038101906104979190611e08565b611025565b005b6104b860048036038101906104b39190611ebc565b611183565b6040516104c59190612224565b60405180910390f35b6104e860048036038101906104e39190611f21565b61126e565b005b61050460048036038101906104ff9190611ebc565b6114f6565b6040516105119190612224565b60405180910390f35b610534600480360381019061052f9190611f21565b611514565b005b610550600480360381019061054b9190611e31565b61159a565b60405161055d9190612421565b60405180910390f35b61056e611621565b60405161057b91906121a9565b60405180910390f35b61059e60048036038101906105999190611e08565b61164b565b005b6060600480546105af90612610565b80601f01602080910402602001604051908101604052809291908181526020018280546105db90612610565b80156106285780601f106105fd57610100808354040283529160200191610628565b820191906000526020600020905b81548152906001019060200180831161060b57829003601f168201915b5050505050905090565b600061064661063f611743565b848461174b565b6001905092915050565b6000600354905090565b6000804290506000600b60008573ffffffffffffffffffffffffffffffffffffffff1673ffffffffffffffffffffffffffffffffffffffff168152602001908152602001600020549050603c81836106b29190612554565b6106bc91906124c9565b92505050919050565b60006106d2848484611916565b6000600260008673ffffffffffffffffffffffffffffffffffffffff1673ffffffffffffffffffffffffffffffffffffffff168152602001908152602001600020600061071d611743565b73ffffffffffffffffffffffffffffffffffffffff1673ffffffffffffffffffffffffffffffffffffffff1681526020019081526020016000205490508281101561079d576040517f08c379a000000000000000000000000000000000000000000000000000000000815260040161079490612341565b60405180910390fd5b6107b1856107a9611743565b85840361174b565b60019150509392505050565b6001600a60003373ffffffffffffffffffffffffffffffffffffffff1673ffffffffffffffffffffffffffffffffffffffff16815260200190815260200160002060006101000a81548160ff0219169083151502179055610853576040517f08c379a000000000000000000000000000000000000000000000000000000000815260040161084a906123c1565b60405180910390fd5b6000600960003373ffffffffffffffffffffffffffffffffffffffff1673ffffffffffffffffffffffffffffffffffffffff16815260200190815260200160002054116108d5576040517f08c379a00000000000000000000000000000000000000000000000000000000081526004016108cc90612321565b60405180910390fd5b600960003373ffffffffffffffffffffffffffffffffffffffff1673ffffffffffffffffffffffffffffffffffffffff16815260200190815260200160002054811115610957576040517f08c379a000000000000000000000000000000000000000000000000000000000815260040161094e90612301565b60405180910390fd5b61096033611025565b80600960003373ffffffffffffffffffffffffffffffffffffffff1673ffffffffffffffffffffffffffffffffffffffff168152602001908152602001600020546109ab9190612554565b600960003373ffffffffffffffffffffffffffffffffffffffff1673ffffffffffffffffffffffffffffffffffffffff16815260200190815260200160002081905550600660009054906101000a900473ffffffffffffffffffffffffffffffffffffffff1673ffffffffffffffffffffffffffffffffffffffff1663a9059cbb33836040518363ffffffff1660e01b8152600401610a4b9291906121fb565b602060405180830381600087803b158015610a6557600080fd5b505af1158015610a79573d6000803e3d6000fd5b505050506040513d601f19601f82011682018060405250810190610a9d9190611ef8565b506000600960003373ffffffffffffffffffffffffffffffffffffffff1673ffffffffffffffffffffffffffffffffffffffff168152602001908152602001600020541415610b3f576000600a60003373ffffffffffffffffffffffffffffffffffffffff1673ffffffffffffffffffffffffffffffffffffffff16815260200190815260200160002060006101000a81548160ff0219169083151502179055505b3373ffffffffffffffffffffffffffffffffffffffff167f908e667f6c2b13b8062954eb100253ea804c21222b190449e40d967a3ac0ff1360405160405180910390a250565b60006012905090565b6000610c30610b9b611743565b848460026000610ba9611743565b73ffffffffffffffffffffffffffffffffffffffff1673ffffffffffffffffffffffffffffffffffffffff16815260200190815260200160002060008873ffffffffffffffffffffffffffffffffffffffff1673ffffffffffffffffffffffffffffffffffffffff16815260200190815260200160002054610c2b9190612473565b61174b565b6001905092915050565b60096020528060005260406000206000915090505481565b600080610c5e8361065a565b905060006064600754600960008773ffffffffffffffffffffffffffffffffffffffff1673ffffffffffffffffffffffffffffffffffffffff1681526020019081526020016000205484610cb291906124fa565b610cbc91906124fa565b610cc691906124c9565b90508092505050919050565b610cda611743565b73ffffffffffffffffffffffffffffffffffffffff16610cf8610e9b565b73ffffffffffffffffffffffffffffffffffffffff1614610d4e576040517f08c379a0000000000000000000000000000000000000000000000000000000008152600401610d4590612361565b60405180910390fd5b80600660006101000a81548173ffffffffffffffffffffffffffffffffffffffff021916908373ffffffffffffffffffffffffffffffffffffffff16021790555050565b600b6020528060005260406000206000915090505481565b600a6020528060005260406000206000915054906101000a900460ff1681565b6000600160008373ffffffffffffffffffffffffffffffffffffffff1673ffffffffffffffffffffffffffffffffffffffff168152602001908152602001600020549050919050565b610e1b611743565b73ffffffffffffffffffffffffffffffffffffffff16610e39610e9b565b73ffffffffffffffffffffffffffffffffffffffff1614610e8f576040517f08c379a0000000000000000000000000000000000000000000000000000000008152600401610e8690612361565b60405180910390fd5b610e996000611b9a565b565b60008060009054906101000a900473ffffffffffffffffffffffffffffffffffffffff16905090565b606060058054610ed390612610565b80601f0160208091040260200160405190810160405280929190818152602001828054610eff90612610565b8015610f4c5780601f10610f2157610100808354040283529160200191610f4c565b820191906000526020600020905b815481529060010190602001808311610f2f57829003601f168201915b5050505050905090565b6000600960008373ffffffffffffffffffffffffffffffffffffffff1673ffffffffffffffffffffffffffffffffffffffff168152602001908152602001600020549050919050565b610fa7611743565b73ffffffffffffffffffffffffffffffffffffffff16610fc5610e9b565b73ffffffffffffffffffffffffffffffffffffffff161461101b576040517f08c379a000000000000000000000000000000000000000000000000000000000815260040161101290612361565b60405180910390fd5b8060088190555050565b60011515600a60008373ffffffffffffffffffffffffffffffffffffffff1673ffffffffffffffffffffffffffffffffffffffff16815260200190815260200160002060009054906101000a900460ff16151514806110c3575042600b60008373ffffffffffffffffffffffffffffffffffffffff1673ffffffffffffffffffffffffffffffffffffffff1681526020019081526020016000205414155b6110cc57600080fd5b60006110d782610c52565b9050600081111561117f576110ec8282611c5e565b42600b60008473ffffffffffffffffffffffffffffffffffffffff1673ffffffffffffffffffffffffffffffffffffffff168152602001908152602001600020819055508173ffffffffffffffffffffffffffffffffffffffff167f13ec0e835fc654527e9b9d3b1bba8471b70b7eaaeecccca9d88c831bddc094ea826040516111769190612421565b60405180910390a25b5050565b60008060026000611192611743565b73ffffffffffffffffffffffffffffffffffffffff1673ffffffffffffffffffffffffffffffffffffffff16815260200190815260200160002060008573ffffffffffffffffffffffffffffffffffffffff1673ffffffffffffffffffffffffffffffffffffffff1681526020019081526020016000205490508281101561124f576040517f08c379a0000000000000000000000000000000000000000000000000000000008152600401611246906123e1565b60405180910390fd5b61126361125a611743565b8585840361174b565b600191505092915050565b600081116112b1576040517f08c379a00000000000000000000000000000000000000000000000000000000081526004016112a8906122e1565b60405180910390fd5b600660009054906101000a900473ffffffffffffffffffffffffffffffffffffffff1673ffffffffffffffffffffffffffffffffffffffff166323b872dd3330846040518463ffffffff1660e01b8152600401611310939291906121c4565b602060405180830381600087803b15801561132a57600080fd5b505af115801561133e573d6000803e3d6000fd5b505050506040513d601f19601f820116820180604052508101906113629190611ef8565b506001600a60003373ffffffffffffffffffffffffffffffffffffffff1673ffffffffffffffffffffffffffffffffffffffff16815260200190815260200160002060006101000a81548160ff0219169083151502179055156113c9576113c833611025565b5b600960003373ffffffffffffffffffffffffffffffffffffffff1673ffffffffffffffffffffffffffffffffffffffff16815260200190815260200160002054816114149190612473565b600960003373ffffffffffffffffffffffffffffffffffffffff1673ffffffffffffffffffffffffffffffffffffffff168152602001908152602001600020819055506001600a60003373ffffffffffffffffffffffffffffffffffffffff1673ffffffffffffffffffffffffffffffffffffffff16815260200190815260200160002060006101000a81548160ff02191690831515021790555042600b60003373ffffffffffffffffffffffffffffffffffffffff1673ffffffffffffffffffffffffffffffffffffffff1681526020019081526020016000208190555050565b600061150a611503611743565b8484611916565b6001905092915050565b61151c611743565b73ffffffffffffffffffffffffffffffffffffffff1661153a610e9b565b73ffffffffffffffffffffffffffffffffffffffff1614611590576040517f08c379a000000000000000000000000000000000000000000000000000000000815260040161158790612361565b60405180910390fd5b8060078190555050565b6000600260008473ffffffffffffffffffffffffffffffffffffffff1673ffffffffffffffffffffffffffffffffffffffff16815260200190815260200160002060008373ffffffffffffffffffffffffffffffffffffffff1673ffffffffffffffffffffffffffffffffffffffff16815260200190815260200160002054905092915050565b6000600660009054906101000a900473ffffffffffffffffffffffffffffffffffffffff16905090565b611653611743565b73ffffffffffffffffffffffffffffffffffffffff16611671610e9b565b73ffffffffffffffffffffffffffffffffffffffff16146116c7576040517f08c379a00000000000000000000000000000000000000000000000000000000081526004016116be90612361565b60405180910390fd5b600073ffffffffffffffffffffffffffffffffffffffff168173ffffffffffffffffffffffffffffffffffffffff161415611737576040517f08c379a000000000000000000000000000000000000000000000000000000000815260040161172e90612281565b60405180910390fd5b61174081611b9a565b50565b600033905090565b600073ffffffffffffffffffffffffffffffffffffffff168373ffffffffffffffffffffffffffffffffffffffff1614156117bb576040517f08c379a00000000000000000000000000000000000000000000000000000000081526004016117b2906123a1565b60405180910390fd5b600073ffffffffffffffffffffffffffffffffffffffff168273ffffffffffffffffffffffffffffffffffffffff16141561182b576040517f08c379a0000000000000000000000000000000000000000000000000000000008152600401611822906122a1565b60405180910390fd5b80600260008573ffffffffffffffffffffffffffffffffffffffff1673ffffffffffffffffffffffffffffffffffffffff16815260200190815260200160002060008473ffffffffffffffffffffffffffffffffffffffff1673ffffffffffffffffffffffffffffffffffffffff168152602001908152602001600020819055508173ffffffffffffffffffffffffffffffffffffffff168373ffffffffffffffffffffffffffffffffffffffff167f8c5be1e5ebec7d5bd14f71427d1e84f3dd0314c0f7b2291e5b200ac8c7c3b925836040516119099190612421565b60405180910390a3505050565b600073ffffffffffffffffffffffffffffffffffffffff168373ffffffffffffffffffffffffffffffffffffffff161415611986576040517f08c379a000000000000000000000000000000000000000000000000000000000815260040161197d90612381565b60405180910390fd5b600073ffffffffffffffffffffffffffffffffffffffff168273ffffffffffffffffffffffffffffffffffffffff1614156119f6576040517f08c379a00000000000000000000000000000000000000000000000000000000081526004016119ed90612261565b60405180910390fd5b611a01838383611dbf565b6000600160008573ffffffffffffffffffffffffffffffffffffffff1673ffffffffffffffffffffffffffffffffffffffff16815260200190815260200160002054905081811015611a88576040517f08c379a0000000000000000000000000000000000000000000000000000000008152600401611a7f906122c1565b60405180910390fd5b818103600160008673ffffffffffffffffffffffffffffffffffffffff1673ffffffffffffffffffffffffffffffffffffffff1681526020019081526020016000208190555081600160008573ffffffffffffffffffffffffffffffffffffffff1673ffffffffffffffffffffffffffffffffffffffff1681526020019081526020016000206000828254611b1d9190612473565b925050819055508273ffffffffffffffffffffffffffffffffffffffff168473ffffffffffffffffffffffffffffffffffffffff167fddf252ad1be2c89b69c2b068fc378daa952ba7f163c4a11628f55a4df523b3ef84604051611b819190612421565b60405180910390a3611b94848484611dc4565b50505050565b60008060009054906101000a900473ffffffffffffffffffffffffffffffffffffffff169050816000806101000a81548173ffffffffffffffffffffffffffffffffffffffff021916908373ffffffffffffffffffffffffffffffffffffffff1602179055508173ffffffffffffffffffffffffffffffffffffffff168173ffffffffffffffffffffffffffffffffffffffff167f8be0079c531659141344cd1fd0a4f28419497f9722a3daafe3b4186f6b6457e060405160405180910390a35050565b600073ffffffffffffffffffffffffffffffffffffffff168273ffffffffffffffffffffffffffffffffffffffff161415611cce576040517f08c379a0000000000000000000000000000000000000000000000000000000008152600401611cc590612401565b60405180910390fd5b611cda60008383611dbf565b8060036000828254611cec9190612473565b9250508190555080600160008473ffffffffffffffffffffffffffffffffffffffff1673ffffffffffffffffffffffffffffffffffffffff1681526020019081526020016000206000828254611d429190612473565b925050819055508173ffffffffffffffffffffffffffffffffffffffff16600073ffffffffffffffffffffffffffffffffffffffff167fddf252ad1be2c89b69c2b068fc378daa952ba7f163c4a11628f55a4df523b3ef83604051611da79190612421565b60405180910390a3611dbb60008383611dc4565b5050565b505050565b505050565b600081359050611dd881612a74565b92915050565b600081519050611ded81612a8b565b92915050565b600081359050611e0281612aa2565b92915050565b600060208284031215611e1a57600080fd5b6000611e2884828501611dc9565b91505092915050565b60008060408385031215611e4457600080fd5b6000611e5285828601611dc9565b9250506020611e6385828601611dc9565b9150509250929050565b600080600060608486031215611e8257600080fd5b6000611e9086828701611dc9565b9350506020611ea186828701611dc9565b9250506040611eb286828701611df3565b9150509250925092565b60008060408385031215611ecf57600080fd5b6000611edd85828601611dc9565b9250506020611eee85828601611df3565b9150509250929050565b600060208284031215611f0a57600080fd5b6000611f1884828501611dde565b91505092915050565b600060208284031215611f3357600080fd5b6000611f4184828501611df3565b91505092915050565b611f5381612588565b82525050565b611f628161259a565b82525050565b6000611f7382612457565b611f7d8185612462565b9350611f8d8185602086016125dd565b611f96816126cf565b840191505092915050565b6000611fae602383612462565b9150611fb9826126e0565b604082019050919050565b6000611fd1602683612462565b9150611fdc8261272f565b604082019050919050565b6000611ff4602283612462565b9150611fff8261277e565b604082019050919050565b6000612017602683612462565b9150612022826127cd565b604082019050919050565b600061203a601c83612462565b91506120458261281c565b602082019050919050565b600061205d602183612462565b915061206882612845565b604082019050919050565b6000612080601e83612462565b915061208b82612894565b602082019050919050565b60006120a3602883612462565b91506120ae826128bd565b604082019050919050565b60006120c6602083612462565b91506120d18261290c565b602082019050919050565b60006120e9602583612462565b91506120f482612935565b604082019050919050565b600061210c602483612462565b915061211782612984565b604082019050919050565b600061212f601a83612462565b915061213a826129d3565b602082019050919050565b6000612152602583612462565b915061215d826129fc565b604082019050919050565b6000612175601f83612462565b915061218082612a4b565b602082019050919050565b612194816125c6565b82525050565b6121a3816125d0565b82525050565b60006020820190506121be6000830184611f4a565b92915050565b60006060820190506121d96000830186611f4a565b6121e66020830185611f4a565b6121f3604083018461218b565b949350505050565b60006040820190506122106000830185611f4a565b61221d602083018461218b565b9392505050565b60006020820190506122396000830184611f59565b92915050565b600060208201905081810360008301526122598184611f68565b905092915050565b6000602082019050818103600083015261227a81611fa1565b9050919050565b6000602082019050818103600083015261229a81611fc4565b9050919050565b600060208201905081810360008301526122ba81611fe7565b9050919050565b600060208201905081810360008301526122da8161200a565b9050919050565b600060208201905081810360008301526122fa8161202d565b9050919050565b6000602082019050818103600083015261231a81612050565b9050919050565b6000602082019050818103600083015261233a81612073565b9050919050565b6000602082019050818103600083015261235a81612096565b9050919050565b6000602082019050818103600083015261237a816120b9565b9050919050565b6000602082019050818103600083015261239a816120dc565b9050919050565b600060208201905081810360008301526123ba816120ff565b9050919050565b600060208201905081810360008301526123da81612122565b9050919050565b600060208201905081810360008301526123fa81612145565b9050919050565b6000602082019050818103600083015261241a81612168565b9050919050565b6000602082019050612436600083018461218b565b92915050565b6000602082019050612451600083018461219a565b92915050565b600081519050919050565b600082825260208201905092915050565b600061247e826125c6565b9150612489836125c6565b9250827fffffffffffffffffffffffffffffffffffffffffffffffffffffffffffffffff038211156124be576124bd612642565b5b828201905092915050565b60006124d4826125c6565b91506124df836125c6565b9250826124ef576124ee612671565b5b828204905092915050565b6000612505826125c6565b9150612510836125c6565b9250817fffffffffffffffffffffffffffffffffffffffffffffffffffffffffffffffff048311821515161561254957612548612642565b5b828202905092915050565b600061255f826125c6565b915061256a836125c6565b92508282101561257d5761257c612642565b5b828203905092915050565b6000612593826125a6565b9050919050565b60008115159050919050565b600073ffffffffffffffffffffffffffffffffffffffff82169050919050565b6000819050919050565b600060ff82169050919050565b60005b838110156125fb5780820151818401526020810190506125e0565b8381111561260a576000848401525b50505050565b6000600282049050600182168061262857607f821691505b6020821081141561263c5761263b6126a0565b5b50919050565b7f4e487b7100000000000000000000000000000000000000000000000000000000600052601160045260246000fd5b7f4e487b7100000000000000000000000000000000000000000000000000000000600052601260045260246000fd5b7f4e487b7100000000000000000000000000000000000000000000000000000000600052602260045260246000fd5b6000601f19601f8301169050919050565b7f45524332303a207472616e7366657220746f20746865207a65726f206164647260008201527f6573730000000000000000000000000000000000000000000000000000000000602082015250565b7f4f776e61626c653a206e6577206f776e657220697320746865207a65726f206160008201527f6464726573730000000000000000000000000000000000000000000000000000602082015250565b7f45524332303a20617070726f766520746f20746865207a65726f20616464726560008201527f7373000000000000000000000000000000000000000000000000000000000000602082015250565b7f45524332303a207472616e7366657220616d6f756e742065786365656473206260008201527f616c616e63650000000000000000000000000000000000000000000000000000602082015250565b7f596f752063616e6e6f74207374616b65207a65726f20746f6b656e7300000000600082015250565b7f747279696e6720746f20756e7374616b65206d6f7265207468616e207374616b60008201527f6500000000000000000000000000000000000000000000000000000000000000602082015250565b7f596f7520646f206e6f7420686176652066756e647320746f2066657463680000600082015250565b7f45524332303a207472616e7366657220616d6f756e742065786365656473206160008201527f6c6c6f77616e6365000000000000000000000000000000000000000000000000602082015250565b7f4f776e61626c653a2063616c6c6572206973206e6f7420746865206f776e6572600082015250565b7f45524332303a207472616e736665722066726f6d20746865207a65726f20616460008201527f6472657373000000000000000000000000000000000000000000000000000000602082015250565b7f45524332303a20617070726f76652066726f6d20746865207a65726f2061646460008201527f7265737300000000000000000000000000000000000000000000000000000000602082015250565b7f596f7520617265206e6f74207374616b696e6720746f6b656e73000000000000600082015250565b7f45524332303a2064656372656173656420616c6c6f77616e63652062656c6f7760008201527f207a65726f000000000000000000000000000000000000000000000000000000602082015250565b7f45524332303a206d696e7420746f20746865207a65726f206164647265737300600082015250565b612a7d81612588565b8114612a8857600080fd5b50565b612a948161259a565b8114612a9f57600080fd5b50565b612aab816125c6565b8114612ab657600080fd5b5056fea264697066735822122016ce3efefe954693cbdd34bc0cb6694d8dc9a9f312c2557f65eaf56d16cda9ef64736f6c63430008030033",
  "linkReferences": {},
  "deployedLinkReferences": {}
}