{
  "_format": "hh-sol-artifact-1",
  "contractName": "Trinkets",
  "sourceName": "contracts/Trinkets.sol",
  "abi": [
    {
      "inputs": [
        {
          "internalType": "address",
          "name": "_initRatFactoryAddr",
          "type": "address"
        }
      ],
      "stateMutability": "nonpayable",
      "type": "constructor"
    },
    {
      "anonymous": false,
      "inputs": [
        {
          "indexed": true,
          "internalType": "address",
          "name": "owner",
          "type": "address"
        },
        {
          "indexed": true,
          "internalType": "address",
          "name": "spender",
          "type": "address"
        },
        {
          "indexed": false,
          "internalType": "uint256",
          "name": "value",
          "type": "uint256"
        }
      ],
      "name": "Approval",
      "type": "event"
    },
    {
      "anonymous": false,
      "inputs": [
        {
          "indexed": true,
          "internalType": "address",
          "name": "previousOwner",
          "type": "address"
        },
        {
          "indexed": true,
          "internalType": "address",
          "name": "newOwner",
          "type": "address"
        }
      ],
      "name": "OwnershipTransferred",
      "type": "event"
    },
    {
      "anonymous": false,
      "inputs": [
        {
          "indexed": true,
          "internalType": "address",
          "name": "from",
          "type": "address"
        },
        {
          "indexed": true,
          "internalType": "address",
          "name": "to",
          "type": "address"
        },
        {
          "indexed": false,
          "internalType": "uint256",
          "name": "value",
          "type": "uint256"
        }
      ],
      "name": "Transfer",
      "type": "event"
    },
    {
      "anonymous": false,
      "inputs": [
        {
          "indexed": true,
          "internalType": "address",
          "name": "user",
          "type": "address"
        },
        {
          "indexed": false,
          "internalType": "uint256",
          "name": "reward",
          "type": "uint256"
        }
      ],
      "name": "TrinketsSent",
      "type": "event"
    },
    {
      "inputs": [
        {
          "internalType": "address",
          "name": "owner",
          "type": "address"
        },
        {
          "internalType": "address",
          "name": "spender",
          "type": "address"
        }
      ],
      "name": "allowance",
      "outputs": [
        {
          "internalType": "uint256",
          "name": "",
          "type": "uint256"
        }
      ],
      "stateMutability": "view",
      "type": "function"
    },
    {
      "inputs": [
        {
          "internalType": "address",
          "name": "spender",
          "type": "address"
        },
        {
          "internalType": "uint256",
          "name": "amount",
          "type": "uint256"
        }
      ],
      "name": "approve",
      "outputs": [
        {
          "internalType": "bool",
          "name": "",
          "type": "bool"
        }
      ],
      "stateMutability": "nonpayable",
      "type": "function"
    },
    {
      "inputs": [
        {
          "internalType": "address",
          "name": "account",
          "type": "address"
        }
      ],
      "name": "balanceOf",
      "outputs": [
        {
          "internalType": "uint256",
          "name": "",
          "type": "uint256"
        }
      ],
      "stateMutability": "view",
      "type": "function"
    },
    {
      "inputs": [
        {
          "internalType": "address",
          "name": "_from",
          "type": "address"
        },
        {
          "internalType": "uint256",
          "name": "_amount",
          "type": "uint256"
        }
      ],
      "name": "burn",
      "outputs": [],
      "stateMutability": "nonpayable",
      "type": "function"
    },
    {
      "inputs": [
        {
          "internalType": "uint256",
          "name": "_id",
          "type": "uint256"
        }
      ],
      "name": "calculateYield",
      "outputs": [
        {
          "internalType": "uint256",
          "name": "",
          "type": "uint256"
        }
      ],
      "stateMutability": "view",
      "type": "function"
    },
    {
      "inputs": [
        {
          "internalType": "uint256",
          "name": "_id",
          "type": "uint256"
        }
      ],
      "name": "claimTrinkets",
      "outputs": [],
      "stateMutability": "nonpayable",
      "type": "function"
    },
    {
      "inputs": [
        {
          "internalType": "address",
          "name": "_address",
          "type": "address"
        }
      ],
      "name": "claimTrinketsAllRats",
      "outputs": [],
      "stateMutability": "nonpayable",
      "type": "function"
    },
    {
      "inputs": [],
      "name": "decimals",
      "outputs": [
        {
          "internalType": "uint8",
          "name": "",
          "type": "uint8"
        }
      ],
      "stateMutability": "view",
      "type": "function"
    },
    {
      "inputs": [
        {
          "internalType": "address",
          "name": "spender",
          "type": "address"
        },
        {
          "internalType": "uint256",
          "name": "subtractedValue",
          "type": "uint256"
        }
      ],
      "name": "decreaseAllowance",
      "outputs": [
        {
          "internalType": "bool",
          "name": "",
          "type": "bool"
        }
      ],
      "stateMutability": "nonpayable",
      "type": "function"
    },
    {
      "inputs": [
        {
          "internalType": "uint256",
          "name": "_id",
          "type": "uint256"
        }
      ],
      "name": "gatherTime",
      "outputs": [
        {
          "internalType": "uint256",
          "name": "",
          "type": "uint256"
        }
      ],
      "stateMutability": "view",
      "type": "function"
    },
    {
      "inputs": [
        {
          "internalType": "address",
          "name": "spender",
          "type": "address"
        },
        {
          "internalType": "uint256",
          "name": "addedValue",
          "type": "uint256"
        }
      ],
      "name": "increaseAllowance",
      "outputs": [
        {
          "internalType": "bool",
          "name": "",
          "type": "bool"
        }
      ],
      "stateMutability": "nonpayable",
      "type": "function"
    },
    {
      "inputs": [],
      "name": "name",
      "outputs": [
        {
          "internalType": "string",
          "name": "",
          "type": "string"
        }
      ],
      "stateMutability": "view",
      "type": "function"
    },
    {
      "inputs": [],
      "name": "owner",
      "outputs": [
        {
          "internalType": "address",
          "name": "",
          "type": "address"
        }
      ],
      "stateMutability": "view",
      "type": "function"
    },
    {
      "inputs": [],
      "name": "renounceOwnership",
      "outputs": [],
      "stateMutability": "nonpayable",
      "type": "function"
    },
    {
      "inputs": [
        {
          "internalType": "uint256",
          "name": "_mod",
          "type": "uint256"
        }
      ],
      "name": "setMod",
      "outputs": [],
      "stateMutability": "nonpayable",
      "type": "function"
    },
    {
      "inputs": [
        {
          "internalType": "address",
          "name": "_factory",
          "type": "address"
        }
      ],
      "name": "setRatFactoryAddr",
      "outputs": [],
      "stateMutability": "nonpayable",
      "type": "function"
    },
    {
      "inputs": [
        {
          "internalType": "uint256",
          "name": "",
          "type": "uint256"
        }
      ],
      "name": "startTime",
      "outputs": [
        {
          "internalType": "uint256",
          "name": "",
          "type": "uint256"
        }
      ],
      "stateMutability": "view",
      "type": "function"
    },
    {
      "inputs": [],
      "name": "symbol",
      "outputs": [
        {
          "internalType": "string",
          "name": "",
          "type": "string"
        }
      ],
      "stateMutability": "view",
      "type": "function"
    },
    {
      "inputs": [],
      "name": "totalSupply",
      "outputs": [
        {
          "internalType": "uint256",
          "name": "",
          "type": "uint256"
        }
      ],
      "stateMutability": "view",
      "type": "function"
    },
    {
      "inputs": [
        {
          "internalType": "address",
          "name": "_address",
          "type": "address"
        }
      ],
      "name": "totalUnclaimedTrinkets",
      "outputs": [
        {
          "internalType": "uint256",
          "name": "",
          "type": "uint256"
        }
      ],
      "stateMutability": "view",
      "type": "function"
    },
    {
      "inputs": [
        {
          "internalType": "address",
          "name": "recipient",
          "type": "address"
        },
        {
          "internalType": "uint256",
          "name": "amount",
          "type": "uint256"
        }
      ],
      "name": "transfer",
      "outputs": [
        {
          "internalType": "bool",
          "name": "",
          "type": "bool"
        }
      ],
      "stateMutability": "nonpayable",
      "type": "function"
    },
    {
      "inputs": [
        {
          "internalType": "address",
          "name": "sender",
          "type": "address"
        },
        {
          "internalType": "address",
          "name": "recipient",
          "type": "address"
        },
        {
          "internalType": "uint256",
          "name": "amount",
          "type": "uint256"
        }
      ],
      "name": "transferFrom",
      "outputs": [
        {
          "internalType": "bool",
          "name": "",
          "type": "bool"
        }
      ],
      "stateMutability": "nonpayable",
      "type": "function"
    },
    {
      "inputs": [
        {
          "internalType": "address",
          "name": "newOwner",
          "type": "address"
        }
      ],
      "name": "transferOwnership",
      "outputs": [],
      "stateMutability": "nonpayable",
      "type": "function"
    },
    {
      "inputs": [
        {
          "internalType": "uint256",
          "name": "_id",
          "type": "uint256"
        }
      ],
      "name": "updateOnMint",
      "outputs": [],
      "stateMutability": "nonpayable",
      "type": "function"
    }
  ],
  "bytecode": "0x608060405260646006553480156200001657600080fd5b5060405162002e5c38038062002e5c83398181016040528101906200003c9190620003a3565b6040518060400160405280600e81526020017f5365776572205472696e6b6574730000000000000000000000000000000000008152506040518060400160405280600581526020017f5452494e4b000000000000000000000000000000000000000000000000000000815250620000c8620000bc6200011460201b60201c565b6200011c60201b60201c565b8160049080519060200190620000e0929190620002dc565b508060059080519060200190620000f9929190620002dc565b5050506200010d81620001e060201b60201c565b5062000505565b600033905090565b60008060009054906101000a900473ffffffffffffffffffffffffffffffffffffffff169050816000806101000a81548173ffffffffffffffffffffffffffffffffffffffff021916908373ffffffffffffffffffffffffffffffffffffffff1602179055508173ffffffffffffffffffffffffffffffffffffffff168173ffffffffffffffffffffffffffffffffffffffff167f8be0079c531659141344cd1fd0a4f28419497f9722a3daafe3b4186f6b6457e060405160405180910390a35050565b620001f06200011460201b60201c565b73ffffffffffffffffffffffffffffffffffffffff1662000216620002b360201b60201c565b73ffffffffffffffffffffffffffffffffffffffff16146200026f576040517f08c379a00000000000000000000000000000000000000000000000000000000081526004016200026690620003f6565b60405180910390fd5b80600860006101000a81548173ffffffffffffffffffffffffffffffffffffffff021916908373ffffffffffffffffffffffffffffffffffffffff16021790555050565b60008060009054906101000a900473ffffffffffffffffffffffffffffffffffffffff16905090565b828054620002ea906200045d565b90600052602060002090601f0160209004810192826200030e57600085556200035a565b82601f106200032957805160ff19168380011785556200035a565b828001600101855582156200035a579182015b82811115620003595782518255916020019190600101906200033c565b5b5090506200036991906200036d565b5090565b5b80821115620003885760008160009055506001016200036e565b5090565b6000815190506200039d81620004eb565b92915050565b600060208284031215620003b657600080fd5b6000620003c6848285016200038c565b91505092915050565b6000620003de60208362000418565b9150620003eb82620004c2565b602082019050919050565b600060208201905081810360008301526200041181620003cf565b9050919050565b600082825260208201905092915050565b600062000436826200043d565b9050919050565b600073ffffffffffffffffffffffffffffffffffffffff82169050919050565b600060028204905060018216806200047657607f821691505b602082108114156200048d576200048c62000493565b5b50919050565b7f4e487b7100000000000000000000000000000000000000000000000000000000600052602260045260246000fd5b7f4f776e61626c653a2063616c6c6572206973206e6f7420746865206f776e6572600082015250565b620004f68162000429565b81146200050257600080fd5b50565b61294780620005156000396000f3fe608060405234801561001057600080fd5b50600436106101585760003560e01c80638da5cb5b116100c3578063a9b17f0d1161007c578063a9b17f0d14610415578063dab37f3314610431578063dcbcc1ae1461044d578063dd62ed3e14610469578063e88a38df14610499578063f2fde38b146104b557610158565b80638da5cb5b1461034157806395d89b411461035f578063969547851461037d5780639dc29fac14610399578063a457c2d7146103b5578063a9059cbb146103e557610158565b8063395093511161011557806339509351146102475780633ec4c9681461027757806370a08231146102a7578063715018a6146102d757806380a3301b146102e157806386f23a081461031157610158565b806306fdde031461015d578063095ea7b31461017b57806318160ddd146101ab5780631a3629b9146101c957806323b872dd146101f9578063313ce56714610229575b600080fd5b6101656104d1565b6040516101729190612088565b60405180910390f35b61019560048036038101906101909190611d5f565b610563565b6040516101a2919061206d565b60405180910390f35b6101b3610581565b6040516101c0919061224a565b60405180910390f35b6101e360048036038101906101de9190611c82565b61058b565b6040516101f0919061224a565b60405180910390f35b610213600480360381019061020e9190611d10565b610734565b604051610220919061206d565b60405180910390f35b61023161082c565b60405161023e9190612265565b60405180910390f35b610261600480360381019061025c9190611d5f565b610835565b60405161026e919061206d565b60405180910390f35b610291600480360381019061028c9190611d9b565b6108e1565b60405161029e919061224a565b60405180910390f35b6102c160048036038101906102bc9190611c82565b6108f9565b6040516102ce919061224a565b60405180910390f35b6102df610942565b005b6102fb60048036038101906102f69190611d9b565b6109ca565b604051610308919061224a565b60405180910390f35b61032b60048036038101906103269190611d9b565b610aeb565b604051610338919061224a565b60405180910390f35b610349610b1e565b6040516103569190612029565b60405180910390f35b610367610b47565b6040516103749190612088565b60405180910390f35b61039760048036038101906103929190611c82565b610bd9565b005b6103b360048036038101906103ae9190611d5f565b610c99565b005b6103cf60048036038101906103ca9190611d5f565b610d01565b6040516103dc919061206d565b60405180910390f35b6103ff60048036038101906103fa9190611d5f565b610dec565b60405161040c919061206d565b60405180910390f35b61042f600480360381019061042a9190611d9b565b610e0a565b005b61044b60048036038101906104469190611d9b565b610f92565b005b61046760048036038101906104629190611c82565b61103d565b005b610483600480360381019061047e9190611cd4565b6111ca565b604051610490919061224a565b60405180910390f35b6104b360048036038101906104ae9190611d9b565b611251565b005b6104cf60048036038101906104ca9190611c82565b6112d7565b005b6060600480546104e090612439565b80601f016020809104026020016040519081016040528092919081815260200182805461050c90612439565b80156105595780601f1061052e57610100808354040283529160200191610559565b820191906000526020600020905b81548152906001019060200180831161053c57829003601f168201915b5050505050905090565b60006105776105706113cf565b84846113d7565b6001905092915050565b6000600354905090565b6000806000600860009054906101000a900473ffffffffffffffffffffffffffffffffffffffff1673ffffffffffffffffffffffffffffffffffffffff166370a08231856040518263ffffffff1660e01b81526004016105eb9190612029565b60206040518083038186803b15801561060357600080fd5b505afa158015610617573d6000803e3d6000fd5b505050506040513d601f19601f8201168201806040525081019061063b9190611dc4565b905060005b81811015610729576000600860009054906101000a900473ffffffffffffffffffffffffffffffffffffffff1673ffffffffffffffffffffffffffffffffffffffff16632f745c5987846040518363ffffffff1660e01b81526004016106a7929190612044565b60206040518083038186803b1580156106bf57600080fd5b505afa1580156106d3573d6000803e3d6000fd5b505050506040513d601f19601f820116820180604052508101906106f79190611dc4565b90506000610704826109ca565b90508085610712919061229c565b9450505080806107219061246b565b915050610640565b508192505050919050565b60006107418484846115a2565b6000600260008673ffffffffffffffffffffffffffffffffffffffff1673ffffffffffffffffffffffffffffffffffffffff168152602001908152602001600020600061078c6113cf565b73ffffffffffffffffffffffffffffffffffffffff1673ffffffffffffffffffffffffffffffffffffffff1681526020019081526020016000205490508281101561080c576040517f08c379a00000000000000000000000000000000000000000000000000000000081526004016108039061214a565b60405180910390fd5b610820856108186113cf565b8584036113d7565b60019150509392505050565b60006012905090565b60006108d76108426113cf565b8484600260006108506113cf565b73ffffffffffffffffffffffffffffffffffffffff1673ffffffffffffffffffffffffffffffffffffffff16815260200190815260200160002060008873ffffffffffffffffffffffffffffffffffffffff1673ffffffffffffffffffffffffffffffffffffffff168152602001908152602001600020546108d2919061229c565b6113d7565b6001905092915050565b60076020528060005260406000206000915090505481565b6000600160008373ffffffffffffffffffffffffffffffffffffffff1673ffffffffffffffffffffffffffffffffffffffff168152602001908152602001600020549050919050565b61094a6113cf565b73ffffffffffffffffffffffffffffffffffffffff16610968610b1e565b73ffffffffffffffffffffffffffffffffffffffff16146109be576040517f08c379a00000000000000000000000000000000000000000000000000000000081526004016109b59061216a565b60405180910390fd5b6109c86000611826565b565b600080600860009054906101000a900473ffffffffffffffffffffffffffffffffffffffff1673ffffffffffffffffffffffffffffffffffffffff166310d80a55846040518263ffffffff1660e01b8152600401610a28919061224a565b60206040518083038186803b158015610a4057600080fd5b505afa158015610a54573d6000803e3d6000fd5b505050506040513d601f19601f82011682018060405250810190610a789190611dc4565b9050600042905060006064610a8c86610aeb565b610a9691906122f2565b90506000600184610aa7919061237d565b600a610ab3919061229c565b9050600060646006548385610ac89190612323565b610ad29190612323565b610adc91906122f2565b90508095505050505050919050565b6000804290506000600760008581526020019081526020016000205490508082610b15919061237d565b92505050919050565b60008060009054906101000a900473ffffffffffffffffffffffffffffffffffffffff16905090565b606060058054610b5690612439565b80601f0160208091040260200160405190810160405280929190818152602001828054610b8290612439565b8015610bcf5780601f10610ba457610100808354040283529160200191610bcf565b820191906000526020600020905b815481529060010190602001808311610bb257829003601f168201915b5050505050905090565b610be16113cf565b73ffffffffffffffffffffffffffffffffffffffff16610bff610b1e565b73ffffffffffffffffffffffffffffffffffffffff1614610c55576040517f08c379a0000000000000000000000000000000000000000000000000000000008152600401610c4c9061216a565b60405180910390fd5b80600860006101000a81548173ffffffffffffffffffffffffffffffffffffffff021916908373ffffffffffffffffffffffffffffffffffffffff16021790555050565b600860009054906101000a900473ffffffffffffffffffffffffffffffffffffffff1673ffffffffffffffffffffffffffffffffffffffff163373ffffffffffffffffffffffffffffffffffffffff1614610cf357600080fd5b610cfd82826118ea565b5050565b60008060026000610d106113cf565b73ffffffffffffffffffffffffffffffffffffffff1673ffffffffffffffffffffffffffffffffffffffff16815260200190815260200160002060008573ffffffffffffffffffffffffffffffffffffffff1673ffffffffffffffffffffffffffffffffffffffff16815260200190815260200160002054905082811015610dcd576040517f08c379a0000000000000000000000000000000000000000000000000000000008152600401610dc49061220a565b60405180910390fd5b610de1610dd86113cf565b858584036113d7565b600191505092915050565b6000610e00610df96113cf565b84846115a2565b6001905092915050565b600060076000838152602001908152602001600020541415610e4357426007600083815260200190815260200160002081905550610f8f565b6000610e4e826109ca565b90506000600860009054906101000a900473ffffffffffffffffffffffffffffffffffffffff1673ffffffffffffffffffffffffffffffffffffffff16636352211e846040518263ffffffff1660e01b8152600401610ead919061224a565b60206040518083038186803b158015610ec557600080fd5b505afa158015610ed9573d6000803e3d6000fd5b505050506040513d601f19601f82011682018060405250810190610efd9190611cab565b90506000821115610f8c57426007600085815260200190815260200160002081905550610f3d8167016345785d8a000084610f389190612323565b611ac3565b8073ffffffffffffffffffffffffffffffffffffffff167fe1e7c8f49e4667f88ffffa850e61908bbd530dbf29fc9ce9dbcc24afae5dde6c83604051610f83919061224a565b60405180910390a25b50505b50565b600860009054906101000a900473ffffffffffffffffffffffffffffffffffffffff1673ffffffffffffffffffffffffffffffffffffffff163373ffffffffffffffffffffffffffffffffffffffff1614611022576040517f08c379a0000000000000000000000000000000000000000000000000000000008152600401611019906121ea565b60405180910390fd5b42600760008381526020019081526020016000208190555050565b6000600860009054906101000a900473ffffffffffffffffffffffffffffffffffffffff1673ffffffffffffffffffffffffffffffffffffffff166370a08231836040518263ffffffff1660e01b815260040161109a9190612029565b60206040518083038186803b1580156110b257600080fd5b505afa1580156110c6573d6000803e3d6000fd5b505050506040513d601f19601f820116820180604052508101906110ea9190611dc4565b905060005b818110156111c5576000600860009054906101000a900473ffffffffffffffffffffffffffffffffffffffff1673ffffffffffffffffffffffffffffffffffffffff16632f745c5985846040518363ffffffff1660e01b8152600401611156929190612044565b60206040518083038186803b15801561116e57600080fd5b505afa158015611182573d6000803e3d6000fd5b505050506040513d601f19601f820116820180604052508101906111a69190611dc4565b90506111b181610e0a565b5080806111bd9061246b565b9150506110ef565b505050565b6000600260008473ffffffffffffffffffffffffffffffffffffffff1673ffffffffffffffffffffffffffffffffffffffff16815260200190815260200160002060008373ffffffffffffffffffffffffffffffffffffffff1673ffffffffffffffffffffffffffffffffffffffff16815260200190815260200160002054905092915050565b6112596113cf565b73ffffffffffffffffffffffffffffffffffffffff16611277610b1e565b73ffffffffffffffffffffffffffffffffffffffff16146112cd576040517f08c379a00000000000000000000000000000000000000000000000000000000081526004016112c49061216a565b60405180910390fd5b8060068190555050565b6112df6113cf565b73ffffffffffffffffffffffffffffffffffffffff166112fd610b1e565b73ffffffffffffffffffffffffffffffffffffffff1614611353576040517f08c379a000000000000000000000000000000000000000000000000000000000815260040161134a9061216a565b60405180910390fd5b600073ffffffffffffffffffffffffffffffffffffffff168173ffffffffffffffffffffffffffffffffffffffff1614156113c3576040517f08c379a00000000000000000000000000000000000000000000000000000000081526004016113ba906120ea565b60405180910390fd5b6113cc81611826565b50565b600033905090565b600073ffffffffffffffffffffffffffffffffffffffff168373ffffffffffffffffffffffffffffffffffffffff161415611447576040517f08c379a000000000000000000000000000000000000000000000000000000000815260040161143e906121ca565b60405180910390fd5b600073ffffffffffffffffffffffffffffffffffffffff168273ffffffffffffffffffffffffffffffffffffffff1614156114b7576040517f08c379a00000000000000000000000000000000000000000000000000000000081526004016114ae9061210a565b60405180910390fd5b80600260008573ffffffffffffffffffffffffffffffffffffffff1673ffffffffffffffffffffffffffffffffffffffff16815260200190815260200160002060008473ffffffffffffffffffffffffffffffffffffffff1673ffffffffffffffffffffffffffffffffffffffff168152602001908152602001600020819055508173ffffffffffffffffffffffffffffffffffffffff168373ffffffffffffffffffffffffffffffffffffffff167f8c5be1e5ebec7d5bd14f71427d1e84f3dd0314c0f7b2291e5b200ac8c7c3b92583604051611595919061224a565b60405180910390a3505050565b600073ffffffffffffffffffffffffffffffffffffffff168373ffffffffffffffffffffffffffffffffffffffff161415611612576040517f08c379a0000000000000000000000000000000000000000000000000000000008152600401611609906121aa565b60405180910390fd5b600073ffffffffffffffffffffffffffffffffffffffff168273ffffffffffffffffffffffffffffffffffffffff161415611682576040517f08c379a0000000000000000000000000000000000000000000000000000000008152600401611679906120aa565b60405180910390fd5b61168d838383611c24565b6000600160008573ffffffffffffffffffffffffffffffffffffffff1673ffffffffffffffffffffffffffffffffffffffff16815260200190815260200160002054905081811015611714576040517f08c379a000000000000000000000000000000000000000000000000000000000815260040161170b9061212a565b60405180910390fd5b818103600160008673ffffffffffffffffffffffffffffffffffffffff1673ffffffffffffffffffffffffffffffffffffffff1681526020019081526020016000208190555081600160008573ffffffffffffffffffffffffffffffffffffffff1673ffffffffffffffffffffffffffffffffffffffff16815260200190815260200160002060008282546117a9919061229c565b925050819055508273ffffffffffffffffffffffffffffffffffffffff168473ffffffffffffffffffffffffffffffffffffffff167fddf252ad1be2c89b69c2b068fc378daa952ba7f163c4a11628f55a4df523b3ef8460405161180d919061224a565b60405180910390a3611820848484611c29565b50505050565b60008060009054906101000a900473ffffffffffffffffffffffffffffffffffffffff169050816000806101000a81548173ffffffffffffffffffffffffffffffffffffffff021916908373ffffffffffffffffffffffffffffffffffffffff1602179055508173ffffffffffffffffffffffffffffffffffffffff168173ffffffffffffffffffffffffffffffffffffffff167f8be0079c531659141344cd1fd0a4f28419497f9722a3daafe3b4186f6b6457e060405160405180910390a35050565b600073ffffffffffffffffffffffffffffffffffffffff168273ffffffffffffffffffffffffffffffffffffffff16141561195a576040517f08c379a00000000000000000000000000000000000000000000000000000000081526004016119519061218a565b60405180910390fd5b61196682600083611c24565b6000600160008473ffffffffffffffffffffffffffffffffffffffff1673ffffffffffffffffffffffffffffffffffffffff168152602001908152602001600020549050818110156119ed576040517f08c379a00000000000000000000000000000000000000000000000000000000081526004016119e4906120ca565b60405180910390fd5b818103600160008573ffffffffffffffffffffffffffffffffffffffff1673ffffffffffffffffffffffffffffffffffffffff168152602001908152602001600020819055508160036000828254611a45919061237d565b92505081905550600073ffffffffffffffffffffffffffffffffffffffff168373ffffffffffffffffffffffffffffffffffffffff167fddf252ad1be2c89b69c2b068fc378daa952ba7f163c4a11628f55a4df523b3ef84604051611aaa919061224a565b60405180910390a3611abe83600084611c29565b505050565b600073ffffffffffffffffffffffffffffffffffffffff168273ffffffffffffffffffffffffffffffffffffffff161415611b33576040517f08c379a0000000000000000000000000000000000000000000000000000000008152600401611b2a9061222a565b60405180910390fd5b611b3f60008383611c24565b8060036000828254611b51919061229c565b9250508190555080600160008473ffffffffffffffffffffffffffffffffffffffff1673ffffffffffffffffffffffffffffffffffffffff1681526020019081526020016000206000828254611ba7919061229c565b925050819055508173ffffffffffffffffffffffffffffffffffffffff16600073ffffffffffffffffffffffffffffffffffffffff167fddf252ad1be2c89b69c2b068fc378daa952ba7f163c4a11628f55a4df523b3ef83604051611c0c919061224a565b60405180910390a3611c2060008383611c29565b5050565b505050565b505050565b600081359050611c3d816128e3565b92915050565b600081519050611c52816128e3565b92915050565b600081359050611c67816128fa565b92915050565b600081519050611c7c816128fa565b92915050565b600060208284031215611c9457600080fd5b6000611ca284828501611c2e565b91505092915050565b600060208284031215611cbd57600080fd5b6000611ccb84828501611c43565b91505092915050565b60008060408385031215611ce757600080fd5b6000611cf585828601611c2e565b9250506020611d0685828601611c2e565b9150509250929050565b600080600060608486031215611d2557600080fd5b6000611d3386828701611c2e565b9350506020611d4486828701611c2e565b9250506040611d5586828701611c58565b9150509250925092565b60008060408385031215611d7257600080fd5b6000611d8085828601611c2e565b9250506020611d9185828601611c58565b9150509250929050565b600060208284031215611dad57600080fd5b6000611dbb84828501611c58565b91505092915050565b600060208284031215611dd657600080fd5b6000611de484828501611c6d565b91505092915050565b611df6816123b1565b82525050565b611e05816123c3565b82525050565b6000611e1682612280565b611e20818561228b565b9350611e30818560208601612406565b611e3981612541565b840191505092915050565b6000611e5160238361228b565b9150611e5c82612552565b604082019050919050565b6000611e7460228361228b565b9150611e7f826125a1565b604082019050919050565b6000611e9760268361228b565b9150611ea2826125f0565b604082019050919050565b6000611eba60228361228b565b9150611ec58261263f565b604082019050919050565b6000611edd60268361228b565b9150611ee88261268e565b604082019050919050565b6000611f0060288361228b565b9150611f0b826126dd565b604082019050919050565b6000611f2360208361228b565b9150611f2e8261272c565b602082019050919050565b6000611f4660218361228b565b9150611f5182612755565b604082019050919050565b6000611f6960258361228b565b9150611f74826127a4565b604082019050919050565b6000611f8c60248361228b565b9150611f97826127f3565b604082019050919050565b6000611faf600f8361228b565b9150611fba82612842565b602082019050919050565b6000611fd260258361228b565b9150611fdd8261286b565b604082019050919050565b6000611ff5601f8361228b565b9150612000826128ba565b602082019050919050565b612014816123ef565b82525050565b612023816123f9565b82525050565b600060208201905061203e6000830184611ded565b92915050565b60006040820190506120596000830185611ded565b612066602083018461200b565b9392505050565b60006020820190506120826000830184611dfc565b92915050565b600060208201905081810360008301526120a28184611e0b565b905092915050565b600060208201905081810360008301526120c381611e44565b9050919050565b600060208201905081810360008301526120e381611e67565b9050919050565b6000602082019050818103600083015261210381611e8a565b9050919050565b6000602082019050818103600083015261212381611ead565b9050919050565b6000602082019050818103600083015261214381611ed0565b9050919050565b6000602082019050818103600083015261216381611ef3565b9050919050565b6000602082019050818103600083015261218381611f16565b9050919050565b600060208201905081810360008301526121a381611f39565b9050919050565b600060208201905081810360008301526121c381611f5c565b9050919050565b600060208201905081810360008301526121e381611f7f565b9050919050565b6000602082019050818103600083015261220381611fa2565b9050919050565b6000602082019050818103600083015261222381611fc5565b9050919050565b6000602082019050818103600083015261224381611fe8565b9050919050565b600060208201905061225f600083018461200b565b92915050565b600060208201905061227a600083018461201a565b92915050565b600081519050919050565b600082825260208201905092915050565b60006122a7826123ef565b91506122b2836123ef565b9250827fffffffffffffffffffffffffffffffffffffffffffffffffffffffffffffffff038211156122e7576122e66124b4565b5b828201905092915050565b60006122fd826123ef565b9150612308836123ef565b925082612318576123176124e3565b5b828204905092915050565b600061232e826123ef565b9150612339836123ef565b9250817fffffffffffffffffffffffffffffffffffffffffffffffffffffffffffffffff0483118215151615612372576123716124b4565b5b828202905092915050565b6000612388826123ef565b9150612393836123ef565b9250828210156123a6576123a56124b4565b5b828203905092915050565b60006123bc826123cf565b9050919050565b60008115159050919050565b600073ffffffffffffffffffffffffffffffffffffffff82169050919050565b6000819050919050565b600060ff82169050919050565b60005b83811015612424578082015181840152602081019050612409565b83811115612433576000848401525b50505050565b6000600282049050600182168061245157607f821691505b6020821081141561246557612464612512565b5b50919050565b6000612476826123ef565b91507fffffffffffffffffffffffffffffffffffffffffffffffffffffffffffffffff8214156124a9576124a86124b4565b5b600182019050919050565b7f4e487b7100000000000000000000000000000000000000000000000000000000600052601160045260246000fd5b7f4e487b7100000000000000000000000000000000000000000000000000000000600052601260045260246000fd5b7f4e487b7100000000000000000000000000000000000000000000000000000000600052602260045260246000fd5b6000601f19601f8301169050919050565b7f45524332303a207472616e7366657220746f20746865207a65726f206164647260008201527f6573730000000000000000000000000000000000000000000000000000000000602082015250565b7f45524332303a206275726e20616d6f756e7420657863656564732062616c616e60008201527f6365000000000000000000000000000000000000000000000000000000000000602082015250565b7f4f776e61626c653a206e6577206f776e657220697320746865207a65726f206160008201527f6464726573730000000000000000000000000000000000000000000000000000602082015250565b7f45524332303a20617070726f766520746f20746865207a65726f20616464726560008201527f7373000000000000000000000000000000000000000000000000000000000000602082015250565b7f45524332303a207472616e7366657220616d6f756e742065786365656473206260008201527f616c616e63650000000000000000000000000000000000000000000000000000602082015250565b7f45524332303a207472616e7366657220616d6f756e742065786365656473206160008201527f6c6c6f77616e6365000000000000000000000000000000000000000000000000602082015250565b7f4f776e61626c653a2063616c6c6572206973206e6f7420746865206f776e6572600082015250565b7f45524332303a206275726e2066726f6d20746865207a65726f2061646472657360008201527f7300000000000000000000000000000000000000000000000000000000000000602082015250565b7f45524332303a207472616e736665722066726f6d20746865207a65726f20616460008201527f6472657373000000000000000000000000000000000000000000000000000000602082015250565b7f45524332303a20617070726f76652066726f6d20746865207a65726f2061646460008201527f7265737300000000000000000000000000000000000000000000000000000000602082015250565b7f43616e27742063616c6c20746869730000000000000000000000000000000000600082015250565b7f45524332303a2064656372656173656420616c6c6f77616e63652062656c6f7760008201527f207a65726f000000000000000000000000000000000000000000000000000000602082015250565b7f45524332303a206d696e7420746f20746865207a65726f206164647265737300600082015250565b6128ec816123b1565b81146128f757600080fd5b50565b612903816123ef565b811461290e57600080fd5b5056fea2646970667358221220be8c5e45e23305ecc68a3a4e7333033c81f3b8b5cb11affac5a7f6dd4c26c89f64736f6c63430008030033",
  "linkReferences": {},
  "deployedLinkReferences": {}
}