{
  "_format": "hh-sol-artifact-1",
  "contractName": "YieldToken",
  "sourceName": "contracts/trash.sol",
  "abi": [
    {
      "inputs": [],
      "stateMutability": "nonpayable",
      "type": "constructor"
    },
    {
      "anonymous": false,
      "inputs": [
        {
          "indexed": true,
          "internalType": "address",
          "name": "owner",
          "type": "address"
        },
        {
          "indexed": true,
          "internalType": "address",
          "name": "spender",
          "type": "address"
        },
        {
          "indexed": false,
          "internalType": "uint256",
          "name": "value",
          "type": "uint256"
        }
      ],
      "name": "Approval",
      "type": "event"
    },
    {
      "anonymous": false,
      "inputs": [
        {
          "indexed": true,
          "internalType": "address",
          "name": "user",
          "type": "address"
        },
        {
          "indexed": false,
          "internalType": "uint256",
          "name": "reward",
          "type": "uint256"
        }
      ],
      "name": "RewardPaid",
      "type": "event"
    },
    {
      "anonymous": false,
      "inputs": [
        {
          "indexed": true,
          "internalType": "address",
          "name": "from",
          "type": "address"
        },
        {
          "indexed": true,
          "internalType": "address",
          "name": "to",
          "type": "address"
        },
        {
          "indexed": false,
          "internalType": "uint256",
          "name": "value",
          "type": "uint256"
        }
      ],
      "name": "Transfer",
      "type": "event"
    },
    {
      "inputs": [
        {
          "internalType": "address",
          "name": "owner",
          "type": "address"
        },
        {
          "internalType": "address",
          "name": "spender",
          "type": "address"
        }
      ],
      "name": "allowance",
      "outputs": [
        {
          "internalType": "uint256",
          "name": "",
          "type": "uint256"
        }
      ],
      "stateMutability": "view",
      "type": "function"
    },
    {
      "inputs": [
        {
          "internalType": "address",
          "name": "spender",
          "type": "address"
        },
        {
          "internalType": "uint256",
          "name": "amount",
          "type": "uint256"
        }
      ],
      "name": "approve",
      "outputs": [
        {
          "internalType": "bool",
          "name": "",
          "type": "bool"
        }
      ],
      "stateMutability": "nonpayable",
      "type": "function"
    },
    {
      "inputs": [
        {
          "internalType": "address",
          "name": "account",
          "type": "address"
        }
      ],
      "name": "balanceOf",
      "outputs": [
        {
          "internalType": "uint256",
          "name": "",
          "type": "uint256"
        }
      ],
      "stateMutability": "view",
      "type": "function"
    },
    {
      "inputs": [
        {
          "internalType": "address",
          "name": "_from",
          "type": "address"
        },
        {
          "internalType": "uint256",
          "name": "_amount",
          "type": "uint256"
        }
      ],
      "name": "burn",
      "outputs": [],
      "stateMutability": "nonpayable",
      "type": "function"
    },
    {
      "inputs": [
        {
          "internalType": "uint256",
          "name": "_id",
          "type": "uint256"
        }
      ],
      "name": "calculateYield",
      "outputs": [
        {
          "internalType": "uint256",
          "name": "",
          "type": "uint256"
        }
      ],
      "stateMutability": "view",
      "type": "function"
    },
    {
      "inputs": [
        {
          "internalType": "uint256",
          "name": "_id",
          "type": "uint256"
        }
      ],
      "name": "claimTrinkets",
      "outputs": [],
      "stateMutability": "nonpayable",
      "type": "function"
    },
    {
      "inputs": [
        {
          "internalType": "uint256",
          "name": "_id",
          "type": "uint256"
        }
      ],
      "name": "currentRatLevel",
      "outputs": [
        {
          "internalType": "uint256",
          "name": "level",
          "type": "uint256"
        }
      ],
      "stateMutability": "view",
      "type": "function"
    },
    {
      "inputs": [],
      "name": "decimals",
      "outputs": [
        {
          "internalType": "uint8",
          "name": "",
          "type": "uint8"
        }
      ],
      "stateMutability": "view",
      "type": "function"
    },
    {
      "inputs": [
        {
          "internalType": "address",
          "name": "spender",
          "type": "address"
        },
        {
          "internalType": "uint256",
          "name": "subtractedValue",
          "type": "uint256"
        }
      ],
      "name": "decreaseAllowance",
      "outputs": [
        {
          "internalType": "bool",
          "name": "",
          "type": "bool"
        }
      ],
      "stateMutability": "nonpayable",
      "type": "function"
    },
    {
      "inputs": [],
      "name": "dog",
      "outputs": [
        {
          "internalType": "address",
          "name": "",
          "type": "address"
        }
      ],
      "stateMutability": "view",
      "type": "function"
    },
    {
      "inputs": [
        {
          "internalType": "address",
          "name": "spender",
          "type": "address"
        },
        {
          "internalType": "uint256",
          "name": "addedValue",
          "type": "uint256"
        }
      ],
      "name": "increaseAllowance",
      "outputs": [
        {
          "internalType": "bool",
          "name": "",
          "type": "bool"
        }
      ],
      "stateMutability": "nonpayable",
      "type": "function"
    },
    {
      "inputs": [],
      "name": "name",
      "outputs": [
        {
          "internalType": "string",
          "name": "",
          "type": "string"
        }
      ],
      "stateMutability": "view",
      "type": "function"
    },
    {
      "inputs": [
        {
          "internalType": "uint256",
          "name": "_id",
          "type": "uint256"
        }
      ],
      "name": "ratOwner",
      "outputs": [
        {
          "internalType": "address",
          "name": "",
          "type": "address"
        }
      ],
      "stateMutability": "view",
      "type": "function"
    },
    {
      "inputs": [],
      "name": "returnBlock",
      "outputs": [
        {
          "internalType": "uint256",
          "name": "",
          "type": "uint256"
        }
      ],
      "stateMutability": "view",
      "type": "function"
    },
    {
      "inputs": [
        {
          "internalType": "uint256",
          "name": "",
          "type": "uint256"
        }
      ],
      "name": "rewards",
      "outputs": [
        {
          "internalType": "uint256",
          "name": "",
          "type": "uint256"
        }
      ],
      "stateMutability": "view",
      "type": "function"
    },
    {
      "inputs": [
        {
          "internalType": "address",
          "name": "_factory",
          "type": "address"
        }
      ],
      "name": "setRatFactoryAddr",
      "outputs": [],
      "stateMutability": "nonpayable",
      "type": "function"
    },
    {
      "inputs": [
        {
          "internalType": "uint256",
          "name": "_id",
          "type": "uint256"
        }
      ],
      "name": "showStartTime",
      "outputs": [
        {
          "internalType": "uint256",
          "name": "",
          "type": "uint256"
        }
      ],
      "stateMutability": "view",
      "type": "function"
    },
    {
      "inputs": [
        {
          "internalType": "uint256",
          "name": "",
          "type": "uint256"
        }
      ],
      "name": "startTime",
      "outputs": [
        {
          "internalType": "uint256",
          "name": "",
          "type": "uint256"
        }
      ],
      "stateMutability": "view",
      "type": "function"
    },
    {
      "inputs": [],
      "name": "symbol",
      "outputs": [
        {
          "internalType": "string",
          "name": "",
          "type": "string"
        }
      ],
      "stateMutability": "view",
      "type": "function"
    },
    {
      "inputs": [],
      "name": "totalSupply",
      "outputs": [
        {
          "internalType": "uint256",
          "name": "",
          "type": "uint256"
        }
      ],
      "stateMutability": "view",
      "type": "function"
    },
    {
      "inputs": [
        {
          "internalType": "address",
          "name": "recipient",
          "type": "address"
        },
        {
          "internalType": "uint256",
          "name": "amount",
          "type": "uint256"
        }
      ],
      "name": "transfer",
      "outputs": [
        {
          "internalType": "bool",
          "name": "",
          "type": "bool"
        }
      ],
      "stateMutability": "nonpayable",
      "type": "function"
    },
    {
      "inputs": [
        {
          "internalType": "address",
          "name": "sender",
          "type": "address"
        },
        {
          "internalType": "address",
          "name": "recipient",
          "type": "address"
        },
        {
          "internalType": "uint256",
          "name": "amount",
          "type": "uint256"
        }
      ],
      "name": "transferFrom",
      "outputs": [
        {
          "internalType": "bool",
          "name": "",
          "type": "bool"
        }
      ],
      "stateMutability": "nonpayable",
      "type": "function"
    },
    {
      "inputs": [
        {
          "internalType": "uint256",
          "name": "_id",
          "type": "uint256"
        }
      ],
      "name": "updateOnMint",
      "outputs": [],
      "stateMutability": "nonpayable",
      "type": "function"
    }
  ],
  "bytecode": "0x608060405260056006553480156200001657600080fd5b506040518060400160405280600e81526020017f5365776572205472696e6b6574730000000000000000000000000000000000008152506040518060400160405280600581526020017f5452494e4b00000000000000000000000000000000000000000000000000000081525081600390805190602001906200009b929190620000bd565b508060049080519060200190620000b4929190620000bd565b505050620001d2565b828054620000cb906200016d565b90600052602060002090601f016020900481019282620000ef57600085556200013b565b82601f106200010a57805160ff19168380011785556200013b565b828001600101855582156200013b579182015b828111156200013a5782518255916020019190600101906200011d565b5b5090506200014a91906200014e565b5090565b5b80821115620001695760008160009055506001016200014f565b5090565b600060028204905060018216806200018657607f821691505b602082108114156200019d576200019c620001a3565b5b50919050565b7f4e487b7100000000000000000000000000000000000000000000000000000000600052602260045260246000fd5b61201e80620001e26000396000f3fe608060405234801561001057600080fd5b506004361061014d5760003560e01c806395d89b41116100c3578063a95159c21161007c578063a95159c214610400578063a9b17f0d14610430578063c3b3ad7f1461044c578063dab37f331461046a578063dd62ed3e14610486578063f301af42146104b65761014d565b806395d89b411461031a57806396954785146103385780639dc29fac146103545780639ff1c95114610370578063a457c2d7146103a0578063a9059cbb146103d05761014d565b80633920d18b116101155780633920d18b1461020c578063395093511461023c5780633ec4c9681461026c57806370a082311461029c57806380a3301b146102cc578063918d5688146102fc5761014d565b806306fdde0314610152578063095ea7b31461017057806318160ddd146101a057806323b872dd146101be578063313ce567146101ee575b600080fd5b61015a6104e6565b60405161016791906118a9565b60405180910390f35b61018a60048036038101906101859190611612565b610578565b604051610197919061188e565b60405180910390f35b6101a8610596565b6040516101b59190611a0b565b60405180910390f35b6101d860048036038101906101d391906115c3565b6105a0565b6040516101e5919061188e565b60405180910390f35b6101f6610698565b6040516102039190611a26565b60405180910390f35b6102266004803603810190610221919061164e565b6106a1565b6040516102339190611873565b60405180910390f35b61025660048036038101906102519190611612565b61075a565b604051610263919061188e565b60405180910390f35b6102866004803603810190610281919061164e565b610806565b6040516102939190611a0b565b60405180910390f35b6102b660048036038101906102b19190611535565b61081e565b6040516102c39190611a0b565b60405180910390f35b6102e660048036038101906102e1919061164e565b610866565b6040516102f39190611a0b565b60405180910390f35b6103046108fa565b6040516103119190611a0b565b60405180910390f35b610322610907565b60405161032f91906118a9565b60405180910390f35b610352600480360381019061034d9190611535565b610999565b005b61036e60048036038101906103699190611612565b6109dd565b005b61038a6004803603810190610385919061164e565b6109eb565b6040516103979190611a0b565b60405180910390f35b6103ba60048036038101906103b59190611612565b610a0d565b6040516103c7919061188e565b60405180910390f35b6103ea60048036038101906103e59190611612565b610af8565b6040516103f7919061188e565b60405180910390f35b61041a6004803603810190610415919061164e565b610b16565b6040516104279190611a0b565b60405180910390f35b61044a6004803603810190610445919061164e565b610bcf565b005b610454610c68565b6040516104619190611873565b60405180910390f35b610484600480360381019061047f919061164e565b610c92565b005b6104a0600480360381019061049b9190611587565b610cad565b6040516104ad9190611a0b565b60405180910390f35b6104d060048036038101906104cb919061164e565b610d34565b6040516104dd9190611a0b565b60405180910390f35b6060600380546104f590611bfa565b80601f016020809104026020016040519081016040528092919081815260200182805461052190611bfa565b801561056e5780601f106105435761010080835404028352916020019161056e565b820191906000526020600020905b81548152906001019060200180831161055157829003601f168201915b5050505050905090565b600061058c610585610d4c565b8484610d54565b6001905092915050565b6000600254905090565b60006105ad848484610f1f565b6000600160008673ffffffffffffffffffffffffffffffffffffffff1673ffffffffffffffffffffffffffffffffffffffff16815260200190815260200160002060006105f8610d4c565b73ffffffffffffffffffffffffffffffffffffffff1673ffffffffffffffffffffffffffffffffffffffff16815260200190815260200160002054905082811015610678576040517f08c379a000000000000000000000000000000000000000000000000000000000815260040161066f9061194b565b60405180910390fd5b61068c85610684610d4c565b858403610d54565b60019150509392505050565b60006012905090565b600080600560009054906101000a900473ffffffffffffffffffffffffffffffffffffffff1673ffffffffffffffffffffffffffffffffffffffff16636352211e846040518263ffffffff1660e01b81526004016106ff9190611a0b565b60206040518083038186803b15801561071757600080fd5b505afa15801561072b573d6000803e3d6000fd5b505050506040513d601f19601f8201168201806040525081019061074f919061155e565b905080915050919050565b60006107fc610767610d4c565b848460016000610775610d4c565b73ffffffffffffffffffffffffffffffffffffffff1673ffffffffffffffffffffffffffffffffffffffff16815260200190815260200160002060008873ffffffffffffffffffffffffffffffffffffffff1673ffffffffffffffffffffffffffffffffffffffff168152602001908152602001600020546107f79190611a5d565b610d54565b6001905092915050565b60086020528060005260406000206000915090505481565b60008060008373ffffffffffffffffffffffffffffffffffffffff1673ffffffffffffffffffffffffffffffffffffffff168152602001908152602001600020549050919050565b60008061087283610b16565b90506000429050600060086000868152602001908152602001600020548261089a9190611b3e565b90506000600a846108ab9190611ab3565b60016108b79190611a5d565b60646008600089815260200190815260200160002054856108d89190611b3e565b6108e29190611ab3565b6108ec9190611ae4565b905080945050505050919050565b6000804290508091505090565b60606004805461091690611bfa565b80601f016020809104026020016040519081016040528092919081815260200182805461094290611bfa565b801561098f5780601f106109645761010080835404028352916020019161098f565b820191906000526020600020905b81548152906001019060200180831161097257829003601f168201915b5050505050905090565b80600560006101000a81548173ffffffffffffffffffffffffffffffffffffffff021916908373ffffffffffffffffffffffffffffffffffffffff16021790555050565b6109e782826111a0565b5050565b6000806008600084815260200190815260200160002054905080915050919050565b60008060016000610a1c610d4c565b73ffffffffffffffffffffffffffffffffffffffff1673ffffffffffffffffffffffffffffffffffffffff16815260200190815260200160002060008573ffffffffffffffffffffffffffffffffffffffff1673ffffffffffffffffffffffffffffffffffffffff16815260200190815260200160002054905082811015610ad9576040517f08c379a0000000000000000000000000000000000000000000000000000000008152600401610ad0906119cb565b60405180910390fd5b610aed610ae4610d4c565b85858403610d54565b600191505092915050565b6000610b0c610b05610d4c565b8484610f1f565b6001905092915050565b600080600560009054906101000a900473ffffffffffffffffffffffffffffffffffffffff1673ffffffffffffffffffffffffffffffffffffffff166310d80a55846040518263ffffffff1660e01b8152600401610b749190611a0b565b60206040518083038186803b158015610b8c57600080fd5b505afa158015610ba0573d6000803e3d6000fd5b505050506040513d601f19601f82011682018060405250810190610bc49190611677565b905080915050919050565b6000610bda82610866565b90506000610be7836106a1565b90506000821115610c6357426008600085815260200190815260200160002081905550610c148183611377565b8073ffffffffffffffffffffffffffffffffffffffff167fe2403640ba68fed3a2f88b7557551d1993f84b99bb10ff833f0cf8db0c5e048683604051610c5a9190611a0b565b60405180910390a25b505050565b6000600560009054906101000a900473ffffffffffffffffffffffffffffffffffffffff16905090565b42600860008381526020019081526020016000208190555050565b6000600160008473ffffffffffffffffffffffffffffffffffffffff1673ffffffffffffffffffffffffffffffffffffffff16815260200190815260200160002060008373ffffffffffffffffffffffffffffffffffffffff1673ffffffffffffffffffffffffffffffffffffffff16815260200190815260200160002054905092915050565b60076020528060005260406000206000915090505481565b600033905090565b600073ffffffffffffffffffffffffffffffffffffffff168373ffffffffffffffffffffffffffffffffffffffff161415610dc4576040517f08c379a0000000000000000000000000000000000000000000000000000000008152600401610dbb906119ab565b60405180910390fd5b600073ffffffffffffffffffffffffffffffffffffffff168273ffffffffffffffffffffffffffffffffffffffff161415610e34576040517f08c379a0000000000000000000000000000000000000000000000000000000008152600401610e2b9061190b565b60405180910390fd5b80600160008573ffffffffffffffffffffffffffffffffffffffff1673ffffffffffffffffffffffffffffffffffffffff16815260200190815260200160002060008473ffffffffffffffffffffffffffffffffffffffff1673ffffffffffffffffffffffffffffffffffffffff168152602001908152602001600020819055508173ffffffffffffffffffffffffffffffffffffffff168373ffffffffffffffffffffffffffffffffffffffff167f8c5be1e5ebec7d5bd14f71427d1e84f3dd0314c0f7b2291e5b200ac8c7c3b92583604051610f129190611a0b565b60405180910390a3505050565b600073ffffffffffffffffffffffffffffffffffffffff168373ffffffffffffffffffffffffffffffffffffffff161415610f8f576040517f08c379a0000000000000000000000000000000000000000000000000000000008152600401610f869061198b565b60405180910390fd5b600073ffffffffffffffffffffffffffffffffffffffff168273ffffffffffffffffffffffffffffffffffffffff161415610fff576040517f08c379a0000000000000000000000000000000000000000000000000000000008152600401610ff6906118cb565b60405180910390fd5b61100a8383836114d7565b60008060008573ffffffffffffffffffffffffffffffffffffffff1673ffffffffffffffffffffffffffffffffffffffff16815260200190815260200160002054905081811015611090576040517f08c379a00000000000000000000000000000000000000000000000000000000081526004016110879061192b565b60405180910390fd5b8181036000808673ffffffffffffffffffffffffffffffffffffffff1673ffffffffffffffffffffffffffffffffffffffff16815260200190815260200160002081905550816000808573ffffffffffffffffffffffffffffffffffffffff1673ffffffffffffffffffffffffffffffffffffffff16815260200190815260200160002060008282546111239190611a5d565b925050819055508273ffffffffffffffffffffffffffffffffffffffff168473ffffffffffffffffffffffffffffffffffffffff167fddf252ad1be2c89b69c2b068fc378daa952ba7f163c4a11628f55a4df523b3ef846040516111879190611a0b565b60405180910390a361119a8484846114dc565b50505050565b600073ffffffffffffffffffffffffffffffffffffffff168273ffffffffffffffffffffffffffffffffffffffff161415611210576040517f08c379a00000000000000000000000000000000000000000000000000000000081526004016112079061196b565b60405180910390fd5b61121c826000836114d7565b60008060008473ffffffffffffffffffffffffffffffffffffffff1673ffffffffffffffffffffffffffffffffffffffff168152602001908152602001600020549050818110156112a2576040517f08c379a0000000000000000000000000000000000000000000000000000000008152600401611299906118eb565b60405180910390fd5b8181036000808573ffffffffffffffffffffffffffffffffffffffff1673ffffffffffffffffffffffffffffffffffffffff1681526020019081526020016000208190555081600260008282546112f99190611b3e565b92505081905550600073ffffffffffffffffffffffffffffffffffffffff168373ffffffffffffffffffffffffffffffffffffffff167fddf252ad1be2c89b69c2b068fc378daa952ba7f163c4a11628f55a4df523b3ef8460405161135e9190611a0b565b60405180910390a3611372836000846114dc565b505050565b600073ffffffffffffffffffffffffffffffffffffffff168273ffffffffffffffffffffffffffffffffffffffff1614156113e7576040517f08c379a00000000000000000000000000000000000000000000000000000000081526004016113de906119eb565b60405180910390fd5b6113f3600083836114d7565b80600260008282546114059190611a5d565b92505081905550806000808473ffffffffffffffffffffffffffffffffffffffff1673ffffffffffffffffffffffffffffffffffffffff168152602001908152602001600020600082825461145a9190611a5d565b925050819055508173ffffffffffffffffffffffffffffffffffffffff16600073ffffffffffffffffffffffffffffffffffffffff167fddf252ad1be2c89b69c2b068fc378daa952ba7f163c4a11628f55a4df523b3ef836040516114bf9190611a0b565b60405180910390a36114d3600083836114dc565b5050565b505050565b505050565b6000813590506114f081611fba565b92915050565b60008151905061150581611fba565b92915050565b60008135905061151a81611fd1565b92915050565b60008151905061152f81611fd1565b92915050565b60006020828403121561154757600080fd5b6000611555848285016114e1565b91505092915050565b60006020828403121561157057600080fd5b600061157e848285016114f6565b91505092915050565b6000806040838503121561159a57600080fd5b60006115a8858286016114e1565b92505060206115b9858286016114e1565b9150509250929050565b6000806000606084860312156115d857600080fd5b60006115e6868287016114e1565b93505060206115f7868287016114e1565b92505060406116088682870161150b565b9150509250925092565b6000806040838503121561162557600080fd5b6000611633858286016114e1565b92505060206116448582860161150b565b9150509250929050565b60006020828403121561166057600080fd5b600061166e8482850161150b565b91505092915050565b60006020828403121561168957600080fd5b600061169784828501611520565b91505092915050565b6116a981611b72565b82525050565b6116b881611b84565b82525050565b60006116c982611a41565b6116d38185611a4c565b93506116e3818560208601611bc7565b6116ec81611cb9565b840191505092915050565b6000611704602383611a4c565b915061170f82611cca565b604082019050919050565b6000611727602283611a4c565b915061173282611d19565b604082019050919050565b600061174a602283611a4c565b915061175582611d68565b604082019050919050565b600061176d602683611a4c565b915061177882611db7565b604082019050919050565b6000611790602883611a4c565b915061179b82611e06565b604082019050919050565b60006117b3602183611a4c565b91506117be82611e55565b604082019050919050565b60006117d6602583611a4c565b91506117e182611ea4565b604082019050919050565b60006117f9602483611a4c565b915061180482611ef3565b604082019050919050565b600061181c602583611a4c565b915061182782611f42565b604082019050919050565b600061183f601f83611a4c565b915061184a82611f91565b602082019050919050565b61185e81611bb0565b82525050565b61186d81611bba565b82525050565b600060208201905061188860008301846116a0565b92915050565b60006020820190506118a360008301846116af565b92915050565b600060208201905081810360008301526118c381846116be565b905092915050565b600060208201905081810360008301526118e4816116f7565b9050919050565b600060208201905081810360008301526119048161171a565b9050919050565b600060208201905081810360008301526119248161173d565b9050919050565b6000602082019050818103600083015261194481611760565b9050919050565b6000602082019050818103600083015261196481611783565b9050919050565b60006020820190508181036000830152611984816117a6565b9050919050565b600060208201905081810360008301526119a4816117c9565b9050919050565b600060208201905081810360008301526119c4816117ec565b9050919050565b600060208201905081810360008301526119e48161180f565b9050919050565b60006020820190508181036000830152611a0481611832565b9050919050565b6000602082019050611a206000830184611855565b92915050565b6000602082019050611a3b6000830184611864565b92915050565b600081519050919050565b600082825260208201905092915050565b6000611a6882611bb0565b9150611a7383611bb0565b9250827fffffffffffffffffffffffffffffffffffffffffffffffffffffffffffffffff03821115611aa857611aa7611c2c565b5b828201905092915050565b6000611abe82611bb0565b9150611ac983611bb0565b925082611ad957611ad8611c5b565b5b828204905092915050565b6000611aef82611bb0565b9150611afa83611bb0565b9250817fffffffffffffffffffffffffffffffffffffffffffffffffffffffffffffffff0483118215151615611b3357611b32611c2c565b5b828202905092915050565b6000611b4982611bb0565b9150611b5483611bb0565b925082821015611b6757611b66611c2c565b5b828203905092915050565b6000611b7d82611b90565b9050919050565b60008115159050919050565b600073ffffffffffffffffffffffffffffffffffffffff82169050919050565b6000819050919050565b600060ff82169050919050565b60005b83811015611be5578082015181840152602081019050611bca565b83811115611bf4576000848401525b50505050565b60006002820490506001821680611c1257607f821691505b60208210811415611c2657611c25611c8a565b5b50919050565b7f4e487b7100000000000000000000000000000000000000000000000000000000600052601160045260246000fd5b7f4e487b7100000000000000000000000000000000000000000000000000000000600052601260045260246000fd5b7f4e487b7100000000000000000000000000000000000000000000000000000000600052602260045260246000fd5b6000601f19601f8301169050919050565b7f45524332303a207472616e7366657220746f20746865207a65726f206164647260008201527f6573730000000000000000000000000000000000000000000000000000000000602082015250565b7f45524332303a206275726e20616d6f756e7420657863656564732062616c616e60008201527f6365000000000000000000000000000000000000000000000000000000000000602082015250565b7f45524332303a20617070726f766520746f20746865207a65726f20616464726560008201527f7373000000000000000000000000000000000000000000000000000000000000602082015250565b7f45524332303a207472616e7366657220616d6f756e742065786365656473206260008201527f616c616e63650000000000000000000000000000000000000000000000000000602082015250565b7f45524332303a207472616e7366657220616d6f756e742065786365656473206160008201527f6c6c6f77616e6365000000000000000000000000000000000000000000000000602082015250565b7f45524332303a206275726e2066726f6d20746865207a65726f2061646472657360008201527f7300000000000000000000000000000000000000000000000000000000000000602082015250565b7f45524332303a207472616e736665722066726f6d20746865207a65726f20616460008201527f6472657373000000000000000000000000000000000000000000000000000000602082015250565b7f45524332303a20617070726f76652066726f6d20746865207a65726f2061646460008201527f7265737300000000000000000000000000000000000000000000000000000000602082015250565b7f45524332303a2064656372656173656420616c6c6f77616e63652062656c6f7760008201527f207a65726f000000000000000000000000000000000000000000000000000000602082015250565b7f45524332303a206d696e7420746f20746865207a65726f206164647265737300600082015250565b611fc381611b72565b8114611fce57600080fd5b50565b611fda81611bb0565b8114611fe557600080fd5b5056fea264697066735822122048a17545fe74c7d5d3b0754ecc3efa1311b490fa42e4e99d2484d0271dc3b96664736f6c63430008030033",
  "linkReferences": {},
  "deployedLinkReferences": {}
}